:400000000080002011000000890900008909000080B500AF024B034A12681A6000F0B8FCBC760040FA46004010B5054C237833B9044B13B10448AFF300800123237010BD41
:400040009881FF1F00000000945F000008B5064B1BB106480649AFF300800648036813B1054B03B1984708BD00000000945F00009C81FF1F0881FF1F0000000080B584B05A
:4000800000AF786003F098FB0346FB73FA7B084BA3FB02135B09DBB27A68D2B202FB03F3BB73BB7B184603F04FFB1037BD4680BD1F85EB5180B584B000AF786003F0AEFAC6
:4000C0000346FB73FA7B084BA3FB02135B09DBB27A68D2B202FB03F3BB73BB7B184603F065FA1037BD4680BD1F85EB5180B584B000AF0023FB600023BB6000237B6003F044
:400100004DF803F001F800F03FFF002002F0B4FF03F0C2F903F08EFA4FF00000334900F083FB62B600F0ACFB6420FFF7A7FF6420FFF7C0FF46F2A81000F0BCFB00F05EF864
:4001400000F030FA03463B60294B1B78012B05D13B68FB60264B00221A7043E03A68FB689A4204DD3A68FB68D31ABB6003E0FA683B68D31ABB60BB68B3F5FA7F32DC1D4BC1
:400180001B685A1C1B4B1A607A683B6813447B60184B1B687A6892FBF3F3184605F0F2FC0246154B1A603B68FB60124B1B6803F00303002B16D1104B1B68184600F010FAF2
:4001C0000D4B1B68184605F081FE0346184600F071FB094B4FF000021A6000237B60054B00221A60192003F02FFBA9E7000039400C81FF1FB881FF1FB481FF1FB0B596B0F7
:4002000000AF00237B650023FB630023A7F852303B1D00221A60043300221A60043300221A60043300221A60043300221A60043300221A60043300221A60043300221A608E
:40024000043300221A60043300221A60043300F05DFF0346BB634FF07C537B63182387F83330F12387F83230002387F8313097F93330BA6B92FBF3F3184605F083FC034647
:400280001846796B05F0D2FC0346184605F01EFE034687F83030B86B05F074FC044697F9332097F932301344184605F06BFC03461846796B05F06EFD03461D4697F930301A
:4002C000184605F05FFC03462846194605F0AEFC03462046194605F09FFB0346184605F0F5FD0346FB64B86B05F04CFC044697F9332097F931301344184605F043FC034618
:400300001846796B05F046FD03461D4697F93030184605F037FC03462846194605F086FC03462046194605F077FB0346184605F0CDFD0346FB620023BB640023A7F8463099
:400340000023A7F84430002387F843300023A7F8463035E0B7F9464000F024F90346764A82FB03029210DB17D31A9AB2630007F158010B4423F8542CB7F946305B0007F133
:400380005802134433F8543C1BB2184600F092FAB7F946305B0007F15800034433F8543C9AB2B7F8443013449BB2A7F844304FF47A7003F049FAB7F846300133A7F8463060
:4003C000B7F94630132BC5DD0023A7F84630B7F94430594A82FB0312D210DB17D31A9BB29BB21A46920013445B009BB2A7F84430012002F05FFE012002F03EFE00F0D2F88E
:400400000346A7F85230B7F94420B7F95230D31ABB64BB6C002B03DABB6C5B42BB647FE07EE0FB6CDBB2184600F038FE5DE000F0B9F80346A7F85230B7F94420B7F952302B
:40044000D31ABB64BB6C002B02DABB6C5B42BB64BB6C092B08DC97F84330013387F8433040F2D24000F026FA002000F023FAB7F95230184600F01EFAB7F94430184600F06D
:4004800019FAB86C00F016FA0A2000F013FA4FF47A7003F0D9F9B7F94630591C264B83FB0123DA10CB17D21A13469B0013449B00CA1A1346A7F84630B7F94610B7F9523016
:4004C0001D4A82FB03029210DB17D31A9AB24B0007F158010B4423F8542C3B1D1846142100F02EF80346A7F8443097F94330092B9DDD1423BB64002387F843307B6D5A1CE9
:400500007A65B7F952100D4A42F82310B7F95230184600F0CFF997F93030FA6CD31AFB64FA6CFB6A9A42BFF67CAF012002F0A4FD5837BD46B0BD00BF676666660082FF1FEA
:4005400080B485B000AF78600B467B800023FB6000237B810023FB600CE0FB685B007A6813441B889AB27B8913449BB27B81FB680133FB60FB68132BEFDDB7F90A20B7F9C5
:40058000023092FBF3F39BB21A46920013445B009BB29BB21BB218461437BD465DF8047B704700BF80B584B000AF012000F04EF9F860002000F04AF9B860BB689AB2FB6843
:4005C0009BB212B21BB21046194602F07FFC7860786802F0B1FC034618461037BD4680BD80B586B000AF786078682B4905F0D2FB0346184604F0A6FE02460B46C7E90423BF
:40060000264BD3E90023D7E9040104F03BFD02460B46C7E90223D7E902011BA3D3E9002305F056F90346002B12D0BB68BB60FB6883F00043FB60012002F03CFDD7E9020150
:4006400005F06EF903460020194600F029F815E0D7E902010EA3D3E9002305F057F90346002B0BD0012002F025FDD7E9020105F057F903460120194600F012F81837BD4617
:4006800080BD00BFAFF300809A9999999999B9BF9A9999999999B93F0000C842F881FF1F80B586B000AF786039607B68012B3DD13B680A2B05DD52A3D3E90023C7E90423D0
:4006C0001AE03B689B00184604F02AFE02460B46104619464CA3D3E9002304F0B1FF02460B46104619464FF000024B4B04F0CCFC02460B46C7E90423D7E9040105F010F974
:400700000346FB60002002F0B7FC002002F0D2FCFB68DBB2184600F0C1FC7B68DBB2184602F0E2FC012002F0A7FC66E07B68002B3AD13B68142B05DD4FF00002374BC7E98B
:4007400004231AE03B689B00184604F0E9FD02460B46104619462EA3D3E9002304F070FF02460B46104619464FF000022A4B04F08BFC02460B46C7E90423D7E9040105F0D8
:40078000CFF80346BB60002002F076FCBB68DBB2184600F083FC7B68DBB2184602F0A4FC012002F069FC28E07B68022B25D11C4BD3E90023104619464FF00002194B05F092
:4007C000A5F80346002B0CD0002002F055FC002002F08AFC642000F061FC012002F04CFC0BE0002002F048FC012002F07DFC642000F054FC012002F03FFC1837BD4680BD77
:400800000000000000C072400AD7A3703D0AE33FF2D24D621058D93F0080604000007840F881FF1F0000394080B483B000AFC7E900010549D7E90023C1E900230C37BD4603
:400840005DF8047B704700BFF881FF1F80B584B000AF0346FB71FB79184602F071FC02F071FD002002F08EFD02F0ACFD0346FB6002F078FDFB6818461037BD4680BD00BFEF
:4008800080B500AF0020002100F04CFC0BE000F0D7FD0346002B06D000F0C6FD0346002B01D000F001FF00F0BFFD0346002BEED080BD00BF80B584B000AF78600A23BB73D5
:4008C0000D237B737A682D4BA3FB02139B09DBB23033DBB23B727A68284BA3FB02139B094FF47A7101FB03F3D31A7B607A68244BA3FB02135B09DBB23033DBB27B727A68B7
:400900001F4BA3FB02135B09642101FB03F3D31A7B602E23BB727A681A4BA3FB0213DB08DBB23033DBB2FB727968164BA3FB0123DA0813469B0013445B00CA1A7A607B6885
:40094000DBB23033DBB23B7300BF00F0F3FE0346002BFAD007F108031846062100F0B4FE00BF00F0E7FE0346002BFAD00020002100F0AAFE1037BD4680BD00BFD34D6210C1
:400980001F85EB51CDCCCCCC80B400AFFEE700BF80B586B000AF224B7B61224B3B61204B7B6135E03B691B68FB603B695B68BB603B699B683B6000237B600CE0FB681A68C2
:4009C000BB681A60BB680433BB60FB680433FB607B6804337B607A683B689A42EED13B69DB683B6000237B6008E0BB6800221A60BB680433BB607B6804337B607A683B68C5
:400A00009A42F2D13B6910333B617B69013B7B617B69002BC6D105F085FAFFF767FBFEE7010000001062000080B582B000AF174B174A1A60174B174A126842F400721A601C
:400A400000237B600FE07B68032B04D8124B7A6853F8223000E0114B114A796842F821307B6801337B607B682F2BECD90D4B1B78DAB20D4B1A700D4B094A1A6000F0E6F97C
:400A80000B4B00221A600837BD4680BD0CED00E00004FA0514ED00E000000000890900000080FF1FBC7600400481FF1F08ED00E00081FF1F80B582B000AF786039607868E8
:400AC00000213A6805F05DFA0837BD4680BD00BF80B584B000AFF860B9607A60F868B9687A6805F045FA1037BD4680BD80B483B000AF0346FB71FEE780B487B000AF786086
:400B0000396000233B6100237B6126E07B699B007A6813441B68BB60BB68FB73BB6823F0FF03BB6013E03B695B003A6813441B781A46BB6813443A69520039680A44527818
:400B40001A703B6901333B61FB7B013BFB73FB7B002BE8D17B6901337B617B691C2BD5D91C37BD465DF8047B704700BF80B582B000AF364B01221A80354B18221A70354B78
:400B800004221A80344B18221A70344B40F65F121A80334B18221A70324B06221A70324B52221A70314B324A1278D2B21A70314B4FF4E2621A80304B41F251221A8000237B
:400BC000FB7019237B6014E0FB785B00DAB22B4B1B78DBB203F00103DBB21343DBB203F00303FB704FF4F07002F00EFE7B68013B7B607B68002B02D0FB78032BE4D17B6810
:400C0000002B02D10320FFF771FF1D4B4FF480721A801B4B07221A701A4B00221A701A4B48221A70164B00221A70184B00221A70174B02221A70174B164A1278D2B242F045
:400C40000702D2B21A700837BD4680BD80400040824000408440004086400040884000408A4000400043004000420040A14600400F0100492242004020420040254200404E
:400C80000440004006400040084000400940004001400040A243004080B483B000AF1E4B1B78FB711D4B1B78BB711D4B1B787B711C4BFA7902F00702D2B21A701A4BFA792C
:400CC0001209D2B21A70154BBA7942F00302D2B21A70134B7A7942F00302D2B21A70134B10221A70124B40221A70124B00221A70114B80221A70114B40221A70084B7A79DB
:400D00001A70064BBA791A700D4B44221A700C37BD465DF8047B7047CF010049F8460040F94600406E5800406F5800403D510040095900400B590040285B00402C5B004041
:400D40007658004080B483B000AF0346FB71FB79022B0ED8FA79094B53F82230F979074A52F821201178FA790548825C0A43D2B21A700C37BD465DF8047B7047985F000017
:400D8000A45F000080B483B000AF0346FB71FB79022B10D8FA790A4B53F82230F979084A52F821201178FA790648825CD243D2B20A40D2B21A700C37BD465DF8047B70473E
:400DC000985F0000A45F000080B483B000AF0346FB71FB79022B0ED8FA79094B53F82230F979074A52F821201178FA790548825C0A43D2B21A700C37BD465DF8047B7047A2
:400E0000A85F0000B45F000080B483B000AF0346FB71FB79022B10D8FA790A4B53F82230F979084A52F821201178FA790648825CD243D2B20A40D2B21A700C37BD465DF8DC
:400E4000047B7047A85F0000B45F000080B582B000AF72B63A4B3A4A1278D2B242F00402D2B21A700023FB7113E0FA7913465B0013445B00334A13443B603B681A683B68F5
:400E80009B889BB210461946FFF714FEFB790133FB71FB79082BE8D94FF090402A49FFF72BFE2A4B294A1278D2B242F00202D2B21A70274B264A1278D2B242F00202D2B204
:400EC0001A70244B234A1278D2B242F04002D2B21A70214B204A1278D2B242F01002D2B21A701E481E490822FFF7F2FD1D481E490A22FFF7EDFD1D481D490822FFF7E8FD42
:400F00001C481D490822FFF7E3FD1C4B1B4A1278D2B242F00802D2B21A70194B01221A70FFF724FE164BC1221A70FFF7B5FE154808490E22FFF7CCFD0837BD4680BD00BF48
:400F4000E8460040B85F0000740000480350014013500140A0430040C243004002510040DC020048F0510040E402004832510040F002004842510040F80200482243004071
:400F800000480040B043004080B500AF054B1B78002B04D100F008F8024B01221A7000F03FF880BDEC81FF1F80B582B000AF1A4B1B78DBB223F03F03FB71174BFA7942F073
:400FC0000902D2B21A70154B144A1278D2B242F00102D2B21A70602000F032F8602000F04DF8012000F05AF8002000F067F802F015FC0346BB71094B084A1278D2B242F04A
:401000001002D2B21A70BB79184602F00BFC00F027F80837BD4680BD756500409565004080B400AF054B054A1278D2B262F07F02D2B21A70BD465DF8047B7047756500400A
:4010400080B483B000AF0346FB71044BFA791A700C37BD465DF8047B704700BF0565004080B500AF01E000F045F800F037F8034603F01003002BF6D180BD00BF80B483B06A
:4010800000AF0346FB71044BFA791A700C37BD465DF8047B704700BF4565004080B483B000AF0346FB71044BFA791A700C37BD465DF8047B704700BF2565004080B483B02E
:4010C00000AF0346FB71044BFA791A700C37BD465DF8047B704700BF8565004080B400AF034B1B78DBB21846BD465DF8047B70476565004080B400AF034B1B78DBB2184690
:40110000BD465DF8047B70475565004080B400AF034B1B78DBB21846BD465DF8047B70474565004080B582B000AF02460B46FA71BB71094B1B78002B04D100F00FF8064B8B
:4011400001221A70FA79BB791046194600F0CCF80837BD4680BD00BFED81FF1F80B582B000AF02F05BFB0346FB714F4B4E4A1278D2B242F00102D2B21A704C4B4B4A12789C
:40118000D2B242F00102D2B21A70494B01221A70484B02221A70484B474A1278D2B202F07F02D2B21A70002002F070FB434B434A1278D2B222F00602D2B21A70404B404A50
:4011C0001278D2B222F02002D2B21A703B4B3B4A1278D2B242F00102D2B21A70012002F055FB282002F052FB364B364A1278D2B202F07F02D2B21A70324B324A1278D2B2C2
:4012000022F04002D2B21A702C4B2C4A1278D2B242F00202D2B21A70022002F037FB274B264A1278D2B242F00402D2B21A70264B00221A70254B00221A70FB79184602F094
:40124000F1FA1720224902F033FB1720072102F057FB15201F4902F02BFB1520072102F04FFB18201C4902F023FB1820072102F047FB0120194902F01BFB0120072102F0C9
:401280003FFB0220164902F013FB0220072102F037FB0320134902F00BFB0320072102F02FFB0837BD4680BDA5430040B54300409D6000400960004010600040944300409B
:4012C00012600040F85100408460004085600040A11E0000951E000065170000911D0000E51D0000391E000080B582B000AF02460B46FA71BB71254B4FF400021A60234B92
:401300004FF080721A60214B02221A601F4B04221A601E4B08221A601D4B00221A70BB79002B02D0012B04D007E01A4B02221A7007E0184B03221A7003E0164B03221A70B6
:4013400000BF154BFA791A70144B00221A70144B00221A70134B00221A70134B00221A70124B00221A70124B00221A70114B03221A70114B80221A70012002F045FA0F4BD6
:4013800004221A700837BD4680BD00BF00E100E0A882FF1F09600040AC82FF1FA982FF1FAB82FF1F2783FF1F2F83FF1F3083FF1F2E83FF1F28600040086000401260004053
:4013C00080B400AF0F4B00221A700F4B00221A700E4B00221A700E4B00221A700D4B00221A700D4B00221A700C4B00221A700C4B03221A700B4B80221A70BD465DF8047B8A
:40140000704700BFA882FF1FA982FF1FAB82FF1F2783FF1F2F83FF1F3083FF1F2E83FF1F286000400860004080B400AF034B1B78DBB21846BD465DF8047B7047A982FF1F2C
:4014400080B483B000AF0023FB71094B1B78DBB2002B05D0064B1B78FB71054B00221A70FB7918460C37BD465DF8047B704700BF2783FF1F90B484B000AF3960134602467C
:40148000FA71BB80FB79002B69D0FB79082B66D8FB79013BDBB21B017B737A7B324B1344BB60B988FA79314813465B0013449B000344DB889BB2C3F5007399420BD9FA7977
:4014C0002A4913465B0013449B000B44DB889BB2C3F50073BB807A7B254B13441946BB881B0A9BB2D8B2FA79204C13465B0013449B002344DB78DBB20343DBB20B707A7B05
:401500001C4B1344BA88D2B21A703B68002B0FD00023FB8108E0FB893A6813441A78BB681A70FB890133FB81FA89BB889A42F2D3FA790E4913465B0013449B000B44002231
:401540005A707A7B0C4B13441946FA79074813465B0013449B0003445B79DBB20B701037BD4690BC704700BF88600040B082FF1F0C6000400D6000400E60004080B485B020
:4015800000AF0346FB71FB79002B1ED0FB79082B1BD8FB79013BDBB21B01FB73FA790D4913465B0013449B000B4400225A70FA7B094B13441946FA79064813465B001344E4
:4015C0009B0003445B79DBB20B701437BD465DF8047B7047B082FF1F0E60004080B582B000AF0023FB71294B1B78DBB2DBB25BB2002B11DA264B1B78DBB2212B00D00AE0D6
:40160000244B07221A80234B234A5A6000F026FA0346FB7100BF34E01C4B1B78DBB2DBB25BB2002B2DDB1A4B1B78DBB2202B02D0222B13D025E0174B07221A80154B164A3B
:401640005A60164B1B78DBB243F00103DAB2134B1A7000F083FA0346FB7112E0104B1B78DBB21A460F4B1A800C4B1B78DBB243F00203DAB2094B1A7000F010FB0346FB71D8
:4016800000BFFB7918460837BD4680BD00600040016000403483FF1F1081FF1FA482FF1F02600040A282FF1F80B500AF044B00221A70044B1B78DBB21846FFF75FFF80BDF0
:4016C000A482FF1FA082FF1F80B582B000AF78600B467B80154B1B78DBB21A46144913465B0013449B000B4408331B889BB27A889A420FD90D4B1B78DBB21A460C49134683
:401700005B0013449B000B4408331B887B80002002F08EF8054B1B78DAB27B88104679681A46FFF7A7FE0837BD4680BDA182FF1FB082FF1F80B400AF084B1B78DBB21A4632
:40174000074913465B0013449B000B445B78DBB21846BD465DF8047B704700BFA182FF1FB082FF1F80B582B000AF374B1B78BB71BB7903F01003002B63D00123FB71BB79D5
:401780005BB2002B13DABB7903F00F03012B02D00023FB711DE000F061F82C4B1B78DBB2DBB25BB2002B14DA0023FB7111E0BB7903F04003002B02D000F094F809E0BB792E
:4017C00003F02003002B02D000F0B2F801E00023FB71FB79002B34D01B4B1B78BB71BB795BB2002B2DDB1A4B1B78DAB2194B1B78DBB21343BB71184BBA791A70164B1B78F2
:40180000DBB2BA799A421CD1104B1B78FB710E4B1B78DBB223F07F03BB71BB79002B0AD1094B0A4A1278D2B21A70074B1B78DBB203F00F03FB71054B1B78DBB2FA799A426F
:40184000E2D10837BD4680BD286000403183FF1FAA82FF1F2683FF1F2960004080B582B000AF1D4B1B78FB711B4BFA791A701A4B1B78FB71FB795BB2002B03DA174BFA7920
:401880001A7025E0022000F049FA154B1B78DBB203F06003202B08D0402B0BD0002B0ED100F004FB0346FB710CE002F04BF80346FB7107E001F0DEFA0346FB7102E0002317
:4018C000FB7100BFFB79002B02D1044B03221A700837BD4680BD00BF286000403183FF1F0060004080B500AF104B1B78DBB2062B19D801A252F823F02719000027190000D4
:4019000015190000271900001B190000271900002119000000F0FCF806E000F0AFF903E000F0D8F900E000BF80BD00BFA882FF1F80B500AF124B1B78DBB2062B1DD801A278
:4019400052F823F07B1900007B190000611900007B190000671900007B1900006D19000000F0DCF80AE000F02DF907E0032000F0D5F9044B03221A7000E000BF80BD00BF15
:40198000A882FF1F3183FF1F80B483B000AF0023FB712B4B1B78DBB21A462A4B1B889BB213449AB2274B1A8018E0FB7903F1804303F5C043244A52681278D2B21A70224B13
:4019C0005B685A1C204B5A60FB790133FB711E4B1B889BB2013B9AB21B4B1A801A4B1B889BB2002B02D0FB79072BDED9144B1B78DBB2082B02D0FB79002B0FD0134B1B78F2
:401A0000DBB283F07F03DB43DAB2104B1A70104B0F221A700F4B02221A7005E00C4B02221A700C4B02221A70054BFA791A700A4BFA791A700C37BD465DF8047B704700BF59
:401A40002E83FF1F2083FF1F3483FF1FAA82FF1F3183FF1FA882FF1F2683FF1F80B582B000AF154B1B889BB2002B02D100F02EF81DE0124B02221A70114B00221A7000F05C
:401A80006DF9104B1B78DBB21B029AB20E4B1B78DBB213439BB2FB80074B1B889BB2FA889A4202D2044BFA881A80FFF76DFF012318460837BD4680BD3483FF1FA882FF1FE6
:401AC000AA82FF1F076000400660004080B400AF0A4B02221A700A4B80221A70094B0F221A70094B00221A70084B00221A7001231846BD465DF8047B704700BFA882FF1FC3
:401B0000AA82FF1F3183FF1F2E83FF1F2683FF1F80B500AFFFF738FF80BD00BF80B500AF0A4B1B78DBB21A46094B1B889BB213449AB2074B1A80074B00221A70012000F04B
:401B4000EDF8054B03221A7080BD00BF2E83FF1F2083FF1FA882FF1F3183FF1F80B582B000AF124B04221A70114B80221A7000F0F5F8104B1B78DBB21B029AB20E4B1B7883
:401B8000DBB213439BB2FB800C4B1B889BB2FA889A4202D2094BFA881A80094B0B221A70012318460837BD4680BD00BFA882FF1FAA82FF1F07600040066000403483FF1F12
:401BC0003183FF1F80B483B000AF0023BB71254B1B78DBB203F00F03DBB2023BFB71FB799AB2214B1B889BB213449AB21E4B1A801BE01E4B5A68BB7903F1804303F5C04315
:401C00001B78DBB21370194B5B685A1C174B5A60BB790133BB71FB79013BFB71134B1B889BB2013B9AB2114B1A80104B1B889BB2002B02D0FB79002BDBD10D4BFA791A70E4
:401C40000C4B1B78DBB283F07F03DB43DAB2094B1A70094B0B221A700C37BD465DF8047B704700BF296000402083FF1F3483FF1F2683FF1FAA82FF1F3183FF1F80B500AFAF
:401C8000044B00221A70012000F048F8024B03221A7080BDA882FF1F3183FF1F80B400AF084B06221A70084B06221A70074B80221A70074B00221A7001231846BD465DF842
:401CC000047B7047A882FF1F3183FF1FAA82FF1F2683FF1F80B500AF0C4B1B78DBB2002B0AD00B4B094A1278D2B262F07F02D2B21A70064B00221A70064B00221A70012070
:401D000000F00CF8044B03221A7080BD2F83FF1F08600040A882FF1F3183FF1F80B483B000AF0346FB710B4B9B68002B0CD0094B9B68FA791A70074B9B68074A128892B2DF
:401D40005A80044B00229A600C37BD465DF8047B704700BF3483FF1F2083FF1F80B400AF094B00221A80094B9B68002B07D0074B9B6800221A70054B9B6800225A80BD4659
:401D80005DF8047B704700BF2083FF1F3483FF1F80B400AF104B1B78104B1B7BDBB203F00303012B08D00D4BDB7BDBB283F07F03DB43DAB2094BDA73084B01225A73084BE6
:401DC000074A1278D2B222F00102D2B21A70BD465DF8047B704700BF0E600040B082FF1F0B60004080B400AF104B1B78104B1B7EDBB203F00303012B08D00D4BDB7EDBB2DE
:401E000083F07F03DB43DAB2094BDA76084B01225A76084B074A1278D2B222F00202D2B21A70BD465DF8047B704700BF1E600040B082FF1F0B60004080B400AF124B1B786A
:401E4000124B93F82430DBB203F00303012B0AD00E4B93F82730DBB283F07F03DB43DAB20A4B83F82720094B012283F82520084B074A1278D2B222F00402D2B21A70BD460A
:401E80005DF8047B704700BF2E600040B082FF1F0B60004080B400AFBD465DF8047B704780B500AFFFF78CFA80BD00BF80B586B000AF0023FB7500233B619D4B00221A8032
:401EC0009C4B1B78DBB2DBB25BB2002B80F20581994B1B78DBB20A2B00F2FD8001A252F823F000BF2B200000D7200000D7200000D7200000D7200000D7200000111F000069
:401F0000D7200000A1200000D7200000B72000008A4B1B78DBB2012B0ED100F025FEB860BB685A68824B5A60814B12221A80FFF795FD0346FB7577E0804B1B78DBB2022B3A
:401F400023D17F4B1B78DBB2184600F0E3FDB860BB68002B68D0BB685A68754B5A60744B5B6803331B78DBB21B029AB2704B5B6802331B78DBB213439BB29AB26C4B1A8004
:401F8000FFF76CFD0346FB75A6E06C4B1B78DBB2032B44D10023FB736A4B3B6109E03B691B78FB71FB793A6913443B61FB7B0133FB73634B1B78DBB2FA7B9A4204D23B6940
:401FC0001B78DBB2002BEAD15D4B1B78DBB2EE2B01D15D4B3B615A4B1B78DBB2002B0BD0574B1B78DAB2594B1B7C9A4204D1584800F0ACF9564B3B613B691B78DBB2002B0B
:4020000012D03B691B78DBB21A46494B1A80484B3A695A60FFF722FD0346FB755CE001F091FC0346FB7557E056E0424B1B78DBB203F00303002B1FD0022B00D02FE03C4B7B
:4020400002221A80434B1B78DBB203F07F02424913465B0013449B000B449B78DAB23F4B1A703E4B00225A70314B3C4A5A60FFF7F5FC0346FB7512E02D4B02221A80384BD1
:402080001B78DAB2354B1A70344B00225A70284B324A5A60FFF7E2FC0346FB7500BF1BE0234B01221A80224B2E4A5A60FFF7D6FC0346FB7510E01E4B01221A80254B1B7838
:4020C000DBB21A46284B1A44194B5A60FFF7C6FC0346FB7500E000BF1FE1174B1B78DBB2013B0A2B00F2188101A252F823F000BF01220000192300008D220000192300006D
:402100001D2100001923000019230000192300007121000019230000C7210000084B1B78DAB2124B1A70FFF7B9FD0346FB75F4E03483FF1F006000400160004003600040AC
:40214000026000405C6000005C610000046000004C83FF1F04600040B082FF1FF081FF1F3083FF1FA982FF1F2483FF1F2F83FF1F6C4B1B78BB71BB79002B06D0BB79013BA6
:40218000DBB2184600F0C6FCB860BB79002B02D0BB68002B02D1BB79002B13D1624B1B78DBB2BA799A4208D05F4BBA791A705F4B01221A70012000F0D1F9FFF76FFD0346DD
:4021C000FB75AAE0A9E000F019FE0346002B16D0574B1B787B71574B7A791A70534B01221A7000F05DFB7B797A7953498A5CD1B2524AD154FFF752FD0346FB758DE08CE0A4
:402200004F4B1B78DBB203F00303012B22D0012B0DD3022B00D038E0424B1B78DBB2002B04D100F049FD0346FB752EE02DE03D4B1B78DBB2012B0CD1424B1B78DBB223F084
:402240000203DAB23F4B1A70FFF728FD0346FB751BE01AE0364B1B78DBB2012B14D8344B1B78DBB21A463849CB5CD9B22D4B1B78DBB2DB43DBB20B40D9B2334B9954FFF78B
:402280000DFD0346FB75FFE700BF46E02C4B1B78DBB203F00303012B22D0012B0DD3022B00D038E01F4B1B78DBB2002B04D100F093FC0346FB752EE02DE01A4B1B78DBB25F
:4022C000012B0CD11F4B1B78DBB243F00203DAB21C4B1A70FFF7E2FC0346FB751BE01AE0134B1B78DBB2012B14D8114B1B78DBB21A461549CB5CD9B20A4B1B78DBB2DB43FF
:40230000DBB20B40D9B2104B9954FFF7C7FC0346FB75FFE700BF00E000BFFB7D18461837BD4680BD02600040A982FF1F2783FF1F04600040AB82FF1F2483FF1F2C83FF1FA3
:40234000006000403083FF1F2883FF1F90B488B000AF78600023BB771F4B07F10C040FCB84E80F007B68002B32D07B6822221A707B68013303221A700223FB7725E0BB7FA7
:4023800003F1924303F580731B787B77BB7F0133BB77FB7F7A6813447A7F1209D2B207F120010A4412F8142C1A70FB7F02337A6813447A7F02F00F0207F120010A4412F869
:4023C000142C1A70FB7F0433FB77FB7F212BD6D92037BD4690BC7047F05F000080B483B000AF0123FB710023BB7197E0BB7903F1804303F5C1430C221A70FA794E49134661
:402400005B0013449B000B445B79DBB2002B18D0FA79494913465B0013449B000B441B79DBB2DBB25BB2002B05DABA79434B13440C221A700AE0BA79404B134408221A704A
:4024400004E0BA793D4B134480221A70BA793C4B13441946FA79384813465B0013449B00034408331B889BB21B0A9BB2DBB20B70BA79344B13441946FA792F4813465B003F
:4024800013449B00034408331B889BB2DBB20B70BA792D4B13441946FA79274813465B0013449B000344DB889BB2DBB20B70BA79264B13441946FA791F4813465B00134489
:4024C0009B000344DB889BB21B0A9BB2DBB20B70BA791F4B13441946FA79174813465B0013449B000344DB889BB2DBB20B70BA79184B13441946FA790F4813465B001344E5
:402500009B000344DB889BB21B0A9BB2DBB20B70FB790133FB71BB791033BB71BB795BB2002BBFF663AF0C4BFF221A700C37BD465DF8047B704700BFB082FF1F0E60004015
:402540000C6000400D600040866000408760004084600040856000400A60004080B588B000AF0346FB7100237B830023FB7743E0FA7FA14913465B0013449B000B4400229E
:402580001A70FA7F9C4913465B0013449B000B4400229A70FA7F984913465B0013449B000B4400225A70FA7F934913465B0013449B000B440022DA70FA7F8F4913465B001C
:4025C00013449B000B4400225A71FA7F8A4913465B0013449B000B44083300221A80FA7F854913465B0013449B000B44083300229A70FB7F0133FB77FB7F082BB8D9FB7900
:40260000002B10D000237B770AE07B7F7B4A0021D1547B7F7A4A0021D1547B7F01337B777B7F012BF1D9774B1B78DBB2002B00F03081744B1B78DBB2013BDBB2184600F0D3
:4026400069FA38613B695B68FB60FB6807331B7803F04003002B08D06B4B1B78DBB243F00103DAB2684B1A7007E0674B1B78DBB223F00103DAB2644B1A703B6908333B614D
:402680003B691B78FB7701237B77AAE03B695B687B610023BB779CE07A7F7B699B7803F07F039A4240F08F807A7F534913465B0013449B000B4408331B889AB27B699B8882
:4026C0009A420BD27A7F7B6999884B4813465B0013449B00034408330A461A807B691B78464AD35CDAB27B695B789A426BD17B69DB7803F00303FB727B699B78DBB25BB2BF
:40270000002B25DA7A7F3C4913465B0013449B000B4401225A70797FFB7A012B01D1072200E00D2234480B465B000B449B0003445A717B699B790A2B03D07B699B79022B23
:402740002BD1FB7A032B28D0304B7A7F1A7024E07A7F294913465B0013449B000B4400225A70797FFB7A012B01D1052200E0092221480B465B000B449B0003445A717B69E2
:402780009B790A2B03D07B699B79022B05D1FB7A032B02D01E4B7A7F1A707A7F7B699978154813465B0013449B0003440A461A717A7F7B69D978104813465B0013449B0062
:4027C00003440A461A707B6908337B61BB7F0133BB77BA7FFB7F9A42FFF45EAF7B7F01337B777B7F082B7FF651AF3B695B687B6100237B7723E000BFB082FF1F2483FF1F9D
:402800002C83FF1FA982FF1F3083FF1FA182FF1FA082FF1F7B699B7803F07F027B6919781D4813465B0013449B00034408330A469A707B6908337B617B7F01337B777A7F55
:40284000FB7F9A42E6D300F0A1F90246134B1A600123FB7718E0FA7F0F4913465B0013449B000B447A8BDA80FA7F0B4913465B0013449B000B4408331B889AB27B8B1344A3
:402880007B83FB7F0133FB77FB7F082BE3D9FFF7A5FD2037BD4680BDB082FF1F1C83FF1F80B584B000AF8F4B1B78DBB2002B00F015818C4B1B78DBB2013BDBB2184600F084
:4028C00029F978607B6808337B607B681B78FB707B685B68BB600023FB73FAE0BB681B78814AD35CDAB2BB681B788049CB5CDBB29A4200F0E880BB681B787B4AD35CDAB2FF
:40290000BB685B789A4240F0DE80BB681A78784B1B78DBB29A4240F0D680BB689B7803F07F03BB70BB78013BDBB21B017B70BB68DB7803F003033B70BB689B78DBB25BB27A
:40294000002B17DABA786B4913465B0013449B000B4401225A70B9783B78012B01D1072200E00D2263480B465B000B449B0003445A7116E0BA785F4913465B0013449B0090
:402980000B4400225A70B9783B78012B01D1052200E0092257480B465B000B449B0003445A717A78544B134401221A70BA78BB689988504813465B0013449B0003440833B6
:4029C0000A461A80BA78BB6899784A4813465B0013449B0003440A461A71BA78BB68D978444813465B0013449B0003440A461A70BA78404913465B0013449B000B44002262
:402A0000DA707A783D4B13441946BA78394813465B0013449B00034408331B889BB21B0A9BB2DBB20B707A78354B13441946BA78304813465B0013449B00034408331B883A
:402A40009BB2DBB20B707A782E4B13441946BA78284813465B0013449B000344DB889BB2DBB20B707A78284B13441946BA78214813465B0013449B000344DB889BB21B0A21
:402A80009BB2DBB20B707A78204B13441946BA78184813465B0013449B000344DB889BB2DBB20B707A781A4B13441946BA78114813465B0013449B000344DB889BB21B0A1D
:402AC0009BB2DBB20B70BB680833BB60FB7B0133FB73FA7BFB789A42FFF400AF1037BD4680BD00BFA982FF1F2483FF1F2C83FF1F04600040B082FF1F0E6000400C6000401B
:402B00000D6000408660004087600040846000408560004080B485B000AF0346FB71104B1B78DBB20F4ADB0013445B68FB60FB680833FB60FB681B78FA799A4202D300232B
:402B4000FB6005E0FB79DB00FA6813445B68FB60FB6818461437BD465DF8047B704700BFAC82FF1F5461000080B400AF054B1B78DBB2054ADB0013445B681846BD465DF848
:402B8000047B7047AC82FF1F5461000080B584B000AF104B1B78DBB2013BDBB21846FFF7B9FFB860BB68002B0DD0BB685B681B79FB71FB790233DB00BA681344BB60BB6812
:402BC0005B68FB6001E00023FB60FB6818461037BD4680BDA982FF1F80B582B000AF0023FB71324B1B78DBB203F07F03BB71BB79013BDBB21B017B71BB79002B51D0BB792B
:402C0000082B4ED8BA79B97929480B465B000B449B0003449B78DBB243F00103D9B2244813465B0013449B0003440A469A70BA791F4913465B0013449B000B440022DA7077
:402C4000BA79B9791A480B465B000B449B0003445B78DBB243F00203D9B2154813465B0013449B0003440A465A70BA79104913465B0013449B000B441B79DBB2DBB25BB2ED
:402C8000002B05DA7A790B4B13448D221A7004E07A79084B134489221A70FEF7FFFF0346FB71FB7918460837BD4680BD04600040B082FF1F0E60004080B582B000AF0023A7
:402CC000FB714A4B1B78DBB203F07F03BB71BB79013BDBB21B017B71BB79002B00F08180BB79082B7DD8BA79B97941480B465B000B449B0003449B78DBB223F00103D9B2F4
:402D00003B4813465B0013449B0003440A469A70BA79374913465B0013449B000B440022DA707A79334B13441A467979314B0B441B78DBB203F07F03DBB21370BA79B979C6
:402D40002B480B465B000B449B0003445B78DBB223F00203D9B2264813465B0013449B0003440A465A70BA79214913465B0013449B000B441B79DBB2DBB25BB2002B16DA23
:402D8000BA791B4913465B0013449B000B445B78DBB2012B05D17A79174B13440C221A701BE07A79144B13440D221A7015E0BA790F4913465B0013449B000B445B78DBB28F
:402DC000012B05D17A790C4B134408221A7004E07A79094B134409221A70FEF75FFF0346FB71FB7918460837BD4680BD04600040B082FF1F0C6000400E60004080B584B035
:402E000000AF0123FB73164B1B78BB73154B1B78DBB2013BDBB21846FFF77CFEB860BB685B681B79FB71BA7BFB799A4202D2BB7B012B02D90023FB730CE0BB7BBA7B0A4949
:402E40008A5CD1B2094AD154BB7B094A1278D1B2054AD154FB7B18461037BD4680BD00BF04600040A982FF1F2483FF1F2C83FF1F0260004080B582B000AF0023FB710F4B2D
:402E80001B78DBB2DBB25BB2002B12DA0C4B1B78DBB2012B00D00CE00A4B0B4A5A600A4B1B781A46074B1A80FEF7D8FD0346FB7100BFFB7918460837BD4680BD006000401B
:402EC000016000403483FF1F7061000080B485B000AF02460B46FA80BB80B7F9043042F2107202FB03F3BB60B7F90630002B0CDAFB885B429BB2FB81FB895B089BB2FB81ED
:402F0000FB895B429BB2FB8103E0FB885B089BB2FB81B7F90E30BA681344BB60B7F90630BA6892FBF3F3BB60BB6818461437BD465DF8047B704700BFB0B586B000AF7860C2
:402F4000786802F0DDF902460B461046194600F03FFD02460B461046194602F009FD03467B61786902F0EEF902460B461046194635A3D3E9002302F039FA02460B461046F1
:402F8000194633A3D3E9002302F07EF802460B4614461D46786902F0D5F902460B46104619464FF00002304B00F084FD02460B461046194628A3D3E9002302F017FA0246E0
:402FC0000B462046294602F05FF802460B461046194602F0CDFC03463B61386902F0B2F902460B464FF00000204902F029FB02460B46104619461AA3D3E9002302F042F8C9
:4030000002460B46104619464FF00002184B02F0EDF902460B46104619464FF00002154B02F032F802460B461046194602F0A0FC0346184602F04AFF0346FB81FB891BB2E7
:4030400018461837BD46B0BD6943AA9AB34D303FD8FD850B29994D3F4D33E44425658B3E6666666666127140000008400000F03F000059400000E03F80B485B000AF0346D5
:40308000FB710B4B1B78DBB223F00403FB73084BFA799200D2B202F00402D1B2FA7B0A43D2B21A701437BD465DF8047B704700BF4051004080B485B000AF0346FB71094BF5
:4030C0001B78DBB203F07F03FB73064BFA79D201D1B2FA7B0A43D2B21A701437BD465DF8047B70470051004080B483B000AF0346FB71044BFA791A700C37BD465DF8047B48
:40310000704700BF7465004080B582B000AF0023FB710AE0FB791846FDF734FEFB791846FDF772FEFB790133FB71FB79022BF1D9024BFF221A700837BD4680BD1881FF1F96
:4031400080B582B000AF0346FB710B4B1B78FF2B04D0094B1B78184600F010F8FB791846FDF7F0FDFB791846FDF72EFE024BFA791A700837BD4680BD1881FF1F80B582B0D4
:4031800000AF0346FB71FB791846FDF7FBFDFB791846FDF739FE0837BD4680BD80B500AF054B1B78002B04D100F008F8024B01221A7000F025F880BDF481FF1F80B500AFFF
:4031C000102000F005FB0020072100F099FB0020084900F06DFB084B074A1278D2B242F00602D2B21A700C2000F084F8034B00221A8080BD8D340000095900404883FF1FF5
:4032000080B582B000AF00F009FB0346FB712E4B2D4A1278D2B242F00202D2B21A702B4B2A4A1278D2B242F00202D2B21A70284B274A1278D2B242F00202D2B21A70254BAB
:40324000244A1278D2B242F00202D2B21A70224B1B78BB71BB7943F00203BB71BB7923F00103BB711C4BBA791A701C4B80221A701B4B1B4A1278D2B222F04002D2B21A7061
:40328000174B174A1278D2B242F00302D2B21A70144B08221A70144B02221A70134B134A1278D2B242F00802D2B21A700A2000F0EDFA0F4B01221A60FB79184600F0B2FA5F
:4032C0000837BD4680BD00BFAB430040BB430040A2430040B24300400B5900400E5900400D59004008590040164600402F5B004080E200E080B584B000AF0346FB71FB794F
:403300000A2B07D00C2B02D0082B06D008E0C423FB730BE08423FB7308E04423FB7305E0C423FB73002000F083FA00BF044BFA7B1A70FB79184600F05FF81037BD4680BD01
:403340000A59004080B400AF054B054A1278D2B242F00102D2B21A70BD465DF8047B70470859004080B400AF054B054A1278D2B222F00102D2B21A70BD465DF8047B704767
:403380000859004080B584B000AF0346FB710C4B1B78DBB203F00103FB73FB7B012B02D0FB79002BF3D0FB7B012B04D1012000F06DFA034B1B78FB7B18461037BD4680BDC2
:4033C0000959004080B483B000AF094B1B88FB80084B1B889BB29BB2FA88D31A9BB29BB21BB218460C37BD465DF8047B704700BFA25B00404483FF1F80B584B000AF0346CC
:40340000FB71FB790A2B0BD00C2B02D0082B0ED013E04FF48053FB604FF400637B8114E04FF48063FB604FF400737B810DE04FF48073FB6080237B8107E00023FB600023B0
:403440007B81002000F0F4F900BF0C4B00221A80FB6842F2107202FB03F303F59C530833074A82FB03121213DB17D21A054B1A607A89054B1A801037BD4680BD4683FF1F48
:40348000AD8BDB684083FF1F4483FF1F80B400AFBD465DF8047B704780B500AF054B1B78002B04D100F008F8024B01221A7000F03FF880BDF581FF1F80B582B000AF1A4B36
:4034C0001B78DBB223F03F03FB71174BFA7942F00902D2B21A70154B144A1278D2B242F00102D2B21A70C82000F032F8C82000F04DF8002000F05AF8002000F067F800F0DC
:403500008DF90346BB71094B084A1278D2B242F01002D2B21A70BB79184600F083F900F027F80837BD4680BD776500409765004080B400AF054B054A1278D2B262F07F0243
:40354000D2B21A70BD465DF8047B70477765004080B483B000AF0346FB71044BFA791A700C37BD465DF8047B704700BF0765004080B500AF01E000F045F800F037F80346E6
:4035800003F01003002BF6D180BD00BF80B483B000AF0346FB71044BFA791A700C37BD465DF8047B704700BF4765004080B483B000AF0346FB71044BFA791A700C37BD4627
:4035C0005DF8047B704700BF2765004080B483B000AF0346FB71044BFA791A700C37BD465DF8047B704700BF8765004080B400AF034B1B78DBB21846BD465DF8047B7047A5
:403600006765004080B400AF034B1B78DBB21846BD465DF8047B70475765004080B400AF034B1B78DBB21846BD465DF8047B70474765004080B500AF054B1B78002B04D155
:4036400000F008F8024B01221A7000F03FF880BDF681FF1F80B582B000AF1A4B1B78DBB223F03F03FB71174BFA7942F00902D2B21A70154B144A1278D2B242F00102D2B266
:403680001A70C82000F032F8C82000F04DF8002000F05AF8002000F067F800F0BFF80346BB71094B084A1278D2B242F01002D2B21A70BB79184600F0B5F800F027F80837F1
:4036C000BD4680BD766500409665004080B400AF054B054A1278D2B262F07F02D2B21A70BD465DF8047B70477665004080B483B000AF0346FB71044BFA791A700C37BD46BD
:403700005DF8047B704700BF0665004080B500AF01E000F045F800F037F8034603F01003002BF6D180BD00BF80B483B000AF0346FB71044BFA791A700C37BD465DF8047B15
:40374000704700BF4665004080B483B000AF0346FB71044BFA791A700C37BD465DF8047B704700BF2665004080B483B000AF0346FB71044BFA791A700C37BD465DF8047B45
:40378000704700BF8665004080B400AF034B1B78DBB21846BD465DF8047B70476665004080B400AF034B1B78DBB21846BD465DF8047B70475665004080B400AF034B1B7824
:4037C000DBB21846BD465DF8047B70474665004080B483B000AF0346FB71094B084A1278D2B2D1B2FA7922F00702D2B20A43D2B2D2B21A700C37BD465DF8047B704700BFE2
:4038000086400040000000000230800800F0058000BF013800467FF4FCAF7047EFF3108072B6704780F31088704700BFAFF3008080B483B000AF0346FB7101BE0C37BD467C
:403840005DF8047B704700BF80B582B000AF786008E00C4B1B681846FFF7D6FF7B68A3F500437B607B68B3F5004FF2D8064B1B687A6802FB03F31846FFF7C6FF0837BD46E4
:4038800080BD00BF2881FF1F2081FF1F80B582B000AF0346FB80FB88044A127802FB03F31846FFF7B1FF0837BD4680BD2481FF1F80B584B000AF03463960FB710F4B1B68D5
:4038C000FB60FB791F2B02D90020FFF7B1FFFB7903F01F0310339B00FA6813441B68BB60FB7903F01F0310339B00FA6813443A681A60BB6818461037BD4680BD08ED00E037
:4039000080B582B000AF02460B46FA71BB71BB79072B02D90020FFF78BFFFB791F2B02D90020FFF785FFFB7903F01F0303F1604303F56443BA795201D2B21A700837BD4698
:4039400080BD00BF80B582B000AF0023FB710023BB711B4B1B78DBB203F00303012B02D0022B04D012E0174B1B78BB710EE0154B1B78DBB203F07F02134913465B0013447D
:403980009B000B4408339B78BB7100BF0F4B1A68BB7913441B78022B04D0032B07D0012B07D007E0FDF71AFE0346FB7102E000BF00E000BFFB7918460837BD4680BD00BFE9
:4039C0000060004004600040B082FF1F1C83FF1F2DE9F0418AB004460D4600F0E9F9DFF8D080064698F900300F4601330BD02046294601F0FBF930B1204629460022002339
:403A000001F084FF20B1304639460AB0BDE8F081234B98F800600890CDE90245CDE90445019346BB1F4B4FF06042CDE90623204629460022002301F041FF70B102239E425A
:403A4000009322D0684601F0F9F9F0B1089B0BBBDDE906010AB0BDE8F0810123022E00930ED0684601F0EAF950B10F4801F0E8F9CDE90601EAE70D4B0022CDE90623D6E774
:403A800002F04AFA21230360EFE702F045FA22230360DBE702F040FA089B0360D8E700BF98610000FFFFEFC79C6100000000F0FF2C81FF1F2DE9F04F8BB01D46804689461C
:403AC000144600F06DFBDFF8ACA206469AF900300F46013304D02046294601F087F920B9304639460BB0BDE8F08F4046494601F07DF9834600282CD120462946002200230C
:403B000001F0DCFE0028EBD0944B9AF90010944E00220120CDE906234B1CCDF820B0CDE90289CDE904458DE841000DD002290BD0684601F083F9002800F09580089B1BB1C5
:403B400002F0EAF9089B0360DDE906010BB0BDE8F08F002200234046494601F0AFFEF8B1204629460022002301F0A8FE834600284DD07B489AF90030CDE904450121002295
:403B800000240025CDE90289CDE90645019000910892002BCCD0714B0022CDE90623D3E73046394601F01CF98346002860D0002200233046394601F081FE002890D04046AC
:403BC000494601F00DF900288AD02046294601F007F9002884D09AF900306148CDE904450421002200240025022BCDE90289CDE9064501900091089200F08280684601F0C4
:403C00001DF900287CD0089B002B9DD098E72046294601F0E5F800283FF462AF204629460022002301F054FE00283FF459AF4C4A9AF8001001230192CDF820B0CDE90289AC
:403C4000CDE9044500930022002934D10023CDE90623684601F0F2F80028D4D102F05CF921230360CFE702F057F92123036065E74046494601F0B4F8002898D0204629461A
:403C800001F0AEF8002892D03046394601F0AEF8B8B9334A9AF8006001230890CDE90289CDE9044501920093002E2ED100240025CDE90645CDE72B4B0229CDE90623CDD00D
:403CC000C7E727499AF90030032201910092CDF820B0CDE90289CDE90445404649460022F3B9214F4FF060460023CDE9066701F0EFFD002840D19AF90030022B7FF47EAFA1
:403D000002F00AF9222303607DE70020002102460B4601F095FC022ECDE906019ED098E7124F00260023CDE9066701F0D1FD0028E1D000220E4B2046294601F057FB04460A
:403D40000D4601F083F822462B4601F0B7FD0028D1D1044B0022CDE90623CCE70000F03FA06100000000F0FFFFFFEF470000F07F0000E03F2C81FF1F00220A4B2046294641
:403D800001F034FB04460D4601F060F822462B4601F094FD0028AED1034B4FF06042CDE90623A8E70000E03FFFFFEFC7000000002DE9F04FB1F5801F87B002460B460F46CC
:403DC0005BDA21F00046064300F0F5800029C0F2A4810022B24B01F009FB0F460B46B14902468F426FF035054BDCC7F3130606F5152101F6647101F4801484F07F5181F4EA
:403E0000401141EA0603104619460022A64B01F039F94FEA2758B31CA8F2FF38C3F31303A844022B08EB145882468B464FF000022EDC002301F042FD002800F0C580B8F139
:403E4000000F00F07181404601F06AFA80A3D3E9002306460F4601F0C9FA7FA3D3E9002304460D463046394601F0C0FA02460B462046294601F008F907E08A4900258F42D1
:403E8000B3DD1046194601F0FFF807B0BDE8F08F4FF0804301F0F8F802460B465046594601F0CEFBCDE90201404601F039FACDE90401DDE9020102460B4601F097FA024645
:403EC0000B46CDE9000101F091FA65A3D3E9002304460D4601F08AFA63A3D3E9002301F0D3F822462B4601F081FA61A3D3E9002301F0CAF822462B4601F078FA5EA3D3E9D0
:403F0000002301F0C1F8DDE9002301F06FFA5CA3D3E90023CDE900012046294601F066FA59A3D3E9002301F0AFF822462B4601F05DFA57A3D3E9002301F0A6F822462B46E1
:403F400001F054FA0B460246DDE9000101F09CF8A6F5C223C6F5D726A3F27A4351361E43002E04460D4657DD0022504B5046594601F03CFA52465B4601F038FA06460F4696
:403F8000B8F1000F40F0968022462B4601F07CF8DDE9022301F02AFA02460B463046394601F070F802460B465046594601F06AF807B0BDE8F08F0022002300203C4901F007
:403FC0003FFB07B0BDE8F08F52465B465046594601F00CFA30A3D3E9002304460D465046594601F003FA02460B4600202F4901F049F802460B462046294601F0F7F90446D9
:404000000D46B8F1000F40F092805046594622462B4601F037F838E7B8F1000F00F0AB800BA3D3E90023DDE9040101F0DFF922462B4606460F465046594601F023F8DDE971
:40404000022301F0D3F904460D46DDE904017CE00000E0FE422EE63F763C7935EF39EA3D44523EDF12F1C23FDE03CB966446C73F599322942449D23F935555555555E53F4F
:404080009FC678D0099AC33FAF788E1DC571CC3F04FA97999999D93F555555555555D53F00005043FFFFEF7F0000F03F0000E03F000050C336A3D3E90023DDE9040101F03D
:4040C00095F92246804689462B463046394600F0DBFFDDE9022301F089F92FA3D3E9002304460D46DDE9040101F080F902460B462046294600F0C8FF02460B463046394671
:4041000000F0C0FF52465B4600F0BCFF02460B464046494600F0B6FFB7E600F0B3FF0022002301F08DFAB0E600200021ADE6404601F0F6F816A3D3E900238046894601F0B0
:4041400055F906460F464046494613A3D3E9002301F04CF902460B462046294600F092FF52465B4600F08EFF02460B463046394600F088FF89E602460B465046594600F099
:4041800081FFDDE9022301F031F90BE7AFF300800000E0FE422EE63F763C7935EF39EA3D2DE9F04F23F0004B91B089460F465BEA0201CDE9022314461D46804606462ED03B
:4041C000634B29F0004A9A4522DC1FD0604B9B451EDC77D0002F78DB0022049264BB5C4B9B4500F091805B4B9B4565D0B5F1804F00F0F983584B9D421ED1002F1CDB40467C
:40420000494611B0BDE8F04F00F026BD0028DDD00AF1404A0AF5801A5AEA060A04D14D49002011B0BDE8F08F4C4811B0BDE8F04F00F006BE002104914046494600F0CCFD4F
:40424000E6B9BAF1000F04D0424B27F040429A4214D1002DC0F20884002FE2DA0AF1404ADDF810B00AF5801A5BEA0A0B5ED0049A012AD6D101F100431946D2E7FB0F03F1DE
:40428000FF3C049B53EA0C034ED0354B9B456DDD03F104739B4540F3EF83324B9A4540F39C83002D40F39C8327A1D1E9000102460B4601F09BF8B4E7002DC0F24B84404684
:4042C0004946AEE7002C85D0A2E7274B9B4536DCA3F154739B4540F38D834FEA2B5340F21342934240F33E84C3F58663033324FA03F202FA03F3A3427FF46EAF02F0010260
:40430000C2F10202049269E70AF1404303F58013334384D0134B9A4540F39E83002DC0F25F83DDE902017CE74046494602460B4600F0A8FE02460B4601F082F971E70223C9
:4043400004934BE7AFF300809C7500883CE4377E0000F07F0000F03F0000E03F9C6100000000E041FFFFEF3FFFFF3F43BAF5801F80F2EE83AA4B0022CDF804C001F036F86D
:40438000DDF804C08A466FF034034FEA2A55A54ACAF3130AA5F2FF354AF07F541D4492450F9544F4401440F3D0839F4B9A4540F3EF83DDF83CA000250AF1010ACDF83CA0CC
:4043C000A4F580142B46994ADB000E931344D3E90067214632463B46CDF804C0CDE90A0100F050FE3246804689463B46DDE90A0100F04AFE02460B4600208D4901F020F92E
:40440000CDE90C01DDE90C234046494600F0EEFFCDE90601DDE906AB611041F0005101F500214B190021CDE908AB0891DDE908AB00225046594614461D4600F0D7FF024672
:404440000B464046494600F01DFE3246804689463B462046294600F015FE02460B46DDE90A0100F00FFE02460B465046594600F0BDFF02460B464046494600F003FEDDE91F
:404480000C2300F0B3FF06460F46DDE9060102460B4600F0ABFF02460B4604460D4600F0A5FF4FA3D3E90023804689462046294600F09CFF4CA3D3E9002300F0E5FD2246F2
:4044C0002B4600F093FF4AA3D3E9002300F0DCFD22462B4600F08AFF47A3D3E9002300F0D3FD22462B4600F081FF45A3D3E9002300F0CAFD22462B4600F078FF42A3D3E9B1
:40450000002300F0C1FD02460B464046494600F06DFFDDE9062304460D465046594600F0B3FD32463B4600F061FF22462B4600F0ABFD5246804689465B465046594600F092
:4045400055FF00223B4BCDE90A0100F09DFD42464B4600F099FD08980D46044622462B465046594600F042FF224682468B462B463046394600F03AFF002206460F46204620
:4045800029462C4B00F07EFDDDE90A2300F07AFD02460B464046494600F074FDDDE9062300F024FF02460B463046394600F06CFD8046894642464B465046594600F064FD24
:4045C00013A3D3E9002308980D46044600F00EFF11A3D3E90023CDE90601204629462BE0EF4E454A287ECA3F65DBC9934A86CD3F01411DA96074D13F4D268F515555D53FCC
:40460000FFAB6FDBB66DDB3F033333333333E33F000000E009C7EE3FF5015B14E02F3EBE000040438E98030079B60B00C86100000000F03F0000084000F0D8FE52460646A8
:404640000F465B462046294600F01CFD02460B464046494600F016FD9FA3D3E9002300F0C5FE02460B463046394600F00DFDDDF838A0AB4B5344D3E9002300F005FD824686
:404680000F988B4600F04CFE0E9AA64B04461344D3E900670D4652465B46DDE9060100F0F3FC32463B4600F0EFFC22462B4600F0EBFC089822462B468046894600F0E2FC53
:4046C00032463B4600F0DEFCDDE9062300F0DAFC02460B465046594600F0D4FCDDF804C082468B46049900224B1E53EA0C030CBF8D4B8E4BDDE90201CDE90823DDE90223FD
:40470000CDE9042300230493DDE904452B46224600F0B8FC42464B4600F068FE524606460F465B46DDE9020100F060FE02460B463046394600F0A8FC42464B4682468B4622
:404740002046294600F052FE06460F463B4650465946324600F098FC754B8046994289460D4640F34B8101F13F4303F5E003034340F012825AA3D3E900235046594600F0F5
:4047800083FC3246CDE902013B464046494600F079FC02460B46DDE9020101F0B7F8002840F00882CC464FEA2C53A3F2FE334FF4801018412844C0F30A515E4AA1F2FF33C7
:4047C00042FA03FEC1F58261C0F3130420EA0E03033144F4801040FA01F1002D0491BCBF4942049100223046394600F04BFC06460F463246504659463B4600F045FC049A8D
:4048000012050292002438A3D3E9002320460D4600F0ECFD3246804689463B462046294600F030FC02460B465046594600F02AFC2FA3D3E9002300F0D9FD2FA3D3E90023D2
:4048400006460F462046294600F0D0FD02460B463046394600F018FC06460F4632463B464046494600F010FC42464B4604460D4600F008FC02460B463046394600F002FCA2
:40488000224682468B4620462B46294600F0AEFD1BA3D3E9002306460F4600F0A7FD1AA3D3E9002300F0EEFB32463B4600F09EFD17A3D3E9002300F0E7FB32463B4600F0F7
:4048C00095FD15A3D3E9002300F0DCFB32463B4632E000BFAFF30080FD033ADC09C7EE3FFE822B654715973C00000000432EE63FEF39FAFE422EE63F396CA80C615C20BE4B
:40490000D0A4BE726937663EF16BD2C541BDBB3E2CDE25AF6A56113F93BDBE166CC1663FB8610000A86100000000F0BF0000F03FFFFF8F40FFFF0F0000F058FDACA3D3E997
:40494000002300F0A1FB32463B4600F04FFD02460B462046294600F095FB06460F4632463B462046294600F041FD002280468946304639464FF0804300F084FB02460B4612
:404980004046494600F05CFE524606460F4620465B46294600F02AFD52465B4600F074FB02460B463046394600F06CFB22462B4600F068FB02460B4600209B4900F062FB3F
:4049C000029C02460C44B4F5801FC0F237812346DDE9080100F00AFD23E4002DFFF664AC002000211DE44046494642464B4600F0FDFC16E400210491FFF7F0BB8B4B21F0D6
:404A0000004C9C4540F3BD8001F17D5303F53C1303F55053034340F0DB8032463B46CDF804C000F02FFB02460B465046594600F059FFDDF804C000283FF4B5AEDDE908018C
:404A40006DA3D3E9002300F0D1FC6BA3D3E9002300F0CCFCFFF7E5BB002DC1DA039B029803F10041FFF7DDBB02460B4600206E4900F0E6FDFFF7F0BB6D4B9A45ADDD6A4BD2
:404A80009A453FF70EAC0022674BCDF804C000F0F9FA5BA3D3E9002304460D4600F0A6FC59A3D3E9002306460F462046294600F09DFC224682468B462B462046294600F0CA
:404AC00095FC00228046894620462946594B00F08DFC02460B464EA1D1E9000100F0D2FA22462B4600F082FC02460B460020524900F0C8FA02460B464046494600F076FC20
:404B000045A3D3E9002300F071FC02460B465046594600F0B7FA04460D4622462B463046394600F0B1FA002032463B468046894600F0A8FA02460B462046294600F0A2FAA2
:404B4000DDF804C082468B46CCE500252B463AE400231AE442464B460020334900F070FDFFF75FBB002C7FF465ABC3F5826303334BFA03F202FA03F35B4565D00494FFF74A
:404B800032BB2D4B9C453FF70EAE049B029339E64FF48025012316E421A3D3E90023DDE9080100F023FC1EA3D3E9002300F01EFCFFF737BBDDE9080119A3D3E9002300F0F7
:404BC00015FC17A3D3E9002300F010FCFFF729BB09A3D3E90023DDE9080100F007FC06A3D3E9002300F002FCFFF71BBBAFF300803E5555555555C53F59F3F8C21F6EA50160
:404C0000000000604715F73F44DF5DF80BAE543E555555555555D53FFE822B654715F73F9C7500883CE4377E0000F03FFFCB9040FEFFEF3F0000D03F0000E03F049A00F0ED
:404C400093F902460B46C3E602F00102C2F102020492FFF7C8BA00BF21F0004C2DE9F8434FEA1C5CDFF86C814FEA0C5CC44506460F460B46024600F08F8000296FDD0F154E
:404C800078D0A7F2FF37C3F31303F90743F4801360D4D10F4FF0000C01EB43037F105200654616204FF400116C189C424FEAD2764FEA420202DC1B1B65188C44013806EBB5
:404CC00043034FEA5101EFD1804620264FF0004109E023D0D40F013E4FEA510104EB43034FEA42021ED0AB4201EB0804F1DD04F00049B9F1004F04EB010809D0A9465B1B4F
:404D0000944288BF03F1FF33121B08444D46E1E7B8F1000FF2DB05F10109F0E79442E6D91D46D7E71A4304D0431C41D000F00103184446084FEA6C031CF0010F03F17F5381
:404D400003F5001318BF46F0004603EB07513046BDE8F883D10F01EB4303520099E721F00043034322D051BB0F46D30A153F5205002BFAD013F480111DD15B00D80201F1FE
:404D80000101FAD5C1F10100C1F1200422FA04F407448A40234374E702460B4600F026FB32463B4600F070F9BDE8F883BDE8F8830CF1010CBEE7202401200021E6E7024629
:404DC0000B4600F05FF902460B4600F039FCBDE8F88300BF0000F07F21F00041704700BF41F0004101F58010C00F704731F0004310B408D00F4AA3F5801494420AD8042067
:404E00005DF8044B704700280CBF022003205DF8044B7047B3F5801F01D20320F7E7064A934201D00020F2E7D0F1010038BF0020EDE700BFFFFFDF7F0000F07F002070476C
:404E400000200149704700BF0000F87F2DE9F043C1F30A5CACF2FF37132F83B002460B460D46894680464FEAD17630DC002F4CDB3A49394101EA030010432DD0490801EA55
:404E8000030858EA02080CD04FF480233B41132F25EA010141EA030914BF4FF000084FF000482F494B4601EBC606D6E9004542462046294600F0E8F8CDE90001DDE90001C2
:404EC00022462B4600F0DEF803B0BDE8F083332F07DDB7F5806F3ED01046194603B0BDE8F083ACF2134C4FF0FF3121FA0CF10142F2D049080142D4D04FF0804848FA0CFCC7
:404F000020EA010141EA0C08CBE721F000410143E2D0C3F3130101434C420C431048590C240B490404F4002444EA010300EBC601D1E900452046294600F0A6F8CDE90001EF
:404F4000DDE900012B46224600F09CF821F0004343EAC671C2E700F097F8BFE7FFFF0F00D861000000000000C1F30A532DE9F041904606460F460A461BBB21F000430343B2
:404F800034D0354B002200F031FA344B064698450F463BDBC1F30A53363B0A46434440F2FE718B4216DD28A1D1E9000132463B4600F05AF824A3D3E9002300F017FABDE858
:404FC000F08140F2FF74A34227D0434440F2FE718B42E8DC002B0BDD22F0FF4222F4E00242EA035730463946BDE8F081BDE8F08113F1350F17DA4CF250339845D3DC14A1C6
:40500000D1E9000132463B4600F02EF810A3D3E9002300F0EBF9BDE8F08102460B4600F033F8BDE8F08122F0FF4222F4E002363342EA0357304639460022094B00F0D6F9FC
:40504000BDE8F081AFF300809C7500883CE4377E59F3F8C21F6EA50100005043B03CFFFF0000903CAFF3008030B403F0004321F0004243EA020130BC704700BF81F0004135
:4050800002E000BF83F0004330B54FEA41044FEA430594EA050F08BF90EA020F1FBF54EA000C55EA020C7FEA645C7FEA655C00F0E2804FEA5454D4EB5555B8BF6D420CDD5E
:4050C0002C4480EA020281EA030382EA000083EA010180EA020281EA0303362D88BF30BD11F0004F4FEA01314FF4801C4CEA113102D0404261EB410113F0004F4FEA03335B
:405100004CEA133302D0524263EB430394EA050F00F0A780A4F10104D5F1200E0DDB02FA0EFC22FA05F2801841F1000103FA0EF2801843FA05F359410EE0A5F120050EF1EA
:40514000200E012A03FA0EFC28BF4CF0020C43FA05F3C01851EBE37101F0004507D54FF0000EDCF1000C7EEB00006EEB0101B1F5801F1BD3B1F5001F0CD349085FEA300064
:405180004FEA3C0C04F101044FEA445212F5800F80F09A80BCF1004F08BF5FEA500C50F1000041EB045141EA050130BD5FEA4C0C404141EB010111F4801FA4F10104E9D1F5
:4051C00091F0000F04BF01460020B1FA81F308BF2033A3F10B03B3F120020CDA0C3208DD02F1140CC2F10C0201FA0CF021FA02F10CE002F11402D8BFC2F1200C01FA02F119
:4052000020FA0CFCDCBF41EA0C019040E41AA2BF01EB0451294330BD6FEA04041F3C1CDA0C340EDC04F11404C4F1200220FA04F001FA02F340EA030021FA04F345EA030180
:4052400030BDC4F10C04C4F1200220FA02F001FA04F340EA0300294630BD21FA04F0294630BD94F0000F83F4801306BF81F480110134013D4EE77FEA645C18BF7FEA655C79
:4052800029D094EA050F08BF90EA020F05D054EA000C04BF1946104630BD91EA030F1EBF0021002030BD5FEA545C05D14000494128BF41F0004130BD14F580043CBF01F598
:4052C000801130BD01F0004545F0FE4141F470014FF0000030BD7FEA645C1ABF194610467FEA655C1CBF0B46024650EA013406BF52EA033591EA030F41F4002130BD00BF28
:4053000090F0000F04BF0021704730B54FF4806404F132044FF000054FF0000150E700BF90F0000F04BF0021704730B54FF4806404F1320410F0004548BF40424FF0000123
:405340003EE700BF42004FEAE2014FEA31014FEA02701FBF12F07F4393F07F4F81F06051704792F0000F14BF93F07F4F704730B54FF4607401F0004521F0004120E700BF53
:4053800050EA010208BF704730B54FF000050AE050EA010208BF704730B511F0004502D5404261EB41014FF4806404F132045FEA915C3FF4DCAE4FF003025FEADC0C18BFC1
:4053C00003325FEADC0C18BF033202EBDC02C2F1200300FA03FC20FA02F001FA03FE40EA0E0021FA02F11444C1E600BF70B54FF0FF0C4CF4E06C1CEA11541DBF1CEA1355E5
:4054000094EA0C0F95EA0C0F00F0DEF82C4481EA030621EA4C5123EA4C5350EA013518BF52EA033541F4801143F4801338D0A0FB02CE4FF00005E1FB02E506F00042E0FB63
:4054400003E54FF00006E1FB03569CF0000F18BF4EF0010EA4F1FF04B6F5007F64F5407404D25FEA4E0E6D4146EB060642EAC62141EA55514FEAC52040EA5E504FEACE2EC7
:40548000B4F1FD0C88BFBCF5E06F1ED8BEF1004F08BF5FEA500E50F1000041EB045170BD06F0004646EA010140EA020081EA0301B4EB5C04C2BFD4EB0C0541EA045170BDA0
:4054C00041F480114FF0000E013C00F3AB8014F1360FDEBF002001F0004170BDC4F10004203C35DA0C341BDC04F11404C4F1200500FA05F320FA04F001FA05F240EA020078
:4055000001F0004221F0004110EBD37021FA04F642EB06015EEA430E08BF20EAD37070BDC4F10C04C4F1200500FA04F320FA05F001FA04F240EA020001F0004110EBD37059
:4055400041F100015EEA430E08BF20EAD37070BDC4F1200500FA05F24EEA020E20FA04F301FA05F243EA020321FA04F001F0004121FA04F220EA020000EBD3705EEA430EB1
:4055800008BF20EAD37070BD94F0000F0FD101F00046400041EB010111F4801F08BF013CF7D041EA060195F0000F18BF704703F00046520043EB030313F4801F08BF013D65
:4055C000F7D043EA0603704794EA0C0F0CEA135518BF95EA0C0F0CD050EA410618BF52EA4306D1D181EA030101F000414FF0000070BD50EA410606BF1046194652EA4306A7
:4056000019D094EA0C0F02D150EA013613D195EA0C0F05D152EA03361CBF104619460AD181EA030101F0004141F0FE4141F470014FF0000070BD41F0FE4141F4780170BD02
:4056400070B54FF0FF0C4CF4E06C1CEA11541DBF1CEA135594EA0C0F95EA0C0F00F0A7F8A4EB050481EA030E52EA03354FEA013100F088804FEA03334FF0805545EA1313F5
:4056800043EA12634FEA022245EA111545EA10654FEA00260EF000419D4208BF964244F1FD0404F5407402D25B084FEA3202B61A65EB03055B084FEA32024FF480104FF441
:4056C000002CB6EB020E75EB030E22BFB61A754640EA0C005B084FEA3202B6EB020E75EB030E22BFB61A754640EA5C005B084FEA3202B6EB020E75EB030E22BFB61A754678
:4057000040EA9C005B084FEA3202B6EB020E75EB030E22BFB61A754640EADC0055EA060E18D04FEA051545EA16754FEA06164FEAC30343EA52734FEAC2025FEA1C1CC0D1A2
:4057400011F4801F0BD141EA00014FF000004FF0004CB6E711F4801F04BF01430020B4F1FD0C88BFBCF5E06F3FF6AFAEB5EB030C04BFB6EB020C5FEA500C50F1000041EB91
:40578000045170BD0EF0004E4EEA113114EB5C04C2BFD4EB0C0541EA045170BD41F480114FF0000E013C90E645EA060E8DE60CEA135594EA0C0F08BF95EA0C0F3FF43BAF53
:4057C00094EA0C0F0AD150EA01347FF434AF95EA0C0F7FF425AF104619462CE795EA0C0F06D152EA03353FF4FDAE1046194622E750EA410618BF52EA43067FF4C5AE50EA49
:4058000041047FF40DAF52EA43057FF4EBAE12E74FF0FF3C06E000BF4FF0010C02E000BF4FF0010C4DF804CD4FEA410C7FEA6C5C4FEA430C18BF7FEA6C5C1BD001B050EAE0
:40584000410C0CBF52EA430C91EA030F02BF90EA020F0020704710F1000F91EA030F58BF994208BF90422CBFD8176FEAE37040F0010070474FEA410C7FEA6C5C02D150EA7B
:40588000013C07D14FEA430C7FEA6C5CD6D152EA033CD3D05DF8040B704700BF8446104662468C461946634600E000BF01B5FFF7B7FF002848BF10F1000F01BD4DF808EDA1
:4058C000FFF7F4FF0CBF012000205DF808FB00BF4DF808EDFFF7EAFF34BF012000205DF808FB00BF4DF808EDFFF7E0FF94BF012000205DF808FB00BF4DF808EDFFF7CEFF81
:4059000094BF012000205DF808FB00BF4DF808EDFFF7C4FF34BF012000205DF808FB00BF4FEA410212F5001215D211D56FF47873B3EB625212D94FEAC12343F0004343EAD1
:40594000505311F0004F23FA02F018BF404270474FF00000704750EA013005D111F0004008BF6FF0004070474FF00000704700BF4FEA4102B2F1E04324BFB3F5001CDCF115
:40598000FE5C0DD901F0004C4FEAC0024CEA5070B2F1004F40EB830008BF20F00100704711F0804F21D113F13872BCBF01F00040704741F480114FEA5252C2F11802C2F154
:4059C000200C10FA0CF320FA02F018BF40F001004FEAC1234FEAD32303FA0CFC40EA0C0023FA02F34FEA4303CCE77FEA625307D150EA01331EBF4FF0FE4040F440007047AA
:405A000001F0004040F0FE4040F40000704700BF80F0004002E000BF81F0004142001FBF5FEA410392EA030F7FEA226C7FEA236C6AD04FEA1262D2EB1363C1BFD2184140EB
:405A400048404140B8BF5B42192B88BF704710F0004F40F4000020F07F4018BF404211F0004F41F4000121F07F4118BF494292EA030F3FD0A2F1010241FA03FC10EB0C00EF
:405A8000C3F1200301FA03F100F0004302D5494260EB4000B0F5000F13D3B0F1807F06D340084FEA310102F10102FE2A51D2B1F1004F40EBC25008BF20F0010040EA0300C6
:405AC0007047490040EB000010F4000FA2F10102EDD1B0FA80FCACF1080CB2EB0C0200FA0CF0AABF00EBC25052421843BCBFD0401843704792F0000F81F4000106BF80F46A
:405B000000000132013BB5E74FEA41037FEA226C18BF7FEA236C21D092EA030F04D092F0000F08BF0846704790EA010F1CBF0020704712F07F4F04D1400028BF40F00040EF
:405B4000704712F100723CBF00F50000704700F0004343F0FE4040F4000070477FEA226216BF08467FEA23630146420206BF5FEA412390EA010F40F4800070474FF0000390
:405B800004E000BF10F0004348BF40425FEA000C08BF704743F0964301464FF000001CE050EA010208BF70474FF000030AE000BF50EA010208BF704711F0004302D5404217
:405BC00061EB41015FEA010C02BF84460146002043F0B64308BFA3F18053A3F50003BCFA8CF2083AA3EBC25310DB01FA02FC634400FA02FCC2F12002BCF1004F20FA02F25F
:405C000043EB020008BF20F00100704702F1200201FA02FCC2F1200250EA4C0021FA02F243EB020008BF20EADC7070474FF0FF0C1CEAD0521EBF1CEAD15392EA0C0F93EA9C
:405C40000C0F6FD01A4480EA010C400218BF5FEA41211ED04FF0006343EA501043EA5111A0FB01310CF00040B1F5000F3EBF490041EAD3715B0040EA010062F17F02FD2A91
:405C80001DD8B3F1004F40EBC25008BF20F00100704790F0000F0CF0004C08BF49024CEA502040EA51207F3AC2BFD2F1FF0340EAC250704740F400004FF00003013A5DDC2A
:405CC00012F1190FDCBF00F000407047C2F10002410021FA02F1C2F1200200FA02FC5FEA310040F1000053EA4C0308BF20EADC70704792F0000F00F0004C02BF400010F449
:405D0000000F013AF9D040EA0C0093F0000F01F0004C02BF490011F4000F013BF9D041EA0C018FE70CEAD15392EA0C0F18BF93EA0C0F0AD030F0004C18BF31F0004CD8D127
:405D400080EA010000F00040704790F0000F17BF90F0004F084691F0000F91F0004F14D092EA0C0F01D142020FD193EA0C0F03D14B0218BF084608D180EA010000F000402C
:405D800040F0FE4040F40000704740F0FE4040F4400070474FF0FF0C1CEAD0521EBF1CEAD15392EA0C0F93EA0C0F69D0A2EB030280EA010C49024FEA402037D04FF080530A
:405DC00043EA111143EA10130CF000408B4238BF5B0042F17D024FF4000C8B4224BF5B1A40EA0C00B3EB510F24BFA3EB510340EA5C00B3EB910F24BFA3EB910340EA9C00FB
:405E0000B3EBD10F24BFA3EBD10340EADC001B0118BF5FEA1C1CE0D1FD2A3FF650AF8B4240EBC25008BF20F0010070470CF0004C4CEA50207F32C2BFD2F1FF0340EAC2505F
:405E4000704740F400004FF00003013A37E792F0000F00F0004C02BF400010F4000F013AF9D040EA0C0093F0000F01F0004C02BF490011F4000F013BF9D041EA0C0195E7DB
:405E80000CEAD15392EA0C0F08D142027FF47DAF93EA0C0F7FF470AF084676E793EA0C0F04D14B023FF44CAF08466EE730F0004C18BF31F0004CCAD130F000427FF45CAFEA
:405EC00031F000437FF43CAF5FE700BF4FEA4002B2F1FE4F0FD34FF09E03B3EB12620DD94FEA002343F0004310F0004F23FA02F018BF404270474FF00000704712F1610F0D
:405F000001D1420205D110F0004008BF6FF0004070474FF000007047014B1868704700BF9081FF1F70B50E4B0E4D0024ED1AAD101E46AC4204D056F8242090470134F8E74D
:405F400000F054F9084D094B0024ED1AAD101E46AC4204D056F8242090470134F8E770BDF8610000F861000000620000F861000010B50023934203D0CC5CC4540133F9E732
:405F800010BD02440346934202D003F8011BFAE770470000000000003D510040285B0040285B0040801010002C5B00403D5100402C5B004010401000004F00400C00105183
:405FC00000402000505100402000C0510040100000000140001000140140000800400140000A004C01400002005001402000000030313233343536373839414243444546C4
:40600000000000001201000202000008B40432F2010001028001000009024300020101C0320904000001020201030524001001042402020524060001052401000107058138
:406040000308000A09040100020A0000040705820240000A0705030240000A00040309042C0343007900700072006500730073002000530065006D00690063006F006E009E
:4060800064007500630074006F007200100355005300420055004100520054003803430044004300200043006F006D006D0075006E00690063006100740069006F006E009B
:4060C000200049006E007400650072006600610063006500260343004400430020004400610074006100200049006E007400650072006600610063006500000002030000AC
:4061000000008103080002000100820240000A000100030240000A00020A0000010000001860000003000000006100000000000000000000000000000000000000000000C9
:40614000186100000100000004600000010000001C610000010000004461000012034D0053004600540031003000300001000000280000000001040001000000000000000E
:406180000001435955534200000030303030310000000000000000006C6F670000000000706F77000000000000000000000000000000004003B8E23F0000000000000000B3
:4061C00006D0CF43EBFD4C3E000000000000F03F000000000000F83F000000000000304300000000000030C343000000F8B500BFF8BC08BC9E4670474D000000290A000037
:40620000F8B500BFF8BC08BC9E46704729000000206200000881FF1F90000000D8010000000000000100000000C2010000000800FF000000006CDC0280BB000030000000A4
:406240000000C05D010000000000000000000000000000000000000000000000000000000000000000000000E86100000000000000000000000000000000000000000000B7
:40628000000000000000000000000000000000000000000000000000000000000000000000000000000000003081FF1F00000000000000000000000000000000000000000F
:4062C000000000000000000000000000000000000000000000000000000000000000000000000000000000000000000000000000000000000000000000000000000000009E
:40630000000000000000000000000000000000000000000000000000000000000000000000000000000000000000000000000000000000000000000000000000000000005D
:40634000000000000000000000000000000000000000000000000000000000000000000000000000000000000000000000000000000000000000000000000000000000001D
:4063800000000000000000000000000000000000000000000000000000000000000000000000000000000000000000000000000000000000000000000000000000000000DD
:020000040003F7
:0200000480007A
:4000000001450040024F004004520040015B00400365004003030140020501400407014002090140010D01403114014023150140521601402F17014001190140011B014072
:400040000B4001400B41014004420140084301400145014001460140074701400A48014006490140064C0140024D014002500140015101407E0201800A3600012010214176
:400080007C402F84850D860D870D87018E01E2189F01A6019F01A601E202E602E202E602E20838803E4058045B045F01810283048A048F01930694019A07A701AE08B001A0
:4000C000B102B202B408B501B604B704BF51C020C105C5D1C602C807C9FFCAFFCBFFCDA0CF04D018D280D405D804D904DA04DB04DF01E040E2C0E440E540E6C0E8C0EAC0C8
:40010000ECC0EEC005100E200F0817801A011C401D301E221F20250227092F2036013C023F8045204F8957405C405F0968017780850286019F01C040C260C480CA40CC80B5
:40014000CE90D020D210D6D0EC2008010F0116041A072B012E08300132083402350136043F104030410545D14602480749FF4AFF4BFF4DA04F0450185280540558045904BD
:400180005A045B045C025D225F01604062C06440654066C068C06AC06CC06EC08604870192089401A607A701B004B202B301B408B601BF04C020C103C5D1C702C813C9FFDA
:4001C000CAFFCBFFCDA0CF04D018D280D405D804D904DA04DB04DC02DD22DF01E040E2C0E440E540E6C0E8C0EAC0ECC0EEC00320051009020A100D080F08102017801980A0
:400200001A101B321C401D181E021F04220427082B102F0438083F8043284508482049024F8950045308574059825A085C405F097102778087029F01A601C044C26CC48433
:40024000CA22CE12D046D210D6DBEE02EE02EC2031203202340236405A8062106401CCF0D480D680D8405410840185208E4096809C039E10A520A642D440E2509C029E10BF
:40028000A410A642840286029C029E10A410A642E240E6408601960108800B400D02848085029601C20E2080671084109E10A410AE40C840D880E210EE4086108710971023
:4002C0009E10B040E2501E0134019601AF40C601CC01B001EC0410051A0500AB00818100010000000000000000000000C0000000000000000000D0000055550051000000B2
:4003000000000000000000000000000000000000000000000000000000000000000000000000000000000000000000000000000000000000000000000000000000000000BD
:40034000000000000000000000000000000000000000000000000000000000000000000000000000000000000000000000000000000000000000000000000000000000007D
:40038000000000000000000000000000000000000000000000000000000000000000000000000000000000000000000000000000000000000000000000000000000000003D
:4003C00000000000000000000000000000000000000000000000000000000000000000000000000000000000000000000000000000000000000000000000000000000000FD
:0200000490006A
:0400000000004005B7
:0200000490105A
:04000000BC90ACAF55
:0200000490303A
:02000000853742
:0200000490402A
:4000000000000000000000000000000000000000000000000000000000000000000000000000000000000000000000000000000000000000000000000000000000000000C0
:400040000000000000000000000000000000000000000000000000000000000000000000000000000000000000000000000000000000000000000000000000000000000080
:400080000000000000000000000000000000000000000000000000000000000000000000000000000000000000000000000000000000000000000000000000000000000040
:4000C0000000000000000000000000000000000000000000000000000000000000000000000000000000000000000000000000000000000000000000000000000000000000
:0200000490501A
:0C00000000012E12306900012E39B5A05D
:00000001FF