:400000000080002011000000A5150000A515000080B500AF024B034A12681A6001F0C6FABC760040FA46004010B5054C237833B9044B13B10448AFF300800123237010BDE4
:40004000E081FF1F00000000706C000008B5064B1BB106480649AFF300800648036813B1054B03B1984708BD00000000706C0000E481FF1F0881FF1F0000000080B400AF7E
:40008000054B01221A60054B1B889AB2044B1A80BD465DF8047B70479085FF1FA05B0040848DFF1F90B58BB002AF0023FB610023BB6100237B6100F08DF83C4800F082FAAD
:4000C0000346FB743220012100F0ACFE4B20022100F0A8FE3220012100F006FE4B20022100F002FE0120012100F06AFE0120022100F066FE0120012100F0F6FE0120022192
:4001000000F0F2FE0120012100F064FF0220022100F060FF4B2003F02BFC322003F0F6FC0120012100F012FF0120022100F00EFF1F4B1B68002B09DD3B46184600F0CCFFDC
:400140003B46184600F072F80346BB74194B1B68002B23D0184B1C68184B1B889BB21BB2184603F0CFFE0246154B43F82420114B00221A60104B1B68124A00921846124900
:40018000124A0F4B01F014F80B4B1B6818460121C82201F0A9F80246074B1A60034801F0C5F80B4801F0C2F8C2E700BF0C81FF1FFC81FF1F9085FF1FB888FF1F848DFF1F3E
:4001C0009485FF1F4882FF1F5C81FF1FB488FF1F3081FF1F80B500AF01F05CFE01F010FE03F03CFB03F008FC0020012100F0AEFE0020022100F0AAFE02F064FF03F0FEF876
:4002000003F02EF803F0C8F902F08AFA02F0F0FA002003F0DFFC044803F014FD03F060FD03F0F6FC62B680BD7D00000080B590B000AF78607B681B7887F83A307B685B7849
:4002400087F839307B689B7887F8383097F83A30002B01D001238CE197F83930012B02D1B64BFB6305E097F83930022B01D1B44BFB63786800F080FF002387F83B3097F8B9
:400280003A303B7497F839307B7497F83830BB740023FB7400233B7500237B750023BB750023FB7508233B76F923FB6197F83830102B00F2518101A252F823F0010300006C
:4002C00057030000710300008B03000059050000F5030000590500007F0400008D0400009B040000A9040000B7040000C5040000D3040000F10400001705000035050000E8
:400300007B6804337B637B6B01331B78DBB21B029AB27B6B1B78DBB213437B8697F83930012B09D1874B7A8E1A80844B7A8EDA80824B00225A740DE097F83930022B09D179
:40034000814B7A8E1A807E4B7A8EDA807C4B00225A7402E101E17B681B7987F8313097F8312097F839301046194600F05BFDF4E07B681B7987F8303097F8302097F839303B
:400380001046194600F0B0FCE7E0FB6B93F82130002B2ED16D4B00221A70FB6B012283F821207B680433FB62FB6A01331B78DBB21B029AB2FB6A1B78DBB213437B85B7F9EC
:4003C0002A2097F839301046194600F04FFA034687F8293097F82930132B03D097F82930142B06D197F829303B75012387F83B30B3E0B2E097F83930012B1DD14F4B1A899B
:400400004E4BDB8812B21BB29A4203DA4B4B00221A730AE0494B1A89484BDB8812B21BB29A4202DB454B02221A73444801F07EF8474B01221A7021E097F83930022B1DD149
:400440003F4B1A893D4BDB8812B21BB29A4203DA3B4B00221A730AE0394B1A89374BDB8812B21BB29A4202DB354B02221A73344801F05CF8374B01221A706EE06DE097F85A
:4004800039300120194600F09BFC66E097F839300020194600F094FC5FE097F839300120194600F021FD58E097F839300020194600F01AFD51E097F839300120194600F07B
:4004C00045FD4AE097F839300020194600F03EFD43E097F83930184600F052FC034687F8283097F828303B75012387F83B3034E0012000F0D9FB0346FB8107F10E037B62CE
:400500007B6A1B783B757B6A5B787B75012387F83B3000BF21E097F83930184600F0C4FC034687F8233097F823303B75012387F83B3012E0012387F83B300EE00C81FF1FC3
:400540003081FF1F5881FF1F5A81FF1F0882FF1F0982FF1F0A82FF1F00BF97F83B30012B06D1FB6907F110021046194600F0E6FD012318464037BD4680BD00BF80B584B0AE
:4005800000AF0346FB71FB79184601F055FC01F055FD002001F072FD01F090FD0346FB6001F05CFDFB6818461037BD4680BD00BF80B485B000AF78601437BD465DF8047B7B
:4005C000704700BF80B487B000AF786000237B617B681B88012B32D1434B3B6100237B6129E07A6913465B00134401333A6913441B78DBB21B0299B27A6913465B0013441B
:400600003A6913441B78DBB20A46134399B2374B7A6923F812107A6913465B00134402333A6913441B78DAB231497B690B441A707B6901337B617B69632BD2DD35E07B688D
:400640001B88022B31D12B4BFB6000237B6129E07A6913465B0013440133FA6813441B78DBB21B0299B27A6913465B001344FA6813441B78DBB20A46134399B21E4B7A6968
:4006800023F812107A6913465B0013440233FA6813441B78DAB219497B690B441A707B6901337B617B69632BD2DD7B689B691B88002B0DD17B689B6902331B88002B07D179
:4006C0007B689B6904331B88002B01D1002304E07B68012283F82020012318461C37BD465DF8047B704700BF6C6E0000888DFF1FBC8CFF1F986F0000D488FF1F208DFF1F93
:4007000080B5D0B000AF3B1D18600023C7F83C3107F10C031A464FF49673104600211A4606F09DFA3B1D1B681B88012B44D10023C7F83C3130E0D7F83C315A00454B134484
:40074000C7F83831D7F83C2113465B001344D7F83821117807F10C02D154D7F83C2113465B0013440133D7F83821517807F10C02D154D7F83C2113465B00134402333649CC
:40078000D7F83C210A44117807F10C02D154D7F83C310133C7F83C31D7F83C31632BCADD07F10C0318462D494FF4967201F0D6FD02462B4B1A6048E03B1D1B681B88022B09
:4007C00043D10023C7F83C3130E0D7F83C315A00244B1344C7F83831D7F83C2113465B001344D7F83821117807F10C02D154D7F83C2113465B0013440133D7F83821517893
:4008000007F10C02D154D7F83C2113465B00134402331149D7F83C210A44117807F10C02D154D7F83C310133C7F83C31D7F83C31632BCADD07F10C0318460B494FF4967288
:4008400001F08CFD0246064B1A6007F5A077BD4680BD00BF888DFF1FBC8CFF1F6C6E0000588EFF1FD488FF1F986F000090B597B000AF78600B46FB70FB78012B03D0FB782D
:40088000022B40F0D581FB786420194600F02CFA00237B650023A7F8523007F10C0300221A60043300221A60043300221A60043300221A60043300221A60043300221A6010
:4008C000043300221A60043300221A60043300221A60043300221A600433FB78012B04D103F07EF80346FB6406E0FB78022B03D103F044F90346FB64EC2387F83930502354
:4009000087F8383005237B6397F93930BB6497F93930FA6C02FB03F3684A82FB03025211DB17D31A7B6400233B640023FB870023BB87002387F83B300023FB873BE0604BC7
:400940001B78002B04D05E4B00221A70132370E1B7F93E40012000F0A7F90346594A82FB03129210DB17D31A9AB2630007F15800034423F84C2CB7F93E305B0007F1580188
:400980000B4433F84C3C1BB21846FFF711FEB7F93E305B0007F15802134433F84C3C9AB2BB8F13449BB2BB874FF47A7001F02CFCFB8F0133FB87B7F93E30132BBFDD002313
:4009C000FB87B7F93C303F4A82FB0302D210DB17D31A9BB29BB21A46920013445B009BB2BB87FB780120194600F0B0FAFB78184600F05AF90346A7F85230B7F93C20B7F9F9
:400A00005230D31A3B643B6C002B02DA3B6C5B423B64002387F83A30FB78012B03D1012003F0B8F806E0FB78022B03D1012003F0C1F8E0E0DFE0224B1B78002B04D0204BC4
:400A400000221A701323F4E0BB6C002B13DB97F83A30002B0FD1FB78012B03D1022003F099F805E0FB78022B02D1022003F0A2F8012387F83A30FB78012B08D17B6C002BC5
:400A8000B8BF5B42DBB2184602F072FF0BE0FB78022B08D17B6C002BB8BF5B42DBB2184603F034F86EE06DE0054B1B78002B0BD0034B00221A701323BBE000BF1F85EB5152
:400AC0000882FF1F67666666012000F0EDF80346A7F85230B7F93C20B7F95230D31A3B643B6C002B02DA3B6C5B423B643B6C092B08DC97F83B30013387F83B3040F2D240DF
:400B0000FFF756FD0020FFF753FDB7F952301846FFF74EFDB7F93C301846FFF749FD386CFFF746FD0A20FFF743FD4FF47A7001F06BFBB7F93E30591C404B83FB0123DA1014
:400B4000CB17D21A13469B0013449B00CA1A1346FB87B7F93E10B7F95230384A82FB03029210DB17D31A9AB24B0007F158010B4423F84C2C07F10C031846142100F068F899
:400B80000346BB8797F93B30092B0CDCB7F93C302B4A82FB03025211DB17D31A9BB21AB27B689A4280DD14233B64002387F83B30244B7A6DB7F8521023F81210BB6CDAB2CF
:400BC00021497B6D0B441A707B6D01337B65B7F952301846FFF7ECFCBA6C7B6B1344BB64BB6CFA6C02FB03F3154A82FB03125211DB17D31A7B6497F93820BB6C9A420DDB79
:400C0000B7F93C300E4A82FB03025211DB17D31A9BB21AB27B689A427FF70DAFFB780020194600F093F90948FFF76AFD012300E0172318465C37BD4690BD00BF676666667F
:400C40001F85EB51888DFF1FBC8CFF1F0C81FF1F80B485B000AF78600B467B800023FB6000237B810023FB6011E0FB685B007A6813441B881AB2B7F9023092FBF3F39AB201
:400C80007B8913449BB27B81FB680133FB60B7F90220FB689A42E8DC7B891BB218461437BD465DF8047B704780B586B000AF0346FB710020FFF762FC78610120FFF75EFC34
:400CC00038613B699AB27B699BB212B21BB21046194600F0BFFFF860F86800F0F1FF034618461837BD4680BD80B584B000AF02460B46FA71BB71BB79012B02D0022B1BD0E6
:400D000035E01C4B1B7B042B15D102F06BFB0346FB73FA7B184BA3FB02135B09DBB2FA7902FB03F3BB73BB7B184602F023FB114BBA7B1A751BE01AE0104B1B7B042B15D1AE
:400D400002F0ECFC0346FB73FA7B0B4BA3FB02135B09DBB2FA7902FB03F3BB73BB7B184602F0A4FC054BBA7B1A75FFE700BF1037BD4680BD0C81FF1F1F85EB513081FF1F1F
:400D800080B485B000AF0346FB710023FB73FB79012B02D0022B04D007E0074B1B7DFB7303E0064B1B7DFB7300BFFB7B18461437BD465DF8047B70470C81FF1F3081FF1F03
:400DC00080B584B000AF02460B46FA71BB71FB79002B02D10023FB7304E0FB79012B01D10123FB73BB79012B02D0022B08D00FE0FB79184602F0F8FC084BFA7B5A7507E064
:400E0000FB79184602F0D2FC054BFA7B5A7500BF01235BB218461037BD4680BD0C81FF1F3081FF1F80B584B000AF02460B46FA71BB71BB79012B02D0022B16D02BE002F0B3
:400E400003FA0346FB73FA7B144BA3FB02135B09DBB2FA7902FB03F3BB73BB7B184602F0BBF90F4BBA7B9A7415E002F089FB0346FB73FA7B094BA3FB02135B09DBB2FA79D9
:400E800002FB03F3BB73BB7B184602F041FB054BBA7B9A7400BF1037BD4680BD1F85EB510C81FF1F3081FF1F80B485B000AF0346FB710023FB73FB79012B02D0022B04D04B
:400EC00007E0074B9B7CFB7303E0064B9B7CFB7300BFFB7B18461437BD465DF8047B70470C81FF1F3081FF1F80B584B000AF02460B46FA71BB71FB7B002B02D10023FB7348
:400F000004E0FB7B012B01D10123FB73BB79012B02D0022B08D00FE0FB79184602F028FC084BFA7BDA7407E0FB79184602F002FC054BFA7BDA7400BF01235BB21846103752
:400F4000BD4680BD0C81FF1F3081FF1F80B584B000AF02460B46FA71BB7102F073FC0346BB73BB79012B02D0022B13D025E0FB79002B07D1BB7B23F00103FB73134B00229E
:400F80001A711AE0BB7B43F00103FB730F4B01221A7112E0FB79002B07D1BB7B23F00203FB730B4B00221A7106E0BB7B43F00203FB73074B01221A7100BFFB7B184602F05A
:400FC00031FC012318461037BD4680BD0C81FF1F3081FF1F80B582B000AF02460B46FA71BB71FB79022B02D0FB79012B17D1BB79012B02D0022B08D00FE0FB79184602F016
:40100000C9FD094BFA795A7307E0FB79184602F0D1FD064BFA795A7300BF012300E0002318460837BD4680BD0C81FF1F3081FF1F80B584B000AF02460B46FA71BB710023A4
:40104000FB600023FB72BB79012B1AD102F0C8FC0346FB60FB79FA6802FB03F31B4A82FB03125211DB17D31AFB72FB7A184602F07FFCFB68DAB2164B1A74154BFA7A9A7372
:401080001FE0BB79022B1AD102F078FD0346FB60FB79FA6802FB03F30C4A82FB03125211DB17D31AFB72FB7A184602F02FFDFB68DAB2084B1A74074BFA7A9A7301E00023E2
:4010C00000E0012318461037BD4680BD1F85EB510C81FF1F3081FF1F90B486B000AF7860134B1B68134A1B01134407F108040FCB84E80F000E4B1B68322B03D10C4B00221C
:401100001A6004E00A4B1B685A1C094B1A600A4B1B685A1E084B1A607B681C4607F108030FCB84E80F0078681837BD4690BC70470082FF1F9C89FF1FFC81FF1F80B586B05D
:4011400000AF786039603B68FB6000233B7400237B740023FB747B687B617B681B7ABB7407F10C03184601F0E5FD01235BB218461837BD4680BD00BF80B586B000AF78606E
:40118000FF23FB6000233B7400237B740023FB747B681B7ABB747B687B6107F10C03184601F0C8FD01235BB218461837BD4680BDB0B588B000AFF860B9607A603B604FF02C
:4011C0000003FB61454B1B685B42F8681946C82200F08AF8B861414B1A681346DB079B1A5B00F8681946C82200F07EF87861F8686FF04A01C82200F077F838617B681A681A
:40120000FB689B0039680B441B681046194605F0FBF903461C46BB699B003A6813441B681846194605F0F2F903462046194605F0EDF903461A467B699B0039680B441B6898
:401240001046194605F0E0F903461A467B681A607B681B6818464FF0000105F07DFC0346002B08D03B699B003A6813441B6883F00043FB6105E03B699B003A6813441B68BA
:40128000FB61FA68164B83FB02139911D317CB1A4FF47A7101FB03F3D31A002B04D1BB681B685A1CBB681A60BB681B689B003A6BD418BB681B689B003A6B13441D68F86948
:4012C000084905F05FFB03462846194605F09EF9034623602037BD46B0BD00BF6081FF1FD34D62100000C84280B487B000AFF860B9607A60FA68BB6813447B617B69002B93
:4013000009DB7B697A6893FBF2F2796801FB02F29B1A7B6103E07A697B6813447B617B6918461C37BD465DF8047B704780B582B000AF78607B681B88DBB21846FFF7B4FC2B
:4013400003461A467B681A817B681B7B042B0BD17B681B79012B07D17B681B88DBB200201946FFF7F3FD0EE07B681B7B042B0AD07B681B79002B06D17B681B88DBB20120B2
:401380001946FFF7E3FD7B681B7B042B00F0CB807B685B7D012B03D17B681B7D642B0DD07B681B88DBB201201946FFF709FD7B681B88DBB264201946FFF796FC7B681B7BED
:4013C000002B47D17B685B7B022B06D07B681B88DBB202201946FFF7FDFD7B681B891AB27B68DB8819B27B685B8818469B00C31A0B449A420CDA7B689B7B642B00F09380CE
:401400007B681B88DBB264201946FFF711FE8AE07B681B891AB27B68DB8819B27B685B88CB1A9A4207DA7B685B7C002B7BD17B6801225A7477E07B689B7B002B06D07B6842
:401440001B88DBB200201946FFF7F2FD7B6801221A7368E07B681B7B012B0ED17B681A897B68DB8812B21BB29A4206DA7B6800221A737B6800225A7355E07B681B7B022B21
:401480003FD17B685B7B012B06D07B681B88DBB201201946FFF79EFD7B681B8919B27B68DB8818B27B685B881A4613465B001344034499420BDD7B689B7B642B33D07B6832
:4014C0001B88DBB264201946FFF7B2FD2BE07B681B891AB27B68DB8819B27B685B88CB1A9A4220DB7B689B7B002B06D07B681B88DBB200201946FFF79BFD7B6803221A7394
:4015000011E07B681B7B032B0DD17B681A897B68DB8812B21BB29A4205DD7B6802221A737B6800225A730837BD4680BD80B487B000AF786000237B610023BB60184BFB6048
:4015400000237B6119E07B68DB881AB27B6899697B695B000B441B881BB2D31A002BB8BF5B42BB60BA68FB689A4203DABB68FB607B693B617B6901337B617B69632BE2DDD6
:401580007B68DA693B6913441A787B68DA737B6801225A741C37BD465DF8047B704700BF8096980080B400AFFEE700BF80B586B000AF224B7B61224B3B61204B7B6135E0D7
:4015C0003B691B68FB603B695B68BB603B699B683B6000237B600CE0FB681A68BB681A60BB680433BB60FB680433FB607B6804337B607A683B689A42EED13B69DB683B6038
:4016000000237B6008E0BB6800221A60BB680433BB607B6804337B607A683B689A42F2D13B6910333B617B69013B7B617B69002BC6D105F0E5FAFEF735FDFEE70100000071
:40164000E872000080B582B000AF174B174A1A60174B174A126842F400721A6000237B600FE07B68032B04D8124B7A6853F8223000E0114B114A796842F821307B6801338E
:401680007B607B682F2BECD90D4B1B78DAB20D4B1A700D4B094A1A6000F024FA0B4B00221A600837BD4680BD0CED00E00004FA0514ED00E000000000A51500000080FF1F3B
:4016C000BC7600400481FF1F08ED00E00081FF1F80B582B000AF78603960786800213A6805F0BDFA0837BD4680BD00BF80B584B000AFF860B9607A60F868B9687A6805F092
:40170000A5FA1037BD4680BD80B487B000AF7860396000233B6100237B6126E07B699B007A6813441B68BB60BB68FB73BB6823F0FF03BB6013E03B695B003A6813441B787C
:401740001A46BB6813443A69520039680A4452781A703B6901333B61FB7B013BFB73FB7B002BE8D17B6901337B617B69232BD5D91C37BD465DF8047B704700BF80B582B08E
:4017800000AF424B02221A80414B18221A70414B9F221A80404B18221A70404B40F2AF421A803F4B18221A703E4B40F65F121A803D4B18221A703D483D490422FFF796FF41
:4017C0003C4B06221A703C4B52221A703B4B3C4A1278D2B21A703B4B00221A803A4B4FF4E2621A80394B41F251221A800023FB7019237B6014E0FB785B00DAB2344B1B78D6
:40180000DBB203F00103DBB21343DBB203F00303FB704FF4F07000F0D7FC7B68013B7B607B68002B02D0FB78032BE4D1254B07221A70284B00221A70274B48221A70214BA6
:4018400000221A70254B00221A70254B02221A70244B04221A70244B234A1278D2B242F00F02D2B21A70214B204A1278D2B242F00102D2B21A701E4B1D4A1278D2B262F0D1
:401880007F02D2B21A700837BD4680BD80400040824000408440004086400040884000408A4000408C4000408E400040004100402C0600480043004000420040A1460040BB
:4018C0000F01004904400040224200402042004025420040064000400840004009400040014000400B400040A2430040A1430040A043004080B483B000AF274B1B78FB7188
:40190000264B1B78BB71264B1B787B71254BFA7902F00702D2B21A70234BFA791209D2B21A701E4BBA7942F00302D2B21A701C4B7A7942F00302D2B21A701C4B92221A706C
:401940001B4B80221A701B4B40221A701A4B00221A701A4B80221A70194B20221A70194B20221A70184B20221A70184B40221A70174B04221A70174B20221A70084B7A797D
:401980001A70064BBA791A70134B44221A700C37BD465DF8047B7047CF010049F8460040F94600406E5800406F5800403D51004001590040095900400B590040105A0040F5
:4019C000185A0040205B0040235B0040285B00402C5B0040585B00407658004080B483B000AF0346FB71FB79022B0ED8FA79094B53F82230F979074A52F821201178FA7931
:401A00000548825C0A43D2B21A700C37BD465DF8047B7047C4700000D070000080B483B000AF0346FB71FB79022B10D8FA790A4B53F82230F979084A52F821201178FA79D7
:401A40000648825CD243D2B20A40D2B21A700C37BD465DF8047B7047C4700000D070000080B483B000AF0346FB71FB79022B0ED8FA79094B53F82230F979074A52F8212000
:401A80001178FA790548825C0A43D2B21A700C37BD465DF8047B7047D4700000E070000080B483B000AF0346FB71FB79022B10D8FA790A4B53F82230F979084A52F8212037
:401AC0001178FA790648825CD243D2B20A40D2B21A700C37BD465DF8047B7047D4700000E070000080B582B000AF72B60023FB7113E0FA7913465B0013445B003C4A1344F2
:401B00003B603B681A683B689B889BB210461946FFF7DEFDFB790133FB71FB79062BE8D94FF090403349FFF7EFFD334B324A1278D2B242F00202D2B21A70304B2F4A12789B
:401B4000D2B242F00202D2B21A702D4B2C4A1278D2B242F04002D2B21A702A4B294A1278D2B242F01002D2B21A70274827490822FFF7BCFD264827490822FFF7B7FD2648FF
:401B800026490A22FFF7B2FD254826490A22FFF7ADFD254825490822FFF7A8FD244825490822FFF7A3FD244824490822FFF79EFD234824490822FFF799FD234B224A12787D
:401BC000D2B242F00802D2B21A70204B01221A70FFF7D4FD1D4B81221A70FFF78BFE1C4807490E22FFF782FD0837BD4680BD00BFE470000090000048035001401350014029
:401C0000A0430040C243004002510040E4050048C2510040EC050048F0510040F40500481051004000060048225100400C0600483251004014060048425100401C060048CC
:401C400062510040240600482243004000480040B043004080B485B000AF02460B46FA80BB80B7F9043042F2107202FB03F3BB60B7F90630002B0CDAFB885B429BB2FB81B1
:401C8000FB895B089BB2FB81FB895B429BB2FB8103E0FB885B089BB2FB81B7F90E30BA681344BB60B7F90630BA6892FBF3F3BB60BB6818461437BD465DF8047B704700BFC7
:401CC000B0B586B000AF7860786804F039F902460B461046194602F09BFC02460B461046194604F03DFC03467B61786904F04AF902460B461046194635A3D3E9002304F034
:401D000095F902460B461046194633A3D3E9002303F0DAFF02460B4614461D46786904F031F902460B46104619464FF00002304B02F0E0FC02460B461046194628A3D3E944
:401D4000002304F073F902460B462046294603F0BBFF02460B461046194604F001FC03463B61386904F00EF902460B464FF00000204904F085FA02460B46104619461AA346
:401D8000D3E9002303F09EFF02460B46104619464FF00002184B04F049F902460B46104619464FF00002154B03F08EFF02460B461046194604F0D4FB0346184604F0F4FE7F
:401DC0000346FB81FB891BB218461837BD46B0BD6943AA9AB34D303FD8FD850B29994D3F4D33E44425658B3E6666666666127140000008400000F03F000059400000E03FB3
:401E000080B582B000AF0023FB710AE0FB791846FFF704FEFB791846FFF742FEFB790133FB71FB79022BF1D9024BFF221A700837BD4680BD6481FF1F80B582B000AF0346E9
:401E4000FB710B4B1B78FF2B04D0094B1B78184600F010F8FB791846FFF7C0FDFB791846FFF7FEFD024BFA791A700837BD4680BD6481FF1F80B582B000AF0346FB71FB797F
:401E80001846FFF7CBFDFB791846FFF709FE0837BD4680BD80B500AF054B1B78002B04D100F008F8024B01221A7000F025F880BDBC88FF1F80B500AF102000F069F90120D4
:401EC000072100F029FA0120084900F0FDF9084B074A1278D2B242F00602D2B21A700C2000F084F8034B00221A8080BD8521000009590040648EFF1F80B582B000AF00F018
:401F00006DF90346FB712E4B2D4A1278D2B242F00202D2B21A702B4B2A4A1278D2B242F00202D2B21A70284B274A1278D2B242F00102D2B21A70254B244A1278D2B242F0B5
:401F40000102D2B21A70224B1B78BB71BB7943F00203BB71BB7923F00103BB711C4BBA791A701C4B80221A701B4B1B4A1278D2B222F04002D2B21A70174B174A1278D2B252
:401F800042F00302D2B21A70144B08221A70144B02221A70134B134A1278D2B242F00802D2B21A700A2000F051F90F4B02221A60FB79184600F016F90837BD4680BD00BF3E
:401FC000AB430040BB430040A2430040B24300400B5900400E5900400D59004008590040164600402F5B004080E200E080B584B000AF0346FB71FB790A2B07D00C2B02D08B
:40200000082B06D008E0C423FB730BE08423FB7308E04423FB7305E0C423FB73002000F0E7F800BF044BFA7B1A70FB79184600F05FF81037BD4680BD0A59004080B400AF41
:40204000054B054A1278D2B242F00102D2B21A70BD465DF8047B70470859004080B400AF054B054A1278D2B222F00102D2B21A70BD465DF8047B70470859004080B584B0F6
:4020800000AF0346FB710C4B1B78DBB203F00103FB73FB7B012B02D0FB79002BF3D0FB7B012B04D1012000F0D1F8034B1B78FB7B18461037BD4680BD0959004080B483B074
:4020C00000AF094B1B88FB80084B1B889BB29BB2FA88D31A9BB29BB21BB218460C37BD465DF8047B704700BFA25B0040608EFF1F80B584B000AF0346FB71FB790A2B0BD0D1
:402100000C2B02D0082B0ED013E04FF48053FB604FF400637B8114E04FF48063FB604FF400737B810DE04FF48073FB6080237B8107E00023FB6000237B81002000F058F857
:4021400000BF0C4B00221A80FB6842F2107202FB03F303F59C530833074A82FB03121213DB17D21A054B1A607A89054B1A801037BD4680BD628EFF1FAD8BDB685C8EFF1FAA
:40218000608EFF1F80B400AFBD465DF8047B704780B483B000AF0346FB71094B084A1278D2B2D1B2FA7922F00702D2B20A43D2B2D2B21A700C37BD465DF8047B704700BF1F
:4021C00082400040000000000230800800F0058000BF013800467FF4FCAF7047EFF3108072B6704780F31088704700BFAFF3008080B483B000AF0346FB7101BE0C37BD46D7
:402200005DF8047B704700BF80B582B000AF786008E00C4B1B681846FFF7D6FF7B68A3F500437B607B68B3F5004FF2D8064B1B687A6802FB03F31846FFF7C6FF0837BD463A
:4022400080BD00BF7481FF1F6C81FF1F80B582B000AF0346FB80FB88044A127802FB03F31846FFF7B1FF0837BD4680BD7081FF1F80B582B000AFFFF7B1FF0346FB7100BF5A
:4022800000BF00BF00BF00BF00BF00BF00BF00BF00BF00BF00BF00BF00BF00BF00BF094B084A128892B242F0040292B21A80054B1B88BFF36F8FFB791846FFF793FF083717
:4022C000BD4680BD0048004080B584B000AF03463960FB710F4B1B68FB60FB791F2B02D90020FFF785FFFB7903F01F0310339B00FA6813441B68BB60FB7903F01F031033BB
:402300009B00FA6813443A681A60BB6818461037BD4680BD08ED00E080B582B000AF02460B46FA71BB71BB79072B02D90020FFF75FFFFB791F2B02D90020FFF759FFFB79DA
:4023400003F01F0303F1604303F56443BA795201D2B21A700837BD4680BD00BF80B5ADF5147D00AF07F10C03186007F1080319603B1D1A6007F108031B68C7F8343207F1B9
:4023800008031A683B1D1B681344B3F5802F80F08A8001F08FFE07F11403184601F09CFED7F834321B0CC7F84C32D7F834321B0ADBB2C7F84832D7F84C321A02D7F84832AC
:4023C00013441B02C7F838320023C7F840320023C7F83C325AE00023C7F8443232E0D7F83822D7F834329A4218D33B1DD7F840221B689A4212D207F10C031A68D7F840323D
:4024000013441A7807F59A71D7F844320B441A70D7F840320133C7F8403209E0D7F838321B78DAB207F59A71D7F844320B441A70D7F838320133C7F83832D7F84432013373
:40244000C7F84432D7F84432FF2BC8D9D7F84C32D9B2D7F848329AB207F59A73084611461A4601F063FEC7F83C02D7F848320133C7F84832D7F84832FF2B07D9D7F84C32F7
:402480000133C7F84C320023C7F848323B1DD7F840221B689A4203D2D7F83C32002B9AD0FFF7E6FE02E00123C7F83C32D7F83C32002B07D0D7F83C32012B03D04FF0FF33C7
:4024C000C7F83C32D7F83C32184607F51477BD4680BD00BF80B582B000AF0023FB710023BB7112E0BA7913465B0013449B00174A1344184600F074FB0346002B02D00123F0
:40250000FB7105E0BB790133BB71BB79072BE9D9FB79002B15D10023BB710FE0BB791A010B4B1344184600F0E5FA0346002B02D00123FB7105E0BB790133BB71BB790F2BE5
:40254000ECD9FB7918460837BD4680BD107100007071000080B582B000AF4FF470537B600123FB700123BB70FFF738FE03467B703D4B3D4A1278D2B242F00102D2B21A704E
:402580003A4B3A4A1278D2B242F00102D2B21A707B781846FFF726FE354B354A1278D2B222F00102D2B21A7002E07B68013B7B607B68002B06D02E4B1B78DBB203F00103D6
:4025C000002BF2D17B68002B49D02A4B4FF480321A6010202849FFF777FE10200721FFF79BFE052000F044F90346002B1CD1002000F060F90346002B16D108200521032205
:40260000002300F08DF90346002B0DD1002000F0E9F90346002B07D1002000F019FA0346002B01D10023BB70BB78002B17D1FFF751FF0346002B12D141F2012000F03EFA5B
:402640000346002B0BD10A4B00221A70084B1B78DBB203F00103002B01D10023FB70FB7818460837BD4680BDA6430040B643004010A0004080E100E0052D000080B582B098
:4026800000AF4FF490637B600123FB70FFF7A6FD0346BB701D4B1D4A1278D2B242F00102D2B21A701A4B1A4A1278D2B242F00102D2B21A70BB781846FFF794FD154B41F2D9
:4026C00001221A6000F094F8134B4FF480321A60124B124A126842F001021A6002E07B68013B7B607B68002B05D00C4B1B6803F00103002BF3D07B68002B01D00023FB7027
:40270000FB7818460837BD4680BD00BFA6430040B643004000A0004000E100E010A0004080B582B000AF0023FB710B4B1B78002B03D1FFF70FFF0346FB71FB79002B06D1DB
:40274000054B01221A70FFF799FF0346FB71FB7918460837BD4680BDBD88FF1F80B582B000AF4FF470537B600123FB701C4B1C4A126822F001021A6002E07B68013B7B602D
:402780007B68002B05D0164B1B6803F00103002BF3D17B68002B1DD00023FB70114B4FF480321A60FFF71AFD0346BB700E4B0E4A1278D2B222F00102D2B21A700B4B0B4A0A
:4027C0001278D2B222F00102D2B21A70BB781846FFF708FDFB7818460837BD4680BD00BF10A0004080E100E0A6430040B643004080B483B000AF0123FB710C4B0B4A12789E
:40280000D2B242F00102D2B21A70084B1B78DBB203F00103002B01D00023FB71FB7918460C37BD465DF8047B704700BF04A0004080B483B000AF0123FB710C4B0B4A1278BA
:40284000D2B222F00102D2B21A70084B1B78DBB203F00103002B01D10023FB71FB7918460C37BD465DF8047B704700BF04A0004080B485B000AF0346FB800223FB73FB8883
:402880001BB2002B0CDB0123FB73094BFA881A80074B1B889BB2FA889A4201D10023FB73FB7B18461437BD465DF8047B704700BF16A0004080B485B000AF0346FB710123E1
:4028C000FB73FB79002B11D1144B144A5278D2B222F01002D2B25A70104B5B78DBB203F01003002B13D10023FB7310E00B4B0B4A5278D2B242F01002D2B25A70074B5B786B
:40290000DBB203F01003002B01D00023FB73FB7B18461437BD465DF8047B704714A0004080B485B000AFF871B9717A713B710223FB73FB79012B4CD9FB790F2B49D8BB7939
:40294000012B02D9BB79072B05D93B79002B40D1BB79012B3DD17B79032B3AD87A79FB799A4236D87A79BB799A4232D80123FB731B4B5B78BB73BB7B23F00F03BB73BA7B65
:40298000FB791343BB73164BBA7B5A70144B5B78DBB2BA7B9A421CD10023BB733B79002B01D00223BB73BB795B01DAB27B799B00DBB21343DAB2BB7B1343BB73084BBA7B52
:4029C0001A70074B1B78DBB2BA7B9A4201D10023FB73FB7B18461437BD465DF8047B704714A0004080B485B000AF0346FB710123FB73FB79002B11D1144B144A1278D2B21B
:402A000022F01002D2B21A70104B1B78DBB203F01003002B13D10023FB7310E00B4B0B4A1278D2B242F01002D2B21A70074B1B78DBB203F01003002B01D00023FB73FB7BCD
:402A400018461437BD465DF8047B704714A0004080B485B000AF0346FB710123FB73FB79002B11D1144B144A1278D2B222F00102D2B21A70104B1B78DBB203F00103002BC0
:402A800013D10023FB7310E00B4B0B4A1278D2B242F00102D2B21A70074B1B78DBB203F00103002B01D00023FB73FB7B18461437BD465DF8047B704714A0004080B485B0B5
:402AC00000AF0346FB800123FB73094BFA881A80074B1B889BB2FA889A4201D10023FB73FB7B18461437BD465DF8047B704700BF04A0004080B485B000AF78600123FB738C
:402B00007B681B785A01354B13447A68526842F080121A607B681B785A01304B13441B6803F07F127B685B6823F080139A424DD17B681B785A01294B134410337A68926868
:402B40001A607B681B785A01244B134410331A687B689B689A4239D17B681B785A011F4B134414337A68D2681A607B681B785A011A4B134414331A687B68DB689A4225D1F6
:402B80007B681B785A01154B134418334FF0FF321A607B681B785A01104B134418331B68B3F1FF3F12D17B681B785A010B4B13441C3300221A607B681B785A01074B13445F
:402BC0001C331B68002B01D10023FB73FB7B18461437BD465DF8047B704700BFA0A0004080B485B000AF78600123FB737B681B781A011B4B13441A467B685B6843F4000379
:402C000043F0080313607B681B781A01144B13441B68144A1A407B685B6823F4000323F008039A4215D17B681B781A010C4B134404337A6892681A607B681B781A01084B11
:402C4000134404331A687B689B689A4201D10023FB73FB7B18461437BD465DF8047B704720A00040F7007F0080B500AF034B02225A70FFF7DDFDFFF771FD80BD00A000408B
:402C800080B582B000AF0123BB801B4B10225A700023FB7129E0194B1B889AB2BB8813409BB2002B1BD0FB795A01154B13441B78DBB203F02003002B11D0BB8803F0010357
:402CC0009BB2002B07D0FB79002B00D002E000F00DF900BF03E0FB79184600F0E3F8BB885B00BB80FB790133FB71FB790F2BD2D90837BD4680BD00BF00A0004008A00040B3
:402D0000A0A0004080B500AF094B5B78DBB203F00203002B01D0FFF7A7FF054B5B78DBB203F01003002B01D0FFF7AAFF80BD00BF00A0004080B487B000AF786000233B75F9
:402D40000123FB749AE001237B750023FB758AE0504B9B78DAB27B7D1340DBB2002B78D10023FB607B681B79002B02D04FF40013FB607B685B79002B09D1FB7D1A01464B2C
:402D8000134404337A68126852051A600CE0FB6843F48013FB60FB7D1A013F4B134404337A681268D2001A607B689B79072B06D87B689B791B04FA681343FB6003E0FB681B
:402DC00043F40023FB607B68DB79002B03D0FB6843F00403FB600023BB7517E0FB7D1A012D4B1344BA7D032A03D9BA7DC2F10B0202E0BA7DC2F1030279688868B97D415C99
:402E000013440A461A72BB7D0133BB757B689B79BA7D9A4202D2BB7D072BDFD91F4B4FF480321A60FB7D1A011B4B13441A46FB6843F4000343F008031360FB7D1A01164BF8
:402E4000134401221A60164B4FF480321A600023FB747B7D5B007B75FB7C002B00D106E0FB7D0133FB75FB7D072B7FF671AFFB7C002B00D106E03B7D01333B753B7D022B2B
:402E80007FF661AFFB7C18461C37BD465DF8047B704700BF08A0004020A0004080E100E000E100E080B483B000AF0346FB71FB795A010D4B13441B78DBB203F00103002BA3
:402EC0000DD0FB795A01084B1344FA795101064A0A441278D2B242F00102D2B21A700C37BD465DF8047B7047A0A0004080B586B000AF6A4B1B686A4A9278D2B202F00F02E0
:402F0000D2B268491B010B4408331A70634B1A68634B9B78DBB203F010031B11002B03D0614B1B68DB0802E05F4B1B685B0D5D4912010A440832536000237B610023FB7470
:402F40000023BB7400237B6118E0544B1868544A7B69032B03D97B69C3F10B0302E07B69C3F1030313441B7ADAB24E4900017B6903440B441A707B6901337B61474B1B681A
:402F8000484A1B01134408331B781A467B699A42DBDCFE23FB60414B1B68424A1B011A443B4692E8030083E803003C4B1B683D4A1B01134408331B783B72384B1B68394A62
:402FC0001B01134402331B78042B05D1374B01221A700123FB7434E0304B1B68314A1B01134402331B78062B26D12C4B1B682D4A1B01134401331B787B747B7C012B08D149
:403000002B4B00221A702B4B04221A7316233B710DE07B7C022B08D1274B00221A70274B04221A7316233B7101E017233B710123FB740123BB7404E0214B1B685A1C204BED
:403040001A60FB7C012B07D1144B1B681A01154B13441846FEF790F8BB7C012B05D1FB683A4610461946FEF769F80C4B1B68322B03D10A4B00221A6004E0084B1B685A1C79
:40308000064B1A60064B064A1278D2B242F00102D2B21A701837BD4680BD00BF0482FF1FA0A000409C89FF1FA4A000400882FF1F0982FF1F0C81FF1F0A82FF1F3081FF1FA5
:4030C000FC81FF1F80B500AF054B1B78002B04D100F008F8024B01221A7000F03FF880BDBE88FF1F80B582B000AF1A4B1B78DBB223F03F03FB71174BFA7942F00902D2B2CA
:403100001A70154B144A1278D2B242F00102D2B21A70C82000F032F8C82000F04DF8002000F05AF8002000F067F8FFF757F80346BB71094B084A1278D2B242F01002D2B2D0
:403140001A70BB791846FFF74DF800F027F80837BD4680BD746400409464004080B400AF054B054A1278D2B262F07F02D2B21A70BD465DF8047B70477464004080B483B09C
:4031800000AF0346FB71044BFA791A700C37BD465DF8047B704700BF0464004080B500AF01E000F045F800F037F8034603F01003002BF6D180BD00BF80B483B000AF03467A
:4031C000FB71044BFA791A700C37BD465DF8047B704700BF4464004080B483B000AF0346FB71044BFA791A700C37BD465DF8047B704700BF2464004080B483B000AF0346D1
:40320000FB71044BFA791A700C37BD465DF8047B704700BF8464004080B400AF034B1B78DBB21846BD465DF8047B70476464004080B400AF034B1B78DBB21846BD465DF8D2
:40324000047B70475464004080B400AF034B1B78DBB21846BD465DF8047B70474464004080B500AF054B1B78002B04D100F008F8024B01221A7000F03FF880BDBF88FF1F81
:4032800080B582B000AF1A4B1B78DBB223F03F03FB71174BFA7942F00902D2B21A70154B144A1278D2B242F00102D2B21A70C82000F032F8C82000F04DF8002000F05AF802
:4032C000002000F067F8FEF789FF0346BB71094B084A1278D2B242F01002D2B21A70BB791846FEF77FFF00F027F80837BD4680BD706400409064004080B400AF054B054A0A
:403300001278D2B262F07F02D2B21A70BD465DF8047B70477064004080B483B000AF0346FB71044BFA791A700C37BD465DF8047B704700BF0064004080B500AF01E000F0FC
:4033400045F800F037F8034603F01003002BF6D180BD00BF80B483B000AF0346FB71044BFA791A700C37BD465DF8047B704700BF4064004080B483B000AF0346FB71044B0F
:40338000FA791A700C37BD465DF8047B704700BF2064004080B483B000AF0346FB71044BFA791A700C37BD465DF8047B704700BF8064004080B400AF034B1B78DBB2184642
:4033C000BD465DF8047B70476064004080B400AF034B1B78DBB21846BD465DF8047B70475064004080B400AF034B1B78DBB21846BD465DF8047B70474064004080B500AF05
:40340000054B1B78002B04D100F008F8024B01221A7000F03FF880BDC088FF1F80B582B000AF1A4B1B78DBB223F03F03FB71174BFA7942F00902D2B21A70154B144A127831
:40344000D2B242F00102D2B21A70C82000F032F8C82000F04DF8002000F05AF8002000F067F8FEF7BBFE0346BB71094B084A1278D2B242F01002D2B21A70BB791846FEF7E5
:40348000B1FE00F027F80837BD4680BD756400409564004080B400AF054B054A1278D2B262F07F02D2B21A70BD465DF8047B70477564004080B483B000AF0346FB71044B4B
:4034C000FA791A700C37BD465DF8047B704700BF0564004080B500AF01E000F045F800F037F8034603F01003002BF6D180BD00BF80B483B000AF0346FB71044BFA791A7031
:403500000C37BD465DF8047B704700BF4564004080B483B000AF0346FB71044BFA791A700C37BD465DF8047B704700BF2564004080B483B000AF0346FB71044BFA791A708B
:403540000C37BD465DF8047B704700BF8564004080B400AF034B1B78DBB21846BD465DF8047B70476564004080B400AF034B1B78DBB21846BD465DF8047B70475564004016
:4035800080B400AF034B1B78DBB21846BD465DF8047B70474564004080B500AF054B1B78002B04D100F008F8024B01221A7000F03FF880BDC188FF1F80B582B000AF1A4BEE
:4035C0001B78DBB223F03F03FB71174BFA7942F00902D2B21A70154B144A1278D2B242F00102D2B21A70C82000F032F8C82000F04DF8002000F05AF8002000F067F8FEF7D6
:40360000EDFD0346BB71094B084A1278D2B242F01002D2B21A70BB791846FEF7E3FD00F027F80837BD4680BD716400409164004080B400AF054B054A1278D2B262F07F0283
:40364000D2B21A70BD465DF8047B70477164004080B483B000AF0346FB71044BFA791A700C37BD465DF8047B704700BF0164004080B500AF01E000F045F800F037F80346F3
:4036800003F01003002BF6D180BD00BF80B483B000AF0346FB71044BFA791A700C37BD465DF8047B704700BF4164004080B483B000AF0346FB71044BFA791A700C37BD462D
:4036C0005DF8047B704700BF2164004080B483B000AF0346FB71044BFA791A700C37BD465DF8047B704700BF8164004080B400AF034B1B78DBB21846BD465DF8047B7047B2
:403700006164004080B400AF034B1B78DBB21846BD465DF8047B70475164004080B400AF034B1B78DBB21846BD465DF8047B70474164004080B485B000AF0346FB710B4B0D
:403740001B78DBB223F04003FB73084BFA799201D2B202F04002D1B2FA7B0A43D2B21A701437BD465DF8047B704700BF0051004080B485B000AF0346FB710B4B1B78DBB295
:4037800023F01003FB73084BFA791201D2B202F01002D1B2FA7B0A43D2B21A701437BD465DF8047B704700BF0051004080B485B000AF0346FB710B4B1B78DBB223F010032F
:4037C000FB73084BFA791201D2B202F01002D1B2FA7B0A43D2B21A701437BD465DF8047B704700BF4051004080B485B000AF0346FB710B4B1B78DBB223F00403FB73084B20
:40380000FA799200D2B202F00402D1B2FA7B0A43D2B21A701437BD465DF8047B704700BF4051004080B483B000AF0346FB71044BFA791A700C37BD465DF8047B704700BFA4
:403840007B64004080B400AF034B1B78DBB21846BD465DF8047B70477B64004080B500AF054B1B78002B04D100F008F8024B01221A7000F03FF880BDC288FF1F80B582B0E9
:4038800000AF1A4B1B78DBB223F03F03FB71174BFA7942F00902D2B21A70154B144A1278D2B242F00102D2B21A70632000F032F8632000F04DF8012000F05AF8002000F01C
:4038C00067F8FEF78BFC0346BB71094B084A1278D2B242F01002D2B21A70BB791846FEF781FC00F027F80837BD4680BD796400409A64004080B400AF054B054A1278D2B2F5
:4039000062F07F02D2B21A70BD465DF8047B70477964004080B483B000AF0346FB71044BFA791A700C37BD465DF8047B704700BF0A64004080B500AF01E000F045F800F0C4
:4039400037F8034603F01003002BF6D180BD00BF80B483B000AF0346FB71044BFA791A700C37BD465DF8047B704700BF4A64004080B483B000AF0346FB71044BFA791A702F
:403980000C37BD465DF8047B704700BF2A64004080B483B000AF0346FB71044BFA791A700C37BD465DF8047B704700BF8A64004080B400AF034B1B78DBB21846BD465DF8CD
:4039C000047B70476A64004080B400AF034B1B78DBB21846BD465DF8047B70475A64004080B400AF034B1B78DBB21846BD465DF8047B70474A64004080B500AF054B1B7856
:403A0000002B04D100F008F8024B01221A7000F03FF880BDC388FF1F80B582B000AF1A4B1B78DBB223F03F03FB71174BFA7942F00902D2B21A70154B144A1278D2B242F055
:403A40000102D2B21A70632000F032F8632000F04DF8012000F05AF8002000F067F8FEF7BDFB0346BB71094B084A1278D2B242F01002D2B21A70BB791846FEF7B3FB00F0C1
:403A800027F80837BD4680BD736400409264004080B400AF054B054A1278D2B262F07F02D2B21A70BD465DF8047B70477364004080B483B000AF0346FB71044BFA791A70EE
:403AC0000C37BD465DF8047B704700BF0264004080B500AF01E000F045F800F037F8034603F01003002BF6D180BD00BF80B483B000AF0346FB71044BFA791A700C37BD46E5
:403B00005DF8047B704700BF4264004080B483B000AF0346FB71044BFA791A700C37BD465DF8047B704700BF2264004080B483B000AF0346FB71044BFA791A700C37BD468B
:403B40005DF8047B704700BF8264004080B400AF034B1B78DBB21846BD465DF8047B70476264004080B400AF034B1B78DBB21846BD465DF8047B70475264004080B400AF7C
:403B8000034B1B78DBB21846BD465DF8047B70474264004080B483B000AF0346FB71044BFA791A700C37BD465DF8047B704700BF7A64004080B483B000AF0346FB71044BE6
:403BC000FA791A700C37BD465DF8047B704700BF7264004080B485B000AF0346FB710B4B1B78DBB223F01003FB73084BFA791201D2B202F01002D1B2FA7B0A43D2B21A7097
:403C00001437BD465DF8047B704700BF6051004080B400AF094B094A1278D2B242F00202D2B21A70064B064A1278D2B242F00202D2B21A70BD465DF8047B7047A243004079
:403C4000B243004080B582B000AF786000F03CF8786800F009F8072000F018F800F028F80837BD4680BD00BF80B485B000AF7860054B1B68FB60FB6840337A681A6014371C
:403C8000BD465DF8047B704708ED00E080B483B000AF0346FB71054BFA795201D2B21A700C37BD465DF8047B704700BF00E400E080B400AF034B01221A60BD465DF8047BB9
:403CC000704700BF00E100E080B400AF034B01221A60BD465DF8047B704700BF80E100E080B500AF054B1B78002B04D100F008F8024B01221A7000F025F880BDC488FF1FCC
:403D000080B500AF102000F045F902200721FEF703FB02200849FEF7D7FA084B074A1278D2B242F00602D2B21A700C2000F084F8034B00221A8080BD893F00000159004090
:403D4000708EFF1F80B582B000AFFEF747FA0346FB712E4B2D4A1278D2B242F00102D2B21A702B4B2A4A1278D2B242F00102D2B21A70284B274A1278D2B242F00102D2B2FF
:403D80001A70254B244A1278D2B242F00102D2B21A70224B1B78BB71BB7943F00203BB71BB7943F00103BB711C4BBA791A701C4B18221A701B4B1B4A1278D2B242F0400253
:403DC000D2B21A70174B174A1278D2B222F02002D2B21A70144BCE221A70144B02221A70134B134A1278D2B242F00802D2B21A700A20FEF72BFA0F4B04221A60FB79184699
:403E0000FEF7F0F90837BD4680BD00BFAB430040BB430040A1430040B14300400359004006590040055900400059004014460040275B004080E200E080B584B000AF034631
:403E4000FB71FB790A2B07D00C2B02D0082B06D008E0C423FB730BE08423FB7308E04423FB7305E0C423FB730020FEF7C1F900BF044BFA7B1A70FB79184600F005F810372E
:403E8000BD4680BD0259004080B584B000AF0346FB71FB790A2B08D00C2B02D0082B08D00BE04FF48053FB600DE04FF48063FB6009E04FF48073FB6005E00023FB600020FE
:403EC000FEF796F900BF0C4B00221A80FB6842F2107202FB03F303F58063002B01DA03F2FF73DB121A46054B1A60054B00221A801037BD4680BD00BF6C8EFF1F688EFF1F83
:403F00006E8EFF1F90B585B000AF0346FB801A4B1B889BB2002B09D0174B1B889BB21AB213469B0013445B00FB6002E0134B1B68FB60FA88124B1B889BB29BB2D31A9BB28E
:403F4000FB80B7F90630184602F014FC034618460C4902F063FC03461C46F86802F00AFC03462046194602F00DFD0346BB60BB6818461437BD4690BD6C8EFF1F688EFF1F7A
:403F8000708EFF1F0000204180B400AFBD465DF8047B704780B483B000AF0346FB71094B084A1278D2B2D1B2FA7922F00702D2B20A43D2B2D2B21A700C37BD465DF8047B06
:403FC000704700BF0241004080B582B000AF00F075F94FF0FF337B6000F09AFA0346002B24D1012000F062FA0346072B1BD11348022100F085F90346022B0DD100237B6009
:4040000002E00120FEF722F90D4B1B78DBB203F00203002BF5D006E0094B1B78DBB203F00203002BE3D000F0A7FA01E004237B607B6818460837BD4680BD00BF748EFF1FCA
:404040002247004080B582B000AF00F037F900F05FFA0346002B23D100F0B6FA78607B68072B1AD102E00120FEF7F0F8104B1B78DBB203F00203002BF5D00D4B1B78DBB27D
:4040800003F00203002B08D0094B1B78DBB29B08DBB2002B01D100237B6000F06DFA01E004237B607B6818460837BD4680BD00BF2247004080B582B000AFFFF7C3FF78605E
:4040C0007B68002B02D1FFF77FFF78607B6818460837BD4680BD00BF80B584B000AF78600023FB6000F0EAF87B68002B06D10E4B1A680D4B1A600123FB6010E000F008FAE1
:404100000346002B06D0084B1A68074B1A600423FB6004E0044B7A681A6000F02DFAFB6818461037BD4680BDC888FF1F80B584B000AF0B463A600246FA71BB80FB793F2BE7
:4041400001D9102301E04FF48073FB81F979BA88FB89084611463A6800F006F8B860BB6818461037BD4680BD80B586B000AFBA600246FA730A46BA81FB8000237B61FB7BAE
:404180003F2B04D8FB7B042B01D901237B61FB7B5BB2002B01DA01237B61FB7B3F2B04D9FB7B412B01D901237B61FB7B3F2B06D8BB89B3F5807F0CD901237B6109E0BB897D
:4041C000802B01D901237B61FB88102B01D001237B61BB68002B01D101237B617B69002B62D100F095F90346002B5BD1F97BBA89FB8808461146BA6800F0AEF878617B69D7
:40420000072B4CD102E00120FEF720F8294B1B78DBB203F00203002BF5D0264B1B78DBB203F00203002B09D0224B1B78DBB29B08DBB2002B02D100237B6102E04FF0FF3309
:404240007B617B69002B2AD11B4B1A781A4B5B78F87BB98900F0E6F878617B69072B1ED102E00120FDF7F2FF124B1B78DBB203F00203002BF5D00F4B1B78DBB203F0020308
:40428000002B09D00B4B1B78DBB29B08DBB2002B02D100237B6102E04FF0FF337B6100F06BF901E004237B617B6918461837BD4680BD00BF22470040748EFF1F80B582B030
:4042C00000AFFDF78BFF0346FB710B4B0A4A1278D2B242F00802D2B21A70084B074A1278D2B242F00802D2B21A70FB791846FDF779FF0837BD4680BDA0430040B0430040CB
:4043000080B584B000AF78600B46FB700023FB7314E002E00120FDF799FF0D4B1B78DBB203F00103002BF5D0FB7B7A681344094A1278D2B21A70FB7B0133FB73FA7BFB78C4
:404340009A42E6D3FB7B18461037BD4680BD00BF224700402047004080B489B000AFBA600246FA730A46BA81FB800723FB612B4B1B78DBB203F00203002B45D0284BB622AE
:404380001A70274BD5221A70254B02221A70234B1B78DBB203F00203002B32D1204BFA7B1A7000237B8308E01D4B7A8BB9680A4412781A707B8B01337B837A8BFB889A42AF
:4043C000F2D3FB88B3F5807F20D1FB7B3F2B1DD8FB7B03F510331A02BB8913445B017B6100237B8309E00E4B798B7A690A441278D2B21A707B8B01337B837B8B1F2BF2D9E5
:4044000004E00923FB6101E00423FB61FB6918462437BD465DF8047B704700BF224700402047004080B485B000AFF871B980BA71FB700723FB601B4B1B78DBB203F002039F
:40444000002B26D0184BB6221A70174BD8221A70154B05221A70134B1B78DBB203F00203002B13D1104BFA791A700F4BBA88120A92B2D2B21A700C4BBA88D2B21A700A4B7C
:40448000BA791A70084BFA781A7004E00923FB6001E00423FB60FB6818461437BD465DF8047B7047224700402047004080B485B000AF0346FB710723FB60134B1B78DBB268
:4044C00003F00203002B16D0104BB6221A700F4BE1221A700D4B0E221A700B4B1B78DBB203F00203002B03D1084BFA791A7004E00923FB6001E00423FB60FB681846143766
:40450000BD465DF8047B7047224700402047004080B582B000AF04237B60FDF75FFE0346FB70124B1B78002B16D1104B01221A7000237B600E4B1B6803F00103002B0BD09F
:404540000B4B0B4A126822F001021A6000BF00BF00BF084B01221A60FB781846FDF742FE7B6818460837BD4680BD00BFCC88FF1F04000840D088FF1F80B582B000AFFDF798
:404580002DFE0346FB710D4B00221A700C4B1B68012B0BD10B4B0B4A126842F001021A6000BF00BF00BF064B00221A60FB791846FDF718FE0837BD4680BD00BFCC88FF1FAB
:4045C000D088FF1F0400084080B483B000AF07237B600D4B1B78DBB203F00203002B09D00A4BB6221A70094BE0221A70074B0D221A7001E004237B607B6818460C37BD465E
:404600005DF8047B704700BF22470040204700402DE9F0418AB004460D4600F0E9F9DFF8D080064698F900300F4601330BD02046294601F0FBF930B12046294600220023A3
:4046400001F084FF20B1304639460AB0BDE8F081234B98F800600890CDE90245CDE90445019346BB1F4B4FF06042CDE90623204629460022002301F041FF70B102239E420E
:40468000009322D0684601F0F9F9F0B1089B0BBBDDE906010AB0BDE8F0810123022E00930ED0684601F0EAF950B10F4801F0E8F9CDE90601EAE70D4B0022CDE90623D6E728
:4046C00002F098FA21230360EFE702F093FA22230360DBE702F08EFA089B0360D8E700BF70720000FFFFEFC7747200000000F0FF7881FF1F2DE9F04F8BB01D4680468946C8
:40470000144600F06DFBDFF8ACA206469AF900300F46013304D02046294601F087F920B9304639460BB0BDE8F08F4046494601F07DF9834600282CD12046294600220023BF
:4047400001F0DCFE0028EBD0944B9AF90010944E00220120CDE906234B1CCDF820B0CDE90289CDE904458DE841000DD002290BD0684601F083F9002800F09580089B1BB179
:4047800002F038FA089B0360DDE906010BB0BDE8F08F002200234046494601F0AFFEF8B1204629460022002301F0A8FE834600284DD07B489AF90030CDE9044501210022FA
:4047C00000240025CDE90289CDE90645019000910892002BCCD0714B0022CDE90623D3E73046394601F01CF98346002860D0002200233046394601F081FE002890D0404660
:40480000494601F00DF900288AD02046294601F007F9002884D09AF900306148CDE904450421002200240025022BCDE90289CDE9064501900091089200F08280684601F077
:404840001DF900287CD0089B002B9DD098E72046294601F0E5F800283FF462AF204629460022002301F054FE00283FF459AF4C4A9AF8001001230192CDF820B0CDE9028960
:40488000CDE9044500930022002934D10023CDE90623684601F0F2F80028D4D102F0AAF921230360CFE702F0A5F92123036065E74046494601F0B4F8002898D02046294632
:4048C00001F0AEF8002892D03046394601F0AEF8B8B9334A9AF8006001230890CDE90289CDE9044501920093002E2ED100240025CDE90645CDE72B4B0229CDE90623CDD0C1
:40490000C7E727499AF90030032201910092CDF820B0CDE90289CDE90445404649460022F3B9214F4FF060460023CDE9066701F0EFFD002840D19AF90030022B7FF47EAF54
:4049400002F058F9222303607DE70020002102460B4601F095FC022ECDE906019ED098E7124F00260023CDE9066701F0D1FD0028E1D000220E4B2046294601F057FB044670
:404980000D4601F083F822462B4601F0B7FD0028D1D1044B0022CDE90623CCE70000F03F787200000000F0FFFFFFEF470000F07F0000E03F7881FF1F00220A4B20462946C0
:4049C00001F034FB04460D4601F060F822462B4601F094FD0028AED1034B4FF06042CDE90623A8E70000E03FFFFFEFC7000000002DE9F04FB1F5801F87B002460B460F4680
:404A00005BDA21F00046064300F0F5800029C0F2A4810022B24B01F009FB0F460B46B14902468F426FF035054BDCC7F3130606F5152101F6647101F4801484F07F5181F49D
:404A4000401141EA0603104619460022A64B01F039F94FEA2758B31CA8F2FF38C3F31303A844022B08EB145882468B464FF000022EDC002301F042FD002800F0C580B8F1ED
:404A8000000F00F07181404601F06AFA80A3D3E9002306460F4601F0C9FA7FA3D3E9002304460D463046394601F0C0FA02460B462046294601F008F907E08A4900258F4285
:404AC000B3DD1046194601F0FFF807B0BDE8F08F4FF0804301F0F8F802460B465046594601F0CEFBCDE90201404601F039FACDE90401DDE9020102460B4601F097FA0246F9
:404B00000B46CDE9000101F091FA65A3D3E9002304460D4601F08AFA63A3D3E9002301F0D3F822462B4601F081FA61A3D3E9002301F0CAF822462B4601F078FA5EA3D3E983
:404B4000002301F0C1F8DDE9002301F06FFA5CA3D3E90023CDE900012046294601F066FA59A3D3E9002301F0AFF822462B4601F05DFA57A3D3E9002301F0A6F822462B4695
:404B800001F054FA0B460246DDE9000101F09CF8A6F5C223C6F5D726A3F27A4351361E43002E04460D4657DD0022504B5046594601F03CFA52465B4601F038FA06460F464A
:404BC000B8F1000F40F0968022462B4601F07CF8DDE9022301F02AFA02460B463046394601F070F802460B465046594601F06AF807B0BDE8F08F0022002300203C4901F0BB
:404C00003FFB07B0BDE8F08F52465B465046594601F00CFA30A3D3E9002304460D465046594601F003FA02460B4600202F4901F049F802460B462046294601F0F7F904468C
:404C40000D46B8F1000F40F092805046594622462B4601F037F838E7B8F1000F00F0AB800BA3D3E90023DDE9040101F0DFF922462B4606460F465046594601F023F8DDE925
:404C8000022301F0D3F904460D46DDE904017CE00000E0FE422EE63F763C7935EF39EA3D44523EDF12F1C23FDE03CB966446C73F599322942449D23F935555555555E53F03
:404CC0009FC678D0099AC33FAF788E1DC571CC3F04FA97999999D93F555555555555D53F00005043FFFFEF7F0000F03F0000E03F000050C336A3D3E90023DDE9040101F0F1
:404D000095F92246804689462B463046394600F0DBFFDDE9022301F089F92FA3D3E9002304460D46DDE9040101F080F902460B462046294600F0C8FF02460B463046394624
:404D400000F0C0FF52465B4600F0BCFF02460B464046494600F0B6FFB7E600F0B3FF0022002301F08DFAB0E600200021ADE6404601F0F6F816A3D3E900238046894601F064
:404D800055F906460F464046494613A3D3E9002301F04CF902460B462046294600F092FF52465B4600F08EFF02460B463046394600F088FF89E602460B465046594600F04D
:404DC00081FFDDE9022301F031F90BE7AFF300800000E0FE422EE63F763C7935EF39EA3D2DE9F04F23F0004B91B089460F465BEA0201CDE9022314461D46804606462ED0EF
:404E0000634B29F0004A9A4522DC1FD0604B9B451EDC77D0002F78DB0022049264BB5C4B9B4500F091805B4B9B4565D0B5F1804F00F0F983584B9D421ED1002F1CDB40462F
:404E4000494611B0BDE8F04F00F026BD0028DDD00AF1404A0AF5801A5AEA060A04D14D49002011B0BDE8F08F4C4811B0BDE8F04F00F006BE002104914046494600F0CCFD03
:404E8000E6B9BAF1000F04D0424B27F040429A4214D1002DC0F20884002FE2DA0AF1404ADDF810B00AF5801A5BEA0A0B5ED0049A012AD6D101F100431946D2E7FB0F03F192
:404EC000FF3C049B53EA0C034ED0354B9B456DDD03F104739B4540F3EF83324B9A4540F39C83002D40F39C8327A1D1E9000102460B4601F09BF8B4E7002DC0F24B84404638
:404F00004946AEE7002C85D0A2E7274B9B4536DCA3F154739B4540F38D834FEA2B5340F21342934240F33E84C3F58663033324FA03F202FA03F3A3427FF46EAF02F0010213
:404F4000C2F10202049269E70AF1404303F58013334384D0134B9A4540F39E83002DC0F25F83DDE902017CE74046494602460B4600F0A8FE02460B4601F082F971E702237D
:404F800004934BE7AFF300809C7500883CE4377E0000F07F0000F03F0000E03F747200000000E041FFFFEF3FFFFF3F43BAF5801F80F2EE83AA4B0022CDF804C001F036F838
:404FC000DDF804C08A466FF034034FEA2A55A54ACAF3130AA5F2FF354AF07F541D4492450F9544F4401440F3D0839F4B9A4540F3EF83DDF83CA000250AF1010ACDF83CA080
:40500000A4F580142B46994ADB000E931344D3E90067214632463B46CDF804C0CDE90A0100F050FE3246804689463B46DDE90A0100F04AFE02460B4600208D4901F020F9E1
:40504000CDE90C01DDE90C234046494600F0EEFFCDE90601DDE906AB611041F0005101F500214B190021CDE908AB0891DDE908AB00225046594614461D4600F0D7FF024626
:405080000B464046494600F01DFE3246804689463B462046294600F015FE02460B46DDE90A0100F00FFE02460B465046594600F0BDFF02460B464046494600F003FEDDE9D3
:4050C0000C2300F0B3FF06460F46DDE9060102460B4600F0ABFF02460B4604460D4600F0A5FF4FA3D3E90023804689462046294600F09CFF4CA3D3E9002300F0E5FD2246A6
:405100002B4600F093FF4AA3D3E9002300F0DCFD22462B4600F08AFF47A3D3E9002300F0D3FD22462B4600F081FF45A3D3E9002300F0CAFD22462B4600F078FF42A3D3E964
:40514000002300F0C1FD02460B464046494600F06DFFDDE9062304460D465046594600F0B3FD32463B4600F061FF22462B4600F0ABFD5246804689465B465046594600F046
:4051800055FF00223B4BCDE90A0100F09DFD42464B4600F099FD08980D46044622462B465046594600F042FF224682468B462B463046394600F03AFF002206460F462046D4
:4051C00029462C4B00F07EFDDDE90A2300F07AFD02460B464046494600F074FDDDE9062300F024FF02460B463046394600F06CFD8046894642464B465046594600F064FDD8
:4052000013A3D3E9002308980D46044600F00EFF11A3D3E90023CDE90601204629462BE0EF4E454A287ECA3F65DBC9934A86CD3F01411DA96074D13F4D268F515555D53F7F
:40524000FFAB6FDBB66DDB3F033333333333E33F000000E009C7EE3FF5015B14E02F3EBE000040438E98030079B60B00A07200000000F03F0000084000F0D8FE5246064673
:405280000F465B462046294600F01CFD02460B464046494600F016FD9FA3D3E9002300F0C5FE02460B463046394600F00DFDDDF838A0AB4B5344D3E9002300F005FD82463A
:4052C0000F988B4600F04CFE0E9AA64B04461344D3E900670D4652465B46DDE9060100F0F3FC32463B4600F0EFFC22462B4600F0EBFC089822462B468046894600F0E2FC07
:4053000032463B4600F0DEFCDDE9062300F0DAFC02460B465046594600F0D4FCDDF804C082468B46049900224B1E53EA0C030CBF8D4B8E4BDDE90201CDE90823DDE90223B0
:40534000CDE9042300230493DDE904452B46224600F0B8FC42464B4600F068FE524606460F465B46DDE9020100F060FE02460B463046394600F0A8FC42464B4682468B46D6
:405380002046294600F052FE06460F463B4650465946324600F098FC754B8046994289460D4640F34B8101F13F4303F5E003034340F012825AA3D3E900235046594600F0A9
:4053C00083FC3246CDE902013B464046494600F079FC02460B46DDE9020101F0B7F8002840F00882CC464FEA2C53A3F2FE334FF4801018412844C0F30A515E4AA1F2FF337B
:4054000042FA03FEC1F58261C0F3130420EA0E03033144F4801040FA01F1002D0491BCBF4942049100223046394600F04BFC06460F463246504659463B4600F045FC049A40
:4054400012050292002438A3D3E9002320460D4600F0ECFD3246804689463B462046294600F030FC02460B465046594600F02AFC2FA3D3E9002300F0D9FD2FA3D3E9002386
:4054800006460F462046294600F0D0FD02460B463046394600F018FC06460F4632463B464046494600F010FC42464B4604460D4600F008FC02460B463046394600F002FC56
:4054C000224682468B4620462B46294600F0AEFD1BA3D3E9002306460F4600F0A7FD1AA3D3E9002300F0EEFB32463B4600F09EFD17A3D3E9002300F0E7FB32463B4600F0AB
:4055000095FD15A3D3E9002300F0DCFB32463B4632E000BFAFF30080FD033ADC09C7EE3FFE822B654715973C00000000432EE63FEF39FAFE422EE63F396CA80C615C20BEFE
:40554000D0A4BE726937663EF16BD2C541BDBB3E2CDE25AF6A56113F93BDBE166CC1663F90720000807200000000F0BF0000F03FFFFF8F40FFFF0F0000F058FDACA3D3E979
:40558000002300F0A1FB32463B4600F04FFD02460B462046294600F095FB06460F4632463B462046294600F041FD002280468946304639464FF0804300F084FB02460B46C6
:4055C0004046494600F05CFE524606460F4620465B46294600F02AFD52465B4600F074FB02460B463046394600F06CFB22462B4600F068FB02460B4600209B4900F062FBF3
:40560000029C02460C44B4F5801FC0F237812346DDE9080100F00AFD23E4002DFFF664AC002000211DE44046494642464B4600F0FDFC16E400210491FFF7F0BB8B4B21F089
:40564000004C9C4540F3BD8001F17D5303F53C1303F55053034340F0DB8032463B46CDF804C000F02FFB02460B465046594600F059FFDDF804C000283FF4B5AEDDE9080140
:405680006DA3D3E9002300F0D1FC6BA3D3E9002300F0CCFCFFF7E5BB002DC1DA039B029803F10041FFF7DDBB02460B4600206E4900F0E6FDFFF7F0BB6D4B9A45ADDD6A4B86
:4056C0009A453FF70EAC0022674BCDF804C000F0F9FA5BA3D3E9002304460D4600F0A6FC59A3D3E9002306460F462046294600F09DFC224682468B462B462046294600F07E
:4057000095FC00228046894620462946594B00F08DFC02460B464EA1D1E9000100F0D2FA22462B4600F082FC02460B460020524900F0C8FA02460B464046494600F076FCD3
:4057400045A3D3E9002300F071FC02460B465046594600F0B7FA04460D4622462B463046394600F0B1FA002032463B468046894600F0A8FA02460B462046294600F0A2FA56
:40578000DDF804C082468B46CCE500252B463AE400231AE442464B460020334900F070FDFFF75FBB002C7FF465ABC3F5826303334BFA03F202FA03F35B4565D00494FFF7FE
:4057C00032BB2D4B9C453FF70EAE049B029339E64FF48025012316E421A3D3E90023DDE9080100F023FC1EA3D3E9002300F01EFCFFF737BBDDE9080119A3D3E9002300F0AB
:4058000015FC17A3D3E9002300F010FCFFF729BB09A3D3E90023DDE9080100F007FC06A3D3E9002300F002FCFFF71BBBAFF300803E5555555555C53F59F3F8C21F6EA50113
:40584000000000604715F73F44DF5DF80BAE543E555555555555D53FFE822B654715F73F9C7500883CE4377E0000F03FFFCB9040FEFFEF3F0000D03F0000E03F049A00F0A1
:4058800093F902460B46C3E602F00102C2F102020492FFF7C8BA00BF21F0004C2DE9F8434FEA1C5CDFF86C814FEA0C5CC44506460F460B46024600F08F8000296FDD0F1502
:4058C00078D0A7F2FF37C3F31303F90743F4801360D4D10F4FF0000C01EB43037F105200654616204FF400116C189C424FEAD2764FEA420202DC1B1B65188C44013806EB69
:4059000043034FEA5101EFD1804620264FF0004109E023D0D40F013E4FEA510104EB43034FEA42021ED0AB4201EB0804F1DD04F00049B9F1004F04EB010809D0A9465B1B02
:40594000944288BF03F1FF33121B08444D46E1E7B8F1000FF2DB05F10109F0E79442E6D91D46D7E71A4304D0431C41D000F00103184446084FEA6C031CF0010F03F17F5335
:4059800003F5001318BF46F0004603EB07513046BDE8F883D10F01EB4303520099E721F00043034322D051BB0F46D30A153F5205002BFAD013F480111DD15B00D80201F1B2
:4059C0000101FAD5C1F10100C1F1200422FA04F407448A40234374E702460B4600F026FB32463B4600F070F9BDE8F883BDE8F8830CF1010CBEE7202401200021E6E70246DD
:405A00000B4600F05FF902460B4600F039FCBDE8F88300BF0000F07F21F00041704700BF41F0004101F58010C00F704731F0004310B408D00F4AA3F5801494420AD804201A
:405A40005DF8044B704700280CBF022003205DF8044B7047B3F5801F01D20320F7E7064A934201D00020F2E7D0F1010038BF0020EDE700BFFFFFDF7F0000F07F0020704720
:405A800000200149704700BF0000F87F2DE9F043C1F30A5CACF2FF37132F83B002460B460D46894680464FEAD17630DC002F4CDB3A49394101EA030010432DD0490801EA09
:405AC000030858EA02080CD04FF480233B41132F25EA010141EA030914BF4FF000084FF000482F494B4601EBC606D6E9004542462046294600F0E8F8CDE90001DDE9000176
:405B000022462B4600F0DEF803B0BDE8F083332F07DDB7F5806F3ED01046194603B0BDE8F083ACF2134C4FF0FF3121FA0CF10142F2D049080142D4D04FF0804848FA0CFC7A
:405B400020EA010141EA0C08CBE721F000410143E2D0C3F3130101434C420C431048590C240B490404F4002444EA010300EBC601D1E900452046294600F0A6F8CDE90001A3
:405B8000DDE900012B46224600F09CF821F0004343EAC671C2E700F097F8BFE7FFFF0F00B072000000000000C1F30A532DE9F041904606460F460A461BBB21F0004303437D
:405BC00034D0354B002200F031FA344B064698450F463BDBC1F30A53363B0A46434440F2FE718B4216DD28A1D1E9000132463B4600F05AF824A3D3E9002300F017FABDE80C
:405C0000F08140F2FF74A34227D0434440F2FE718B42E8DC002B0BDD22F0FF4222F4E00242EA035730463946BDE8F081BDE8F08113F1350F17DA4CF250339845D3DC14A179
:405C4000D1E9000132463B4600F02EF810A3D3E9002300F0EBF9BDE8F08102460B4600F033F8BDE8F08122F0FF4222F4E002363342EA0357304639460022094B00F0D6F9B0
:405C8000BDE8F081AFF300809C7500883CE4377E59F3F8C21F6EA50100005043B03CFFFF0000903CAFF3008030B403F0004321F0004243EA020130BC704700BF81F00041E9
:405CC00002E000BF83F0004330B54FEA41044FEA430594EA050F08BF90EA020F1FBF54EA000C55EA020C7FEA645C7FEA655C00F0E2804FEA5454D4EB5555B8BF6D420CDD12
:405D00002C4480EA020281EA030382EA000083EA010180EA020281EA0303362D88BF30BD11F0004F4FEA01314FF4801C4CEA113102D0404261EB410113F0004F4FEA03330E
:405D40004CEA133302D0524263EB430394EA050F00F0A780A4F10104D5F1200E0DDB02FA0EFC22FA05F2801841F1000103FA0EF2801843FA05F359410EE0A5F120050EF19E
:405D8000200E012A03FA0EFC28BF4CF0020C43FA05F3C01851EBE37101F0004507D54FF0000EDCF1000C7EEB00006EEB0101B1F5801F1BD3B1F5001F0CD349085FEA300018
:405DC0004FEA3C0C04F101044FEA445212F5800F80F09A80BCF1004F08BF5FEA500C50F1000041EB045141EA050130BD5FEA4C0C404141EB010111F4801FA4F10104E9D1A9
:405E000091F0000F04BF01460020B1FA81F308BF2033A3F10B03B3F120020CDA0C3208DD02F1140CC2F10C0201FA0CF021FA02F10CE002F11402D8BFC2F1200C01FA02F1CC
:405E400020FA0CFCDCBF41EA0C019040E41AA2BF01EB0451294330BD6FEA04041F3C1CDA0C340EDC04F11404C4F1200220FA04F001FA02F340EA030021FA04F345EA030134
:405E800030BDC4F10C04C4F1200220FA02F001FA04F340EA0300294630BD21FA04F0294630BD94F0000F83F4801306BF81F480110134013D4EE77FEA645C18BF7FEA655C2D
:405EC00029D094EA050F08BF90EA020F05D054EA000C04BF1946104630BD91EA030F1EBF0021002030BD5FEA545C05D14000494128BF41F0004130BD14F580043CBF01F54C
:405F0000801130BD01F0004545F0FE4141F470014FF0000030BD7FEA645C1ABF194610467FEA655C1CBF0B46024650EA013406BF52EA033591EA030F41F4002130BD00BFDB
:405F400090F0000F04BF0021704730B54FF4806404F132044FF000054FF0000150E700BF90F0000F04BF0021704730B54FF4806404F1320410F0004548BF40424FF00001D7
:405F80003EE700BF42004FEAE2014FEA31014FEA02701FBF12F07F4393F07F4F81F06051704792F0000F14BF93F07F4F704730B54FF4607401F0004521F0004120E700BF07
:405FC00050EA010208BF704730B54FF000050AE050EA010208BF704730B511F0004502D5404261EB41014FF4806404F132045FEA915C3FF4DCAE4FF003025FEADC0C18BF75
:4060000003325FEADC0C18BF033202EBDC02C2F1200300FA03FC20FA02F001FA03FE40EA0E0021FA02F11444C1E600BF70B54FF0FF0C4CF4E06C1CEA11541DBF1CEA135598
:4060400094EA0C0F95EA0C0F00F0DEF82C4481EA030621EA4C5123EA4C5350EA013518BF52EA033541F4801143F4801338D0A0FB02CE4FF00005E1FB02E506F00042E0FB17
:4060800003E54FF00006E1FB03569CF0000F18BF4EF0010EA4F1FF04B6F5007F64F5407404D25FEA4E0E6D4146EB060642EAC62141EA55514FEAC52040EA5E504FEACE2E7B
:4060C000B4F1FD0C88BFBCF5E06F1ED8BEF1004F08BF5FEA500E50F1000041EB045170BD06F0004646EA010140EA020081EA0301B4EB5C04C2BFD4EB0C0541EA045170BD54
:4061000041F480114FF0000E013C00F3AB8014F1360FDEBF002001F0004170BDC4F10004203C35DA0C341BDC04F11404C4F1200500FA05F320FA04F001FA05F240EA02002B
:4061400001F0004221F0004110EBD37021FA04F642EB06015EEA430E08BF20EAD37070BDC4F10C04C4F1200500FA04F320FA05F001FA04F240EA020001F0004110EBD3700D
:4061800041F100015EEA430E08BF20EAD37070BDC4F1200500FA05F24EEA020E20FA04F301FA05F243EA020321FA04F001F0004121FA04F220EA020000EBD3705EEA430E65
:4061C00008BF20EAD37070BD94F0000F0FD101F00046400041EB010111F4801F08BF013CF7D041EA060195F0000F18BF704703F00046520043EB030313F4801F08BF013D19
:40620000F7D043EA0603704794EA0C0F0CEA135518BF95EA0C0F0CD050EA410618BF52EA4306D1D181EA030101F000414FF0000070BD50EA410606BF1046194652EA43065A
:4062400019D094EA0C0F02D150EA013613D195EA0C0F05D152EA03361CBF104619460AD181EA030101F0004141F0FE4141F470014FF0000070BD41F0FE4141F4780170BDB6
:4062800070B54FF0FF0C4CF4E06C1CEA11541DBF1CEA135594EA0C0F95EA0C0F00F0A7F8A4EB050481EA030E52EA03354FEA013100F088804FEA03334FF0805545EA1313A9
:4062C00043EA12634FEA022245EA111545EA10654FEA00260EF000419D4208BF964244F1FD0404F5407402D25B084FEA3202B61A65EB03055B084FEA32024FF480104FF4F5
:40630000002CB6EB020E75EB030E22BFB61A754640EA0C005B084FEA3202B6EB020E75EB030E22BFB61A754640EA5C005B084FEA3202B6EB020E75EB030E22BFB61A75462B
:4063400040EA9C005B084FEA3202B6EB020E75EB030E22BFB61A754640EADC0055EA060E18D04FEA051545EA16754FEA06164FEAC30343EA52734FEAC2025FEA1C1CC0D156
:4063800011F4801F0BD141EA00014FF000004FF0004CB6E711F4801F04BF01430020B4F1FD0C88BFBCF5E06F3FF6AFAEB5EB030C04BFB6EB020C5FEA500C50F1000041EB45
:4063C000045170BD0EF0004E4EEA113114EB5C04C2BFD4EB0C0541EA045170BD41F480114FF0000E013C90E645EA060E8DE60CEA135594EA0C0F08BF95EA0C0F3FF43BAF07
:4064000094EA0C0F0AD150EA01347FF434AF95EA0C0F7FF425AF104619462CE795EA0C0F06D152EA03353FF4FDAE1046194622E750EA410618BF52EA43067FF4C5AE50EAFC
:4064400041047FF40DAF52EA43057FF4EBAE12E74FF0FF3C06E000BF4FF0010C02E000BF4FF0010C4DF804CD4FEA410C7FEA6C5C4FEA430C18BF7FEA6C5C1BD001B050EA94
:40648000410C0CBF52EA430C91EA030F02BF90EA020F0020704710F1000F91EA030F58BF994208BF90422CBFD8176FEAE37040F0010070474FEA410C7FEA6C5C02D150EA2F
:4064C000013C07D14FEA430C7FEA6C5CD6D152EA033CD3D05DF8040B704700BF8446104662468C461946634600E000BF01B5FFF7B7FF002848BF10F1000F01BD4DF808ED55
:40650000FFF7F4FF0CBF012000205DF808FB00BF4DF808EDFFF7EAFF34BF012000205DF808FB00BF4DF808EDFFF7E0FF94BF012000205DF808FB00BF4DF808EDFFF7CEFF34
:4065400094BF012000205DF808FB00BF4DF808EDFFF7C4FF34BF012000205DF808FB00BF4FEA4102B2F1E04324BFB3F5001CDCF1FE5C0DD901F0004C4FEAC0024CEA50700E
:40658000B2F1004F40EB830008BF20F00100704711F0804F21D113F13872BCBF01F00040704741F480114FEA5252C2F11802C2F1200C10FA0CF320FA02F018BF40F001006D
:4065C0004FEAC1234FEAD32303FA0CFC40EA0C0023FA02F34FEA4303CCE77FEA625307D150EA01331EBF4FF0FE4040F44000704701F0004040F0FE4040F40000704700BF9E
:4066000080F0004002E000BF81F0004142001FBF5FEA410392EA030F7FEA226C7FEA236C6AD04FEA1262D2EB1363C1BFD218414048404140B8BF5B42192B88BF704710F0C9
:40664000004F40F4000020F07F4018BF404211F0004F41F4000121F07F4118BF494292EA030F3FD0A2F1010241FA03FC10EB0C00C3F1200301FA03F100F0004302D54942E7
:4066800060EB4000B0F5000F13D3B0F1807F06D340084FEA310102F10102FE2A51D2B1F1004F40EBC25008BF20F0010040EA03007047490040EB000010F4000FA2F1010241
:4066C000EDD1B0FA80FCACF1080CB2EB0C0200FA0CF0AABF00EBC25052421843BCBFD0401843704792F0000F81F4000106BF80F400000132013BB5E74FEA41037FEA226CB3
:4067000018BF7FEA236C21D092EA030F04D092F0000F08BF0846704790EA010F1CBF0020704712F07F4F04D1400028BF40F00040704712F100723CBF00F50000704700F09F
:40674000004343F0FE4040F4000070477FEA226216BF08467FEA23630146420206BF5FEA412390EA010F40F4800070474FF0000304E000BF10F0004348BF40425FEA000C83
:4067800008BF704743F0964301464FF000001CE050EA010208BF70474FF000030AE000BF50EA010208BF704711F0004302D5404261EB41015FEA010C02BF844601460020F9
:4067C00043F0B64308BFA3F18053A3F50003BCFA8CF2083AA3EBC25310DB01FA02FC634400FA02FCC2F12002BCF1004F20FA02F243EB020008BF20F00100704702F1200255
:4068000001FA02FCC2F1200250EA4C0021FA02F243EB020008BF20EADC7070474FF0FF0C1CEAD0521EBF1CEAD15392EA0C0F93EA0C0F6FD01A4480EA010C400218BF5FEAD3
:4068400041211ED04FF0006343EA501043EA5111A0FB01310CF00040B1F5000F3EBF490041EAD3715B0040EA010062F17F02FD2A1DD8B3F1004F40EBC25008BF20F0010019
:40688000704790F0000F0CF0004C08BF49024CEA502040EA51207F3AC2BFD2F1FF0340EAC250704740F400004FF00003013A5DDC12F1190FDCBF00F000407047C2F10002B9
:4068C000410021FA02F1C2F1200200FA02FC5FEA310040F1000053EA4C0308BF20EADC70704792F0000F00F0004C02BF400010F4000F013AF9D040EA0C0093F0000F01F0D3
:40690000004C02BF490011F4000F013BF9D041EA0C018FE70CEAD15392EA0C0F18BF93EA0C0F0AD030F0004C18BF31F0004CD8D180EA010000F00040704790F0000F17BF30
:4069400090F0004F084691F0000F91F0004F14D092EA0C0F01D142020FD193EA0C0F03D14B0218BF084608D180EA010000F0004040F0FE4040F40000704740F0FE4040F4DC
:40698000400070474FF0FF0C1CEAD0521EBF1CEAD15392EA0C0F93EA0C0F69D0A2EB030280EA010C49024FEA402037D04FF0805343EA111143EA10130CF000408B4238BF5A
:4069C0005B0042F17D024FF4000C8B4224BF5B1A40EA0C00B3EB510F24BFA3EB510340EA5C00B3EB910F24BFA3EB910340EA9C00B3EBD10F24BFA3EBD10340EADC001B01A9
:406A000018BF5FEA1C1CE0D1FD2A3FF650AF8B4240EBC25008BF20F0010070470CF0004C4CEA50207F32C2BFD2F1FF0340EAC250704740F400004FF00003013A37E792F030
:406A4000000F00F0004C02BF400010F4000F013AF9D040EA0C0093F0000F01F0004C02BF490011F4000F013BF9D041EA0C0195E70CEAD15392EA0C0F08D142027FF47DAF6A
:406A800093EA0C0F7FF470AF084676E793EA0C0F04D14B023FF44CAF08466EE730F0004C18BF31F0004CCAD130F000427FF45CAF31F000437FF43CAF5FE700BF4FF0FF3C0A
:406AC00006E000BF4FF0010C02E000BF4FF0010C4DF804CD4FEA40024FEA41037FEA226C18BF7FEA236C11D001B052EA530C18BF90EA010F58BFB2EB030088BFC81738BF82
:406B00006FEAE17018BF40F0010070477FEA226C02D15FEA402C05D17FEA236CE4D15FEA412CE1D05DF8040B704700BF844608466146FFE70FB5FFF7C9FF002848BF10F152
:406B4000000F0FBD4DF808EDFFF7F4FF0CBF012000205DF808FB00BF4DF808EDFFF7EAFF34BF012000205DF808FB00BF4DF808EDFFF7E0FF94BF012000205DF808FB00BFD6
:406B80004DF808EDFFF7D2FF94BF012000205DF808FB00BF4DF808EDFFF7C8FF34BF012000205DF808FB00BF4FEA4002B2F1FE4F0FD34FF09E03B3EB12620DD94FEA002366
:406BC00043F0004310F0004F23FA02F018BF404270474FF00000704712F1610F01D1420205D110F0004008BF6FF0004070474FF000007047014B1868704700BFDC81FF1F4C
:406C000070B50E4B0E4D0024ED1AAD101E46AC4204D056F8242090470134F8E700F052FB084D094B0024ED1AAD101E46AC4204D056F8242090470134F8E770BDD072000010
:406C4000D0720000D8720000D072000010B50023934203D0CC5CC4540133F9E710BD02440346934202D003F8011BFAE77047000000000000000000000000000000000000B0
:406C800000000000000000000000000000000000000000000000000000000000000000000000000000000000000000000000000000000000000000000000000000000000D4
:406CC0000000000000000000000000000000000000000000000000000000000000000000000000000000000000000000000000000000000000000000000000000000000094
:406D00000000000000000000000000000000000000000000000000000000000000000000000000000000000000000000000000000000000000000000000000000000000053
:406D40000000000000000000000000000000000000000000000000000000000000000000000000000000000000000000000000000000000000000000000000000000000013
:406D800000000000000000000000000000000000000000000000000000000000000000000000000000000000000000000000000000000000000000000000000000000000D3
:406DC0000000000000000000000000000000000000000000000000000000000000000000000000000000000000000000000000000000000000000000000000000000000093
:406E00000000000000000000000000000000000000000000000000000000000000000000000000000000000000000000000000000000000000000000000000000000000052
:406E40000000000000000000000000000000000000000000000000000000000000000000000000000000000000000000000000000000000000000000000000000000000012
:406E800000000000000000000000000000000000000000000000000000000000000000000000000000000000000000000000000000000000000000000000000000000000D2
:406EC0000000000000000000000000000000000000000000000000000000000000000000000000000000000000000000000000000000000000000000000000000000000092
:406F00000000000000000000000000000000000000000000000000000000000000000000000000000000000000000000000000000000000000000000000000000000000051
:406F40000000000000000000000000000000000000000000000000000000000000000000000000000000000000000000000000000000000000000000000000000000000011
:406F800000000000000000000000000000000000000000000000000000000000000000000000000000000000000000000000000000000000000000000000000000000000D1
:406FC0000000000000000000000000000000000000000000000000000000000000000000000000000000000000000000000000000000000000000000000000000000000091
:407000000000000000000000000000000000000000000000000000000000000000000000000000000000000000000000000000000000000000000000000000000000000050
:407040000000000000000000000000000000000000000000000000000000000000000000000000000000000000000000000000000000000000000000000000000000000010
:4070800000000000000000000000000000000000000000000000000000000000000000000000000000000000000000000000000000000000000000000000000000000000D0
:4070C000000000003D510040285B0040285B0040041010002C5B00401D5100402C5B004010401000004F00400C0050510040100000000140001000140140000800400140C1
:40710000000A004C014000020050014020000000000000000800880000000000010000000800880000000000020000000800880000000000030000000800880000000000BF
:407140000400000008008800000000000500000008008800000000000600000008008800000000000700000008008800000000000000000028000000F9FF1F000000000E6C
:4071800001000000000000000000000000000000020000000000000000000000000000000300000000000000000000000000000004000000000000000000000000000000C5
:4071C0000500000000000000000000000000000006000000000000000000000000000000070000000000000000000000000000000800000000000000000000000000000075
:40720000090000000000000000000000000000000A0000000000000000000000000000000B0000000000000000000000000000000C00000000000000000000000000000024
