:4000000000800020110000004D1800004D18000080B500AF024A034B1B68136001F01AFCBC760040FA46004010B5054C237833B9044B13B10448AFF300800123237010BD36
:400040009081FF1F00000000907B0000084B10B51BB108480849AFF300800848036803B910BD074B002BFBD0BDE81040184700BF00000000907B00009481FF1F0881FF1F1B
:400080000000000080B400AF054B01221A60054B1B889AB2044B1A80BD465DF8047B7047C481FF1FA25B0040C081FF1F80B400AF044B01221A70044B1B78BD465DF8047B23
:4000C000704700BFB881FF1F6264004080B500AF024804F0BFFE04F059FE80BDAD00000080B500AF03F02AF803F090F8002004F03FFA80BD80B584B000AFFFF7F1FF00F02D
:400100005DFC00F04DF8FFF7E1FF62B61D4B28229A800020002101F0BBFA0020012101F0B7FA194B1B68002B07DD3B46184600F0ADFD3B46184600F091F8144B1B68002BD8
:400140000CD0124B00221A60114B1B889BB21BB2184600F0AFFE02460E4B1A600E4B1B78DBB2002B0DD000204FF000020B4B00F063FF094B00221A7010200021054A00F061
:40018000E5FBCEE7F894FF1FAC81FF1FC481FF1FC081FF1FBC81FF1FB881FF1F0000E03F80B500AF02F0ACF804F00EF804F0E6F803F02CFC03F0D2FD03F002FD03F0A8FE74
:4001C00000201E491E4A1F4B00F028FC01201E491E4A1F4B00F022FC002000F065FC03461A461C4B9A82012000F05EFC03461A46184B9A87002000F0A1FC03469AB2154B53
:400200009A80012000F09AFC03469AB2114B9A850120002101F03CFA0120012101F038FA0120002101F080F90120012101F07CF9094804F0D5F900F0AFFE80BD1095FF1F19
:400240001495FF1F1895FF1F3895FF1F3C95FF1F4095FF1FF894FF1F85000000B0B588B004AF78607B685B78FB737B681B780B2B7DD00B2B28DC052B00F07982052B11DC39
:40028000022B00F0BF81022B05DC002B00F09880012B46D0C2E2032B00F02082042B00F04282BBE2082B00F0B780082B06DC062B00F08282072B00F0A680AFE2092B00F0E9
:4002C000B4800A2B4AD0A9E2112B00F0D580112B11DC0E2B00F0C2810E2B05DC0C2B4FD00D2B00F0B28199E20F2B00F0D781102B00F0BB8092E2142B00F05281142B06DC15
:40030000122B00F0EA80132B00F0198186E2162B00F06581162BC0F25281FE2B00F070827CE27B6803331B781B029AB27B6802331B789BB21343BB81FA7BB04913469B00AF
:400340001344DB000B44BA899A80BB89FA7B1046194600F0D9FB01F08FF860E27B6802331A78FB7B1046194601F0DEF857E27B6802331A78FB7B1046194601F08DF84EE263
:40038000FA7B9E4913469B001344DB000B441033DD78FA7B994913469B001344DB000B4410339C78FA7B0023009300230193002302930C2011462A46234600F067FA2EE25A
:4003C000FA7B8E4913469B001344DB000B44DB88DDB2FA7B894913469B001344DB000B44DB881BB21B129BB2DCB2FA7B002300930023019300230293002011462A4623466C
:4004000000F044FA0BE27B6802331A78FB7B1046194601F0F1F902E27B6802331A78FB7B1046194601F09AF9F9E1FA7B734913469B001344DB000B4410335D78FA7B6F49EF
:4004400013469B001344DB000B4410331C78FA7B002300930023019300230293092011462A46234600F012FAD9E1FB7B10201946634A00F06BFAD2E1FA7B13469B0013440D
:40048000DB0018335D4A1A447B68043310461946042207F069FBFA7B584913469B001344DB000B4418331D68FA7B544913469B001344DB000B4418335C68FA7B4F4913466A
:4004C0009B001344DB000B4420331B68FA7B10462946224600F07CFAA1E1FA7B13469B001344DB001833454A13441A1D7B68043310461946042207F037FBFA7B3F49134609
:400500009B001344DB000B4418331D68FA7B3B4913469B001344DB000B4418335C68FA7B364913469B001344DB000B4420331B68FA7B10462946224600F04AFA6FE1FA7B78
:4005400013469B001344DB0020332C4A1A447B68043310461946042207F006FBFA7B274913469B001344DB000B4418331D68FA7B224913469B001344DB000B4418335C68B3
:40058000FA7B1E4913469B001344DB000B4420331B68FA7B10462946224600F019FA3EE1FA7B13469B001344DB001833134A1344FA7B142011461A4600F0C8F92FE1FA7B20
:4005C00013469B001344DB0018330C4A13440433FA7B152011461A4600F0B8F91FE1FA7B13469B001344DB002033044A1344FA7B162011461A4600F0A9F910E1F894FF1F82
:40060000BC81FF1FFA7B884913469B001344DB000B449B88DDB2FA7B834913469B001344DB000B449B881BB21B129BB2DCB2FA7B0023009300230193002302930220114631
:400640002A46234600F022F9E9E07B6802331A78FB7B1046194601F01BF8E0E07B6802331B78FB7297F90B30002B05DAFB7B0120194601F045F804E0FB7B0020194601F059
:400680003FF897F90B30002BB8BF5B42DBB25AB2FB7B1046194600F071FFC0E0FA7B624913469B001344DB000B449D78FA7B5E4913469B001344DB000B4408335B88DCB24E
:4006C000FA7B0023009300230193002302930F2011462A46234600F0D9F8A0E0FA7B7B6803331B781B0299B27B6802331B789BB20B439BB298B24C4913469B001344DB009F
:400700000B44103302469A80FA7B474913469B001344DB000B4410339B88FA7B1046194600F0A8F97BE0FA7B3F4913469B001344DB000B4410339B88DDB2FA7B3A49134617
:400740009B001344DB000B4410339B881B0A9BB2DCB2FA7B002300930023019300230293042011462A46234600F090F857E0FA7B7B6803331B781B0299B27B6802331B7826
:400780009BB20B439BB298B2274913469B001344DB000B4410330246DA80FA7B224913469B001344DB000B441033DB88FA7B1046194600F08FF932E0FA7B1B4913469B00C1
:4007C0001344DB000B441033DB88DDB2FA7B164913469B001344DB000B441033DB881B0A9BB2DCB2FA7B002300930023019300230293062011462A46234600F047F80EE047
:4008000043230093762301933123029330230393FE2070215422412300F068F800BF012318461037BD46B0BDF894FF1F80B586B000AF0346FB710B46BB801346BB71002342
:400840003B72FB797B727023BB720023FB7200233B7300237B730023BB730023FB7308233B74FF237B61BB88DBB23B73BB881B0A9BB2DBB27B73BB79BB7307F1080318460D
:40088000FF2100F035FA1837BD4680BD90B587B000AF0446084611461A462346FB710346BB710B467B7113463B71FB793B72BB797B727023BB727B79FB723B793B7397F810
:4008C00028307B7397F82C30BB7397F83030FB7308233B74FF237B6107F1080318460F2100F006FA1C37BD4690BD00BF90B587B000AF0446084611461A462346FB710346E9
:40090000BB710B467B7113463B71FB793B72BB797B727B79BB723B79FB7297F828303B7397F82C307B7397F83030BB7397F83430FB7308233B74FF237B6107F108031846A0
:40094000FF2100F0D5F91C37BD4690BD80B588B000AF03463A60FB710B46BB7107F1100300221A60043300221A60043300221A60043300221A600433FB793B74BB797B7471
:400980007023BB7408233B76FF23FB6107F10C0318463968042207F0E7F83B7B3B757B7B7B75BB7BBB75FB7BFB7507F110031846FF2100F09DF92037BD4680BD80B500AFF7
:4009C00002F0DAF9052002F073F902F089FA80BD80B586B000AFB9607A603B600346FB73FB7B002B02D10023FB7501E00023FB75FB7D1846B96800F0F7F8FB7D0433DBB211
:400A00001846796800F0F0F8FB7D0833DBB21846396800F0E9F81837BD4680BD80B586B000AFB9607A603B600346FB73FB7B002B02D10023FB7501E00023FB75FB7D184650
:400A400000F0F6F80246BB681A60FB7D0433DBB2184600F0EDF802467B681A60FB7D0833DBB2184600F0E4F802463B681A601837BD4680BD80B582B000AF03460A46FB7126
:400A80001346BB80FB79002B05D1BB880E20194600F06AF804E0BB880E20194600F064F80837BD4680BD00BF80B582B000AF0346FB71FB79002B04D10E2000F075F80346BA
:400AC00003E00E2000F070F8034618460837BD4680BD00BF80B582B000AF03460A46FB711346BB80FB79002B05D1BB880C20194600F03AF804E0BB880C20194600F034F8C6
:400B00000837BD4680BD00BF80B582B000AF03460A46FB711346BB80FB79002B05D1BB881020194600F020F804E0BB881020194600F01AF80837BD4680BD00BF80B582B01C
:400B400000AF0346FB71FB79002B04D1102000F02BF8034603E0102000F026F8034618460837BD4680BD00BF80B582B000AF03460A46FB711346BB80BB88DAB2FB799BB2CC
:400B80001046194602F0FEF8BB881B0A9BB2DAB2FB799BB201339BB21046194602F0F2F80837BD4680BD00BF90B585B000AF0346FB71FB799BB201339BB2184602F072F96B
:400BC0000346FB81FB891B029CB2FB799BB2184602F068F903469BB22344FB81FB8918461437BD4690BD00BF80B584B000AF03463960FB713B68BB600023FB7312E0FB7BFD
:400C000007F11002134413F8081CFB799AB2FB7B9BB213449BB20846194602F0B3F8FB7B0133FB73FB7B032BE9D91037BD4680BD90B587B000AF0346FB710023FB7513E048
:400C4000FC7DFB799AB2FB7D9BB213449BB2184602F028F903461A4607F11803234403F8082CFB7D0133FB75FB7D032BE8D907F10C0207F1100310461946042206F074FF37
:400C8000FB6818461C37BD4690BD00BF90B486B000AF7860134B1B68134A1B01134407F108040FCB84E80F000E4B1B68322B03D10C4B00221A6004E00A4B1B680133094AC3
:400CC00013600A4B1B68013B084A13607B681C4607F108030FCB84E80F0078681837BD4690BC7047B081FF1FD891FF1FAC81FF1F80B586B000AF786039603B68FB60002309
:400D00003B7400237B740023FB747B687B617B681B7ABB7407F10C03184602F021FD01235BB218461837BD4680BD00BFB0B588B000AFF860B9607A604FF00003FB61474BE1
:400D40001B685B42F86819464FF4FA7200F090F8B861424B1A681346DB079B1A5B00F86819464FF4FA7200F083F87861F8686FF04A014FF4FA7200F07BF83861384B19688F
:400D8000FB689B00BA6813441B680846194606F0A9FB03461C46BB699B00BA6813441B681846194606F0A0FB03462046194606F09BFB034619467B699B00BA6813441B6881
:400DC0000846194606F08EFB03461A46244B1A60234B1B6818464FF0000106F02BFE0346002B08D03B699B00BA6813441B6883F00043FB6105E03B699B00BA6813441B68CE
:400E0000FB61FA68174B83FB02139911D317CB1A4FF47A7101FB03F3D31A002B04D1124B1B680133104A13600F4B1B689B007A68D4180D4B1B689B007A6813441D68F869BD
:400E40000A4906F00DFD03462846194606F04CFB034623602037BD46B0BD00BF0C81FF1F9091FF1FD34D62101081FF1F0000FA4380B487B000AFF860B9607A60FA68BB6828
:400E800013447B617B69002B09DB7B697A6893FBF2F2796801FB02F29B1A7B6103E07A697B6813447B617B6918461C37BD465DF8047B704790B585B000AF0346FB80002363
:400EC000FB602F4B1C68B7F90630184603F0E8FC02462C4B43F82420294B1B6818462949294AFFF723FF264B1B68184601214FF4FA72FFF7BDFF0246214B1A60234B1B68FA
:400F00000A2B36DD224B4FF000021A600123FB6010E01D4AFB6852F823201D4B1B681046194606F0E1FA03461A46194B1A60FB680133FB60FB68092BEBDD154B1B681846F1
:400F4000144906F08DFC03461A46114B1A600F4B00221A600023FB6008E00B4AFB684FF0000142F82310FB680133FB60FB680A2BF3DD074B1B6818461437BD4690BD00BF6E
:400F80009491FF1FC089FF1FC881FF1F1081FF1F9891FF1F0000104180B500AF03F06EFB03F034FE03F002FB80BD00BF80B586B000AF0346FB7100237B6101F0B9F90020F7
:400FC00001F0C6F901F0ECF90346184601F03CFA03467B827B8AC3F59C5308339BB23B82B7F91020B7F912301046194600F05AFFF860F86800F08CFF03467B617B690B4A05
:4010000082FB03129210DB17D31A7B81FA79084913469B001344DB000B447A89DA807B891BB218461837BD4680BD00BF67666666F894FF1F00000000B0B594B000AF0146AC
:40104000C7E900230B46FB73FA7BC14913469B001344DB000B449B88FB87FB7B1846FFF7A5FF0346184605F0A1FE02460B46C7E90C23FB8F184605F099FE02460B461046C1
:401080001946D7E90C2305F043FD02460B46C7E90A23FA7BAE4913469B001344DB000B4410339B88184605F081FE02460B4610461946D7E90C2306F06FF90346002B00F01F
:4010C0005381FB8F5A3B184605F070FE02460B4610461946D7E90C2306F040F90346002B23D0FB8F5A33184605F060FE02460B4610461946D7E90C2306F04EF90346002BB3
:4011000013D0D7E90A01D7E9002305F0B5FE02460B46104619468F4BD3E9002305F0FAFC02460B468B49C1E900238B4BD3E90023D7E90A0105F0ECFC02460B46104619469F
:40114000D7E9002305F0C2FF02460B46C7E90823BC6AFB6A23F00045204629464FF000027E4B05F0B3FF02460B46C7E90623D7E90A014FF000024FF0000306F0EFF8034613
:40118000002B3AD0FA7B724913469B001344DB000B4418331B68184605F01AFE02460B4610461946D7E9062305F0B4FC02460B4614461D46D7E90601D7E9062305F05CFEEB
:4011C00002460B4610461946D7E9062305F054FE02460B46104619464FF000024FF0804305F074FF02460B462046294605F092FC02460B46C7E9102337E0FA7B5449134689
:401200009B001344DB000B4418331B68184605F0DFFD04460D46D7E906014BA3D3E9002305F02AFE02460B462046294605F072FC02460B4614461D46D7E90601D7E9062370
:4012400005F01AFE02460B46104619464FF00002434B05F03BFF02460B462046294605F059FC02460B46C7E91023D7E91001D7E90A2305F001FE02460B4614461D46FA7B64
:40128000334913469B001344DB000B4418335B68184605F09DFD2F4BD3E9002305F0ECFD02460B462046294605F034FC02460B4614461D46FA7B264913469B001344DB0018
:4012C0000B4420331B68184605F082FD02460B4610461946D7E9082305F0CEFD02460B462046294605F016FC02460B46C7E91223D7E912014FF00002184B06F04DF8034610
:40130000002B04D04FF00002144BC7E91223D7E912014FF00002134B06F020F80346002B04D04FF000020F4BC7E91223D7E9120106F03CF80346DBB2FA7B5BB210461946D7
:4013400000F052F81FE000BF7B14AE47E17A843FF894FF1FA091FF1FA891FF1F0000594000003440000059C0FB7B0120194600F0DBF8FB7B6420194600F08EF8FB7B00203F
:40138000194600F085F9D7E90C0106F037F803469CB2D7E9120106F009F80346DBB2FA7B5BB2104621461A46FFF740FA0C4BD3E900231046194606F041F803467B61FA7BB4
:4013C00007F11403172011461A46FFF7BFFA0549D7E90A23C1E900235037BD46B0BD00BFA091FF1FA891FF1F80B584B000AF03460A46FB711346BB7197F90630002BB8BFD3
:401400005B42FB7397F9062097F90F309A421DD0FA79184913469B001344DB000B449B881BB2F92B0BDCFB790120194600F068F997F90F20FB791046194600F09FF8FA7BE6
:40144000FB791046194600F027F810E0FB790020194600F055F9FB790020194600F01CF897F90F20FB791046194600F087F81037BD4680BDF894FF1F80B400AF05494FF024
:4014800000024FF00003C1E90023BD465DF8047B704700BFA091FF1F80B584B000AF03460A46FB711346BB71FB79022B2BD9BB79002B02D0012B13D025E002F043FC034679
:4014C000FB73FB7B164AA2FB03235B09DBB2FA7902FB03F3BB73BB7B184602F0FBFB12E002F0D8FD0346FB73FB7B0D4AA2FB03235B09DBB2FA7902FB03F3BB73BB7B1846CB
:4015000002F090FD00BFBA79064913469B001344DB000B441033FA799A701037BD4680BD1F85EB51F894FF1F80B582B000AF03460A46FB711346BB71BB79002B02D0012BA8
:4015400005D009E0FB79184602F006FE04E0FB79184602F0E7FD00BFBA79074913469B001344DB000B441033FA79DA7001235BB218460837BD4680BDF894FF1F80B586B07F
:4015800000AF03460A46FB711346BB710023FB820023BB8297F90730002BB8BF5B42184606F056F803463B613869344906F058F90346FB60F868324906F09EF8034618464E
:4015C000304905F091FF0346184606F081FA0346FB72BB79002B13D102F0C4FE0346FB82FB7AFA8A02FB03F3274A82FB03125211DB17D31ABB82BB8A184602F07BFE18E0EE
:40160000BB79022B13D102F087FF0346FB82FB7AFA8A02FB03F31C4A82FB03125211DB17D31ABB82BB8A184602F03EFF01E000231FE0BA79F879154913469B001344DB00C7
:401640000B44083302465A71BA79104913469B001344DB000B440833FA8ADA80BA790B4913469B001344DB000B440833BA8A5A80012318461837BD4680BD00BF0000C84284
:4016800000005C420000C8411F85EB51F894FF1F80B584B000AF03460A46FB711346BB7102F086FD03467B73BB79002B02D10123BB7301E00223BB73BA79104913469B0073
:4016C0001344DB000B44FA799A70FB79002B07D1BB7BDB43DAB27B7B1340DBB2FB7303E07A7BBB7B1343FB73FB7B184602F050FD012318461037BD4680BD00BFF894FF1FFA
:4017000080B582B000AF03460A46FB711346BB71FB79002B02D0FB79012B17D1BA790E4913469B001344DB000B440833FA795A70BB79002B04D1FB79184602F0F9FE03E0C7
:40174000FB79184602F004FF012300E0002318460837BD4680BD00BFF894FF1F80B584B000AF03460A46FB711346BB71FB79642B01D96423FB71BB79002B02D0012B14D082
:4017800027E002F011FA0346BB81FB799BB2BA891749A1FB0212520992B202FB03F3FB81FB89184602F0C8F913E002F0A5FB0346BB81FB799BB2BA890D49A1FB021252097A
:4017C00092B202FB03F3FB81FB89184602F05CFB00BFBA79FB89D8B2064913469B001344DB000B44103302461A701037BD4680BD1F85EB51F894FF1F80B582B000AF0346C2
:401800000A46FB711346BB71BB79002B02D0012B05D009E0FB79184602F066FC04E0FB79184602F043FC00BFBA79074913469B001344DB000B441033FA795A7001235BB2D7
:4018400018460837BD4680BDF894FF1F80B400AFFEE700BF80B586B000AF224B7B61224B3B61204B7B6135E03B691B68FB603B695B68BB603B699B683B6000237B600CE062
:40188000FB681A68BB681A60BB680433BB60FB680433FB607B6804337B607A683B689A42EED13B69DB683B6000237B6008E0BB6800221A60BB680433BB607B6804337B6096
:4018C0007A683B689A42F2D13B6910333B617B69013B7B617B69002BC6D106F01FF9FEF709FCFEE701000000C07D000080B582B000AF174B174A1A60174A174B1B6843F4A4
:401900000073136000237B600FE07B68032B04D8124A7B6852F8233000E0114B11497A6841F822307B6801337B607B682F2BECD90D4B1B78DAB20D4B1A700D4B094A1A6096
:4019400000F0CEF90B4B00221A600837BD4680BD0CED00E00004FA0514ED00E0000000004D1800000080FF1FBC7600400481FF1F08ED00E00081FF1F80B582B000AF786008
:401980003960786800213A6806F0F9F80837BD4680BD00BF80B584B000AFF860B9607A60F868B9687A6806F0DFF81037BD4680BD80B487B000AF7860396000233B6100233F
:4019C0007B6127E07B699B007A6813441B68BB60BB68FB73BB6823F0FF03BB6014E03B695B003A6813441B781A46BB68134419463B695B003A6813445B780B703B690133F4
:401A00003B61FB7B013BFB73FB7B002BE7D17B6901337B617B69252BD4D91C37BD465DF8047B704780B582B000AF3F4B00221A803E4B50221A703E4B77221A803D4B18227C
:401A40001A703D4B43F67F621A803C4B18221A703B483C490822FFF79DFF3B4B06221A703A4B52221A703A4B3A4A1278D2B21A70394B00221A80394B4FF4E2621A80384BCD
:401A800041F251221A800023FB7019237B6014E0FB785B00DAB2334B1B78DBB203F00103DBB21343DBB203F00303FB704FF4F07001F0E2F87B68013B7B607B68002B02D042
:401AC000FB78032BE4D1244B07221A70264B00221A70264B48221A701F4B00221A70244B00221A70234B02221A70234B04221A70224A224B1B78DBB243F00703DBB213703B
:401B00001F4A1F4B1B78DBB243F00303DBB213701C4A1C4B1B78DBB263F07F03DBB213700837BD4680BD00BF80400040824000408440004086400040884000408A4000403B
:401B400000410040D40700480043004000420040A14600400F01004904400040224200402042004025420040064000400840004009400040014000400B400040A243004003
:401B8000A1430040A043004080B483B000AF244B1B78FB71234B1B78BB71234B1B787B71224AFB7903F00703DBB21370204AFB791B09DBB213701B4ABB7943F00303DBB2E2
:401BC0001370194A7B7943F00303DBB21370194BA0221A70184B10221A70184B80221A70174B80221A70174B01221A70164B20221A70164B01221A70154B20221A70154B00
:401C000020221A70084A7B791370064ABB791370114B44221A700C37BD465DF8047B7047CF010049F8460040F94600406E5800406F5800403D5100405D510040095900406A
:401C4000305A0040385A0040005B0040285B00402B5B0040585B00407658004080B483B000AF0346FB71FB79012B0ED8FB79094A52F82330FA79074951F822201178FA79A4
:401C80000548825C0A43D2B21A700C37BD465DF8047B7047987B0000A07B000080B483B000AF0346FB71FB79012B10D8FB790A4A52F82330FA79084951F822201178FA799C
:401CC0000648825CD243D2B20A40D2B21A700C37BD465DF8047B7047987B0000A07B000080B586B000AF72B60023FB7513E0FA7D13465B0013445B004F4A13443B613B69F3
:401D00001A683B699B889BB210461946FFF734FEFB7D0133FB75FB7D052BE8D90023FB751CE0FA7D13469B0013445B00434A1344FB60FB681B68BB60FB685B687B60FB685B
:401D40001A7A5B7A1B0213437B807B88B86879681A46FFF71FFEFB7D0133FB75FB7D002BDFD04FF090403649FFF722FE354B0A221A70354A344B1B78DBB243F00203DBB2EA
:401D80001370324A314B1B78DBB243F00203DBB213702F4A2E4B1B78DBB243F04003DBB213702C4A2B4B1B78DBB243F01003DBB21370294829490822FFF7ECFD2848294978
:401DC0000822FFF7E7FD284828490A22FFF7E2FD274828490A22FFF7DDFD274827490822FFF7D8FD264827490822FFF7D3FD264826490822FFF7CEFD254826490822FFF7BB
:401E0000C9FD254A244B1B78DBB243F00803DBB21370224B01221A70FFF704FE1F4B81221A70FFF7B1FE1E4809490E22FFF7B2FD1837BD4680BD00BFA47B0000C87B000005
:401E400098000048835800400350014013500140A0430040C2430040025100408C070048C251004094070048F05100409C07004810510040A807004832510040B407004859
:401E800042510040BC07004852510040C407004862510040CC0700482243004000480040B043004080B485B000AF03460A46FB801346BB80B7F9043042F2107202FB03F393
:401EC000BB60B7F90630002B0CDAFB885B429BB2FB81FB895B089BB2FB81FB895B429BB2FB8103E0FB885B089BB2FB81B7F90E30BA681344BB60B7F90630BA6892FBF3F3BE
:401F0000BB60BB6818461437BD465DF8047B7047B0B586B000AF7860786804F037FF02460B461046194603F0ABFA02460B461046194605F083FA03467B61786904F048FF19
:401F400002460B461046194635A3D3E9002304F093FF02460B461046194633A3D3E9002304F0D8FD02460B4614461D46786904F02FFF02460B46104619464FF00002304BA7
:401F800003F0FEFA02460B461046194628A3D3E9002304F071FF02460B462046294604F0B9FD02460B461046194605F047FA03463B61386904F00CFF02460B464FF00000E1
:401FC000204905F083F802460B46104619461AA3D3E9002304F09CFD02460B46104619464FF00002184B04F047FF02460B46104619464FF00002154B04F08CFD02460B4660
:402000001046194605F01AFA0346184605F03AFD0346FB81FB891BB218461837BD46B0BDAA210B3F9AA4303F02E33AF9BD9C4C3F59DD21006E5E883E666666666612714074
:40204000000008400000F03F000059400000E03F80B582B002AF414B01221A70404B00221A70102002F03AFD102000F0D9FD1D20012100F057FE3B4B04221A703A4B0022D9
:402080001A703A4B00221A70394A394B1B78DBB243F01803DBB21370364B00221A70364B00221A70354B00221A70354B0A221A70344B00221A70344B00221A70334B5B22D3
:4020C0001A70334B5E221A70324B00221A70324B14221A7001230093022048F6F0514FF40042102300F0D6FB02230093002049F2DA014FF40042102300F0CCFB0323009381
:40210000002049F2DA014FF40042102300F0C2FB04230093002049F2DA014FF40042102300F0B8FB1D4A0D4B1B78DBB2013B1C499B000B449B7813701A4A084B1B78DBB2E2
:40214000013B174931F823301380044B1B78DBB2184600F099F9BD4680BD00BF1481FF1FB091FF1F96580040975800409E580040075B004093580040885B0040895B0040AD
:4021800080580040815800408358004088580040895800408D580040014E00400E4E0040B491FF1F0C4E004080B582B000AF00F06BFD0346FB71444B1B78BB71434A434BB9
:4021C0001B78DBB243F00103DBB213703F4A3F4B1B78DBB243F01003DBB213703C4A3C4B1B78DBB243F00103DBB21370384A384B1B78DBB243F01003DBB21370354A354B01
:402200001B78DBB243F00203DBB21370324A324B1B78DBB243F00203DBB213702F4A2F4B1B78DBB243F00303DBB21370032000F03FFD284A274B1B78DBB223F00203DBB281
:402240001370254A244B1B78DBB223F00203DBB21370234A224B1B78DBB243F00603DBB21370204B7A221A701F4A1F4B1B78DBB243F00103DBB213701C4A1C4B1B78DBB2B7
:4022800043F00103DBB21370194A194B1B78DBB243F00103DBB21370164A164B1B78DBB243F00103DBB21370134B4FF000521A60124B4FF000521A60FB79184600F0E8FC0A
:4022C0000837BD4680BD00BF1481FF1FAA430040BA430040F8460040F9460040915800407758004082580040A1430040B1430040A2430040B243004080E200E000E100E07F
:4023000080B500AF084B1B78002B09D1074B1B78DBB2002B01D1FFF79BFE034B01221A70FFF742FF80BD00BFB291FF1FB391FF1F80B400AF054A054B1B78DBB243F0010306
:40234000DBB21370BD465DF8047B7047004E004080B485B000AF0346FB710E4B1B78DBB2002B03D00C4B1B78FB7305E00B4B1B78DBB203F00103FB73FB7B012B02D0FB79ED
:40238000002BEAD0FB7B18461437BD465DF8047B704700BFB191FF1FB091FF1F014E004080B483B000AF224B1B78DBB203F00303FB70FB78012B0BD81E4B1B889BB27B60C1
:4023C0007B681B041C4A128892B213437B6020E0FB78022B12D1174B1B889BB27B607B681B04154A1278D2B213437B60134B1B78DBB21B027A6813437B600AE00E4B1B8882
:402400009BB27B600B4B1B889BB21B047A6813437B600B4B1B78DBB2002B02D0094B00221A707B6818460C37BD465DF8047B7047144E0040124E0040104E0040114E0040F8
:40244000B191FF1FB091FF1F80B485B000AF78600B4B1B687A68D31A7B607B684FF47A7202FB03F2074B1B6892FBF3F3FB81FB891BB218461437BD465DF8047B704700BF1B
:402480004895FF1F4C95FF1F80B582B000AF0346FB71C34B00221A70FB79012B66D1C14B30221A70C04B04221A70C04B06221A70BF4B00221A70BF4B00221A70BE4B3F2290
:4024C0001A70BE4B00221A70BD4B00221A70BD4B00221A70BC4B01221A70BC4B50221A70BB4B0A221A70BB4B2C221A70BA4B00221A70BA4B44221A70B94B48221A70B94B42
:4025000001221A70B84B02221A70B84B12221A70B74B28221A70B74BEB221A70522000F06FFAB54B58221A70B44B00221A70B44B01221A70B34B01221A70B34B00221A7092
:40254000B24B0A221A70002002F00AFBB04B43F233321A600120012102F004FA0820012100F0A2FA1D20AB4900F0B4FBFB79022B66D18C4B38221A708B4B04221A708B4BBA
:4025800006221A708A4B00221A708A4B00221A70894B3F221A70894B00221A70884B00221A70884B00221A70874B01221A70874B50221A70864B27221A70864B2C221A7090
:4025C000854B00221A70854B55221A70844B5A221A70844B05221A70834B01221A70834B11221A70824B19221A70824B97221A70442000F005FA804B58221A707F4B002283
:402600001A707F4B05221A707E4B02221A707E4B00221A707D4B00221A70002002F0A0FA7B4B4FF47A421A600820012102F09AF92520012100F038FA1D20774900F04AFBC0
:40264000FB79032B66D1574B38221A70564B04221A70564B06221A70554B00221A70554B00221A70544B3F221A70544B00221A70534B00221A70534B00221A70524B012296
:402680001A70524B50221A70514B27221A70514B2C221A70504B00221A70504B55221A704F4B5A221A704F4B05221A704E4B01221A704E4B11221A704D4B19221A704D4BB5
:4026C00097221A70442000F09BF94B4B58221A704A4B00221A704A4B05221A70494B02221A70494B00221A70484B00221A70002002F036FA464B4FF47A421A600820012137
:4027000002F030F92520012100F0CEF91D20434900F0E0FAFB79042B40F0A980214B38221A70214B04221A70204B06221A70204B00221A701F4B00221A701F4B3F221A70C6
:402740001E4B00221A701E4B00221A701D4B00221A701D4B01221A701C4B50221A701C4B27221A701B4B2C221A701B4B00221A701A4B55221A701A4B5A221A70194B0522BD
:402780001A70194B01221A70184B11221A70184B19221A70174B97221A70442040E000BFB191FF1F004E0040024E0040034E0040044E0040054E0040064E0040084E0040F0
:4027C000094E00400A4E0040144E0040845800408558004086580040875800408A5800408B5800408C5800408E5800408F5800409058004091580040945800409558004032
:402800009A5800409B5800409C5800409D5800404C95FF1F792A0000852A0000912A000000F0EEF8134B58221A70134B00221A70124B05221A70124B02221A70114B0022E5
:402840001A70114B00221A70002002F089F90F4B4FF47A421A600820012102F083F82520012100F021F91D20094900F033FA0837BD4680BD94580040955800409A58004081
:402880009B5800409C5800409D5800404C95FF1F9D2A000090B587B000AF0446084611461A462346FB710346BB800B467B801346BB7197F82830002B00F08A8097F828301F
:4028C000042B00F28580FB79013B092B4AD801A252F823F0FD2800006529000065290000FD28000065290000652900001729000031290000652900004B290000BB790F2B20
:4029000004D9364B1B78DBB2FB752EE0344B1B78DBB2FB7529E0BB790F2B04D9314B1B78DBB2FB7521E0304B1B78DBB2FB751CE0BB790F2B04D92D4B1B78DBB2FB7514E0DD
:402940002B4B1B78DBB2FB750FE0BB790F2B04D9284B1B78DBB2FB7507E0274B1B78DBB2FB7502E00023FB7500BFBA8897F917305B0113443B617B883A6902FB03F3FB609B
:40298000FB68DB0BBB82BB790D2B11D8BB8ABA79C2F10E021341BB8297F82830013BBA790132D1B2154A9B0013440A469A7007E097F82830013B114A9B0013440F229A7027
:4029C00097F82830013B0D49BA8A21F8232002E0002000F061F91C37BD4690BD180100491C010049190100491D0100491A0100491E0100491B0100491F010049B491FF1F40
:402A000080B584B000AF0346FB7100F03DF90346FB73164A154B1B78DBB243F00303DBB21370134A124B1B78DBB243F00303DBB21370104AFB791370032000F039F90B4AB5
:402A40000A4B1B78DBB223F00303DBB21370084A074B1B78DBB223F00303DBB21370FB7B184600F015F91037BD4680BDF8460040F94600409258004080B400AFBD465DF810
:402A8000047B704780B400AFBD465DF8047B704780B400AFBD465DF8047B704780B400AFBD465DF8047B704780B584B000AF03460A46FB8013467B7100F0CCF80346FB73B1
:402AC00000F0A2F80346BB81FA88BB899A4200F08780454B1B78DBB203F00103FB72FB7B002B20D1BB89002B02D0FB88002B1AD1BB89002B0BD13D4AFB8813803C4A3C4BB9
:402B00001B78DBB223F04003DBB2137068E0384A374B1B78DBB243F04003DBB21370334AFB8813805CE0FB7A002B33D0314B00221A70314B01221A70304B00221A70304AB9
:402B40002F4B1B78DBB203F07F03DBB21370284B1B78DBB203F00803002B02D0FB88002B18D1284ABB891380224B07221A7000BF204B1B78DBB203F00103002BF8D11A4A0F
:402B8000194B1B78DBB223F00103DBB21370194B00221A70144B1B78DBB203F00103002B13D0184AFB881380124A7B79002B01D0032300E00123137000BF0E4B1B78DBB22D
:402BC00003F00103002BF8D10AE0084AFB8813800549054B1B78DAB2FB7A1343DBB20B701037BD4680BD00BFA14300400041004002410040014000401440004010400040F5
:402C0000084000400240004080B400AF034B1B889BB21846BD465DF8047B70470041004080B483B000AF0346FB71094B084A1278D2B2D1B2FA7922F00702D2B20A43D2B217
:402C4000D2B21A700C37BD465DF8047B704700BF0241004080B400AF054B1B78DBB203F00703DBB21846BD465DF8047B704700BF02410040000000000230800803D000BFDC
:402C800001380046FCD17047EFF3108072B6704780F31088704700BF80B483B000AF0346FB7101BE0C37BD465DF8047B704700BF80B582B000AF0346FB80FB88044A1278F0
:402CC00002FB03F31846FFF7D7FF0837BD4680BD2081FF1F80B584B000AF03463960FB710F4B1B68FB60FB791F2B02D90020FFF7D3FFFB7903F01F0310339B00FA6813443A
:402D00001B68BB60FB7903F01F0310339B00FA6813443A681A60BB6818461037BD4680BD08ED00E080B582B000AF03460A46FB711346BB71BB79072B02D90020FFF7ACFF3A
:402D4000FB791F2B02D90020FFF7A6FFFB7903F01F0303F1604303F56443BA795201D2B21A700837BD4680BD80B500AF02F036F902F046F980BD00BF80B500AFFFF7F4FF2E
:402D800080BD00BF80B584B000AF03460A46FB711346BB8002F0A2F9BB88B3F5006F75D2BB881B097B817B891A461203D31A1B019AB2BB8813443B8102F0C6FA0346002B8B
:402DC00061D13A89FB1D402011461A46012302F0D3F9F860FB68072B4CD14FF0FF33FB6000BF2E4B1B78DBB203F00203002BF8D02A4B1B78DBB203F00203002B08D0274BB2
:402E00001B78DBB29B08DBB2002B01D10023FB60FB68002B2AD1224B1A78214B5B787989402002F013FA0346072B1BD14FF0FF33FB6000BF194B1B78DBB203F00203002B06
:402E4000F8D0164B1B78DBB203F00203002B17D0124B1B78DBB29B08DBB2002B10D10023FB600DE04FF0FF33FB6009E04FF0FF33FB6005E0FB68012B02D04FF0FF33FB6048
:402E800002F096FA04E00423FB6001E00123FB60FB6818461037BD4680BD00BF224700405C95FF1F80B584B000AF0346FB80FFF7EBFE0346FB7302F0E9F8FB8803F180438C
:402EC00003F500431B78BB7302F0F8F8FB7B1846FFF7DEFEBB7B18461037BD4680BD00BF80B500AF02F07AF80346DBB2184680BD80B582B000AF0023FB710023BB7112E0D5
:402F0000BA7913465B0013449B00174A1344184600F07CFB0346002B02D00123FB7105E0BB790133BB71BB79072BE9D9FB79002B15D10023BB710FE0BB791B010B4A134405
:402F4000184600F0EDFA0346002B02D00123FB7105E0BB790133BB71BB790F2BECD9FB7918460837BD4680BDD47B0000347C000080B582B000AF4FF470537B600123FB70C4
:402F80000123BB70FFF780FE03467B703D4A3D4B1B78DBB243F00103DBB213703A4A3A4B1B78DBB243F00103DBB213707B781846FFF76EFE354A354B1B78DBB223F001034B
:402FC000DBB2137002E07B68013B7B607B68002B06D02E4B1B78DBB203F00103002BF2D17B68002B49D02A4B4FF480321A6010202849FFF76FFE10200221FFF793FE052075
:4030000000F044F90346002B1CD1002000F060F90346002B16D1082005210322002300F08DF90346002B0DD1002000F0F1F90346002B07D1002000F021FA0346002B01D129
:403040000023BB70BB78002B17D1FFF751FF0346002B12D141F2012000F046FA0346002B0BD10A4B00221A70084B1B78DBB203F00103002B01D10023FB70FB781846083745
:40308000BD4680BDA6430040B643004010A0004080E100E03137000080B582B000AF4FF490637B600123FB70FFF7EEFD0346BB701D4A1D4B1B78DBB243F00103DBB2137094
:4030C0001A4A1A4B1B78DBB243F00103DBB21370BB781846FFF7DCFD154B41F201221A6000F094F8134B4FF480321A60124A124B1B6843F00103136002E07B68013B7B6005
:403100007B68002B05D00C4B1B6803F00103002BF3D07B68002B01D00023FB70FB7818460837BD4680BD00BFA6430040B643004000A0004000E100E010A0004080B582B017
:4031400000AF0023FB710B4B1B78002B03D1FFF70FFF0346FB71FB79002B06D1054B01221A70FFF799FF0346FB71FB7918460837BD4680BDC491FF1F80B582B000AF4FF49D
:4031800070537B600123FB701C4A1C4B1B6823F00103136002E07B68013B7B607B68002B05D0164B1B6803F00103002BF3D17B68002B1DD00023FB70114B4FF480321A602B
:4031C000FFF762FD0346BB700E4A0E4B1B78DBB223F00103DBB213700B4A0B4B1B78DBB223F00103DBB21370BB781846FFF750FDFB7818460837BD4680BD00BF10A0004049
:4032000080E100E0A6430040B643004080B483B000AF0123FB710C4A0B4B1B78DBB243F00103DBB21370084B1B78DBB203F00103002B01D00023FB71FB7918460C37BD4625
:403240005DF8047B704700BF04A0004080B483B000AF0123FB710C4A0B4B1B78DBB223F00103DBB21370084B1B78DBB203F00103002B01D10023FB71FB7918460C37BD4679
:403280005DF8047B704700BF04A0004080B485B000AF0346FB800223FB73FB881BB2002B0CDB0123FB73094AFB881380074B1B889BB2FA889A4201D10023FB73FB7B18463D
:4032C0001437BD465DF8047B704700BF16A0004080B485B000AF0346FB710123FB73FB79002B11D1144A144B5B78DBB223F01003DBB25370104B5B78DBB203F01003002BE1
:4033000013D10023FB7310E00B4A0B4B5B78DBB243F01003DBB25370074B5B78DBB203F01003002B01D00023FB73FB7B18461437BD465DF8047B704714A0004090B484B029
:4033400000AF0446084611461A462346FB710346BB710B467B7113463B710223FB73FB79012B4CD9FB790F2B49D8BB79012B02D9BB79072B05D93B79002B40D1BB79012BCD
:403380003DD17B79032B3AD87A79FB799A4236D87A79BB799A4232D80123FB731B4B5B78BB73BB7B23F00F03BB73BA7BFB791343BB73164ABB7B5370144B5B78DBB2BA7B71
:4033C0009A421CD10023BB733B79002B01D00223BB73BB795B01DAB27B799B00DBB21343DAB2BB7B1343BB73084ABB7B1370074B1B78DBB2BA7B9A4201D10023FB73FB7B75
:4034000018461037BD4690BC704700BF14A0004080B485B000AF0346FB710123FB73FB79002B11D1144A144B1B78DBB223F01003DBB21370104B1B78DBB203F01003002B8F
:4034400013D10023FB7310E00B4A0B4B1B78DBB243F01003DBB21370074B1B78DBB203F01003002B01D00023FB73FB7B18461437BD465DF8047B704714A0004080B485B0B7
:4034800000AF0346FB710123FB73FB79002B11D1144A144B1B78DBB223F00103DBB21370104B1B78DBB203F00103002B13D10023FB7310E00B4A0B4B1B78DBB243F001038D
:4034C000DBB21370074B1B78DBB203F00103002B01D00023FB73FB7B18461437BD465DF8047B704714A0004080B485B000AF0346FB800123FB73094AFB881380074B1B8859
:403500009BB2FA889A4201D10023FB73FB7B18461437BD465DF8047B704700BF04A0004080B485B000AF78600123FB737B681B785A01354B13441A467B685B6843F0801337
:4035400013607B681B785A012F4B13441B6803F07F127B685B6823F080139A424DD17B681B785A01284B134410337A6892681A607B681B785A01244B134410331A687B6876
:403580009B689A4239D17B681B785A011E4B134414337A68D2681A607B681B785A011A4B134414331A687B68DB689A4225D17B681B785A01144B134418334FF0FF321A60AA
:4035C0007B681B785A01104B134418331B68B3F1FF3F12D17B681B785A010B4B13441C3300221A607B681B785A01074B13441C331B68002B01D10023FB73FB7B1846143753
:40360000BD465DF8047B7047A0A0004080B485B000AF78600123FB737B681B781A011B4B13441A467B685B6843F4000343F0080313607B681B781A01144B13441B68144A93
:403640001A407B685B6823F4000323F008039A4215D17B681B781A010C4B134404337A6892681A607B681B781A01084B134404331A687B689B689A4201D10023FB73FB7BF5
:4036800018461437BD465DF8047B704720A00040F7007F0080B500AF034B02225A70FFF7D5FDFFF769FD80BD00A0004080B582B000AF0123BB801B4B10225A700023FB7196
:4036C00029E0194B1B889AB2BB8813409BB2002B1BD0FB795A01154B13441B78DBB203F02003002B11D0BB8803F001039BB2002B07D0FB79002B00D002E000F00DF900BF1E
:4037000003E0FB79184600F0E3F8BB885B00BB80FB790133FB71FB790F2BD2D90837BD4680BD00BF00A0004008A00040A0A0004080B500AF094B5B78DBB203F00203002B82
:4037400001D0FFF7A7FF054B5B78DBB203F01003002B01D0FFF7AAFF80BD00BF00A0004080B487B000AF786000233B750123FB749BE001237B750023FB758BE0504B9B781C
:40378000DAB27B7D1340DBB2002B79D10023FB607B681B79002B02D04FF40013FB607B685B79002B09D1FB7D1A01464B134404337A68126852051A600CE0FB6843F48013D9
:4037C000FB60FB7D1A013F4B134404337A681268D2001A607B689B79072B06D87B689B791B04FA681343FB6003E0FB6843F40023FB607B68DB79002B03D0FB6843F004031E
:40380000FB600023BB7517E0FB7D1A012D4B1344BA7D032A03D9BA7DC2F10B0202E0BA7DC2F1030279688868B97D415C13440A461A72BB7D0133BB757B689B79BA7D9A42FC
:4038400002D2BB7D072BDFD91F4B4FF480321A60FB7D1A011B4B13441A46FB6843F4000343F008031360FB7D1A01164B13441A4601231360154B4FF480321A600023FB74D8
:403880007B7D5B007B75FB7C002B00D106E0FB7D0133FB75FB7D072B7FF670AFFB7C002B00D106E03B7D01333B753B7D022B7FF660AFFB7C18461C37BD465DF8047B7047FE
:4038C00008A0004020A0004080E100E000E100E080B483B000AF0346FB71FB795A010D4B13441B78DBB203F00103002B0DD0FB795A01084B1344FA795101064A0A44127810
:40390000D2B242F00102D2B21A700C37BD465DF8047B7047A0A0004080B483B000AF364B1B68364A9278D2B202F00F02D1B2344A1B01134408330A461A702F4B1A682F4B45
:403940009B78DBB203F010031B11002B03D02D4B1B68DB0802E02B4B1B685B0D284912010A440832536000237B6000237B6019E0214B1A6821497B68032B03D97B68C3F1C6
:403980000B0302E07B68C3F103030B441B7AD8B21B4912017B6813440B4402461A707B6801337B60144B1B68154A1B01134408331B781A467B689A42DADC134B1B680133DC
:4039C000114A13600C4B1B68322B03D10A4B00221A6004E0084B1B680133074A1360074A064B1B78DBB243F00103DBB213700C37BD465DF8047B7047B481FF1FA0A000409E
:403A0000D891FF1FA4A00040AC81FF1F80B500AF054B1B78002B04D100F008F8024B01221A7000F04BF880BDC591FF1F80B582B000AF1F4B1B78DBB223F03F03FB711C4AD4
:403A4000FB7943F00903DBB213701A4A194B1B78DBB243F00103DBB21370174A164B1B78DBB243F00103DBB213704FF4966000F035F84FF4966000F04FF8012000F05CF800
:403A8000002000F069F8FFF7FFF80346BB710A4A094B1B78DBB243F01003DBB21370BB791846FFF7F5F800F029F80837BD4680BD79640040986400409964004080B400AF97
:403AC000054A054B1B78DBB263F07F03DBB21370BD465DF8047B70477964004080B483B000AF0346FB80044AFB8813800C37BD465DF8047B704700BF1068004080B500AF0D
:403B000001E000F045F800F037F8034603F01003002BF6D180BD00BF80B483B000AF0346FB80044AFB8813800C37BD465DF8047B704700BF9068004080B483B000AF0346B6
:403B4000FB80044AFB8813800C37BD465DF8047B704700BF5068004080B483B000AF0346FB71044AFB7913700C37BD465DF8047B704700BF8964004080B400AF034B1B784D
:403B8000DBB21846BD465DF8047B70476964004080B400AF034B1B889BB21846BD465DF8047B7047B068004080B400AF034B1B889BB21846BD465DF8047B704790680040D5
:403BC00080B500AF054B1B78002B04D100F008F8024B01221A7000F03FF880BDC691FF1F80B582B000AF1A4B1B78DBB223F03F03FB71174AFB7943F00903DBB21370154A5C
:403C0000144B1B78DBB243F00103DBB21370C82000F032F8C82000F04DF8002000F05AF8002000F067F8FFF72FF80346BB71094A084B1B78DBB243F01003DBB21370BB79EC
:403C40001846FFF725F800F027F80837BD4680BD776400409064004080B400AF054A054B1B78DBB263F07F03DBB21370BD465DF8047B70477764004080B483B000AF034667
:403C8000FB71044AFB7913700C37BD465DF8047B704700BF0064004080B500AF01E000F045F800F037F8034603F01003002BF6D180BD00BF80B483B000AF0346FB71044AB8
:403CC000FB7913700C37BD465DF8047B704700BF4064004080B483B000AF0346FB71044AFB7913700C37BD465DF8047B704700BF2064004080B483B000AF0346FB71044ADC
:403D0000FB7913700C37BD465DF8047B704700BF8064004080B400AF034B1B78DBB21846BD465DF8047B70476064004080B400AF034B1B78DBB21846BD465DF8047B70475A
:403D40005064004080B400AF034B1B78DBB21846BD465DF8047B70474064004080B500AF054B1B78002B04D100F008F8024B01221A7000F04BF880BDC791FF1F80B582B030
:403D800000AF1F4B1B78DBB223F03F03FB711C4AFB7943F00903DBB213701A4A194B1B78DBB243F00103DBB21370174A164B1B78DBB243F00103DBB213704FF4966000F05F
:403DC00035F84FF4966000F04FF8012000F05CF8002000F069F8FEF757FF0346BB710A4A094B1B78DBB243F01003DBB21370BB791846FEF74DFF00F029F80837BD4680BD0F
:403E00007D6400409C6400409D64004080B400AF054A054B1B78DBB263F07F03DBB21370BD465DF8047B70477D64004080B483B000AF0346FB80044AFB8813800C37BD4626
:403E40005DF8047B704700BF1868004080B500AF01E000F045F800F037F8034603F01003002BF6D180BD00BF80B483B000AF0346FB80044AFB8813800C37BD465DF8047B92
:403E8000704700BF9868004080B483B000AF0346FB80044AFB8813800C37BD465DF8047B704700BF5868004080B483B000AF0346FB71044AFB7913700C37BD465DF8047B54
:403EC000704700BF8D64004080B400AF034B1B78DBB21846BD465DF8047B70476D64004080B400AF034B1B889BB21846BD465DF8047B7047B868004080B400AF034B1B888C
:403F00009BB21846BD465DF8047B70479868004080B500AF054B1B78002B04D100F008F8024B01221A7000F03FF880BDC891FF1F80B582B000AF1A4B1B78DBB223F03F038C
:403F4000FB71174AFB7943F00903DBB21370154A144B1B78DBB243F00103DBB21370C82000F032F8C82000F04DF8002000F05AF8002000F067F8FEF787FE0346BB71094A5A
:403F8000084B1B78DBB243F01003DBB21370BB791846FEF77DFE00F027F80837BD4680BD716400409164004080B400AF054A054B1B78DBB263F07F03DBB21370BD465DF87F
:403FC000047B70477164004080B483B000AF0346FB71044AFB7913700C37BD465DF8047B704700BF0164004080B500AF01E000F045F800F037F8034603F01003002BF6D1DF
:4040000080BD00BF80B483B000AF0346FB71044AFB7913700C37BD465DF8047B704700BF4164004080B483B000AF0346FB71044AFB7913700C37BD465DF8047B704700BF5F
:404040002164004080B483B000AF0346FB71044AFB7913700C37BD465DF8047B704700BF8164004080B400AF034B1B78DBB21846BD465DF8047B70476164004080B400AF91
:40408000034B1B78DBB21846BD465DF8047B70475164004080B400AF034B1B78DBB21846BD465DF8047B70474164004080B485B000AF0346FB710B4B1B78DBB223F0040332
:4040C000FB730849FB799B00DBB203F00403DAB2FB7B1343DBB20B701437BD465DF8047B704700BF6051004080B485B000AF0346FB710B4B1B78DBB223F01003FB7308495A
:40410000FB791B01DBB203F01003DAB2FB7B1343DBB20B701437BD465DF8047B704700BFF051004080B485B000AF0346FB71094B1B78DBB203F07F03FB730649FB79DB0120
:40414000DAB2FB7B1343DBB20B701437BD465DF8047B70474051004080B485B000AF0346FB710A4B1B78DBB223F00103FB730749FB7903F00103DAB2FB7B1343DBB20B7053
:404180001437BD465DF8047B704700BF6051004080B483B000AF0346FB71044AFB7913700C37BD465DF8047B704700BF7264004080B400AF034B1B78DBB21846BD465DF8B9
:4041C000047B70477264004080B500AF054B1B78002B04D100F008F8024B01221A7000F04BF880BDC991FF1F80B582B000AF1F4B1B78DBB223F03F03FB711C4AFB7943F06C
:404200000903DBB213701A4A194B1B78DBB243F00103DBB21370174A164B1B78DBB243F00103DBB2137040F22B1000F035F840F22B1000F04FF8002000F05CF8002000F068
:4042400069F8FEF721FD0346BB710A4A094B1B78DBB243F01003DBB21370BB791846FEF717FD00F029F80837BD4680BD7A6400409A6400409B64004080B400AF054A054BEF
:404280001B78DBB263F07F03DBB21370BD465DF8047B70477A64004080B483B000AF0346FB80044AFB8813800C37BD465DF8047B704700BF1468004080B500AF01E000F00E
:4042C00045F800F037F8034603F01003002BF6D180BD00BF80B483B000AF0346FB80044AFB8813800C37BD465DF8047B704700BF9468004080B483B000AF0346FB80044AF3
:40430000FB8813800C37BD465DF8047B704700BF5468004080B483B000AF0346FB71044AFB7913700C37BD465DF8047B704700BF8B64004080B400AF034B1B78DBB218465D
:40434000BD465DF8047B70476B64004080B400AF034B1B889BB21846BD465DF8047B7047B468004080B400AF034B1B889BB21846BD465DF8047B70479468004080B500AF0A
:40438000054B1B78002B04D100F008F8024B01221A7000F04BF880BDCA91FF1F80B582B000AF1F4B1B78DBB223F03F03FB711C4AFB7943F00903DBB213701A4A194B1B7862
:4043C000DBB243F00103DBB21370174A164B1B78DBB243F00103DBB2137040F22B1000F035F840F22B1000F04FF8012000F05CF8002000F069F8FEF747FC0346BB710A4ABB
:40440000094B1B78DBB243F01003DBB21370BB791846FEF73DFC00F029F80837BD4680BD73640040926400409364004080B400AF054A054B1B78DBB263F07F03DBB2137057
:40444000BD465DF8047B70477364004080B483B000AF0346FB80044AFB8813800C37BD465DF8047B704700BF0468004080B500AF01E000F045F800F037F8034603F01003BD
:40448000002BF6D180BD00BF80B483B000AF0346FB80044AFB8813800C37BD465DF8047B704700BF8468004080B483B000AF0346FB80044AFB8813800C37BD465DF8047BBC
:4044C000704700BF4468004080B483B000AF0346FB71044AFB7913700C37BD465DF8047B704700BF8364004080B400AF034B1B78DBB21846BD465DF8047B7047636400404F
:4045000080B400AF034B1B889BB21846BD465DF8047B7047A468004080B400AF034B1B889BB21846BD465DF8047B70478468004080B483B000AF0346FB71044AFB791370D9
:404540000C37BD465DF8047B704700BF7564004080B483B000AF0346FB71044AFB7913700C37BD465DF8047B704700BF7C64004080B485B000AF0346FB710B4B1B78DBB28F
:4045800023F01003FB730849FB791B01DBB203F01003DAB2FB7B1343DBB20B701437BD465DF8047B704700BF6051004080B400AF094A094B1B78DBB243F00403DBB2137016
:4045C000064A064B1B78DBB243F00403DBB21370BD465DF8047B7047A2430040B243004080B582B000AF786000F03CF8786800F009F8012000F018F800F028F80837BD4672
:4046000080BD00BF80B485B000AF7860054B1B68FB60FB6840337A681A601437BD465DF8047B704708ED00E080B483B000AF0346FB71054AFB795B01DBB213700C37BD4640
:404640005DF8047B704700BF00E400E080B400AF034B01221A60BD465DF8047B704700BF00E100E080B400AF034B01221A60BD465DF8047B704700BF80E100E080B500AF10
:40468000054B1B78002B04D100F008F8024B01221A7000F025F880BDCB91FF1F80B500AF102000F045F901200721FEF73BFB01200849FEF70FFB084A074B1B78DBB243F04B
:4046C0000603DBB213700C2000F084F8034B00221A8080BD25490000095900405895FF1F80B582B000AFFEF7CFFA0346FB712E4A2D4B1B78DBB243F00203DBB213702B4A51
:404700002A4B1B78DBB243F00203DBB21370284A274B1B78DBB243F00203DBB21370254A244B1B78DBB243F00203DBB21370224B1B78BB71BB7943F00203BB71BB7943F0DF
:404740000103BB711C4ABB7913701C4B18221A701B4A1B4B1B78DBB243F04003DBB21370174A174B1B78DBB223F02003DBB21370144BCE221A70144B02221A70134A134B86
:404780001B78DBB243F00803DBB213700A20FEF78FFA0F4B02221A60FB791846FEF778FA0837BD4680BD00BFAB430040BB430040A1430040B14300400B5900400E59004065
:4047C0000D59004008590040164600402F5B004080E200E080B584B000AF0346FB71FB790A2B07D00C2B02D0082B06D008E0C423FB730BE08423FB7308E04423FB7305E08C
:40480000C423FB730020FEF747FA00BF044AFB7B1370FB79184600F005F81037BD4680BD0A59004080B584B000AF0346FB71FB790A2B08D00C2B02D0082B08D00BE04FF44E
:404840008053FB600DE04FF48063FB6009E04FF48073FB6005E00023FB600020FEF71CFA00BF0C4B00221A80FB6842F2107202FB03F303F58063002B01DA03F2FF73DB1281
:404880001A46054B1A60054B00221A801037BD4680BD00BF5495FF1F5095FF1F5695FF1F90B585B000AF0346FB801A4B1B889BB2002B09D0174B1B889BB21AB213469B0011
:4048C00013445B00FB6002E0134B1B68FB60134B1B889BB2FA889BB2D31A9BB2FB80B7F90630184602F0B4FE034618460C4902F003FF03461C46F86802F0AAFE034620468F
:40490000194602F0ADFF0346BB60BB6818461437BD4690BD5495FF1F5095FF1F5895FF1F0000204180B400AFBD465DF8047B704780B483B000AF0346FB71094B084A127818
:40494000D2B2D1B2FA7922F00702D2B20A43D2B2D2B21A700C37BD465DF8047B704700BF0641004080B584B000AF03460A46FB8013467B7100F0CCF80346FB7300F0A2F8C2
:404980000346BB81FA88BB899A4200F08780454B1B78DBB203F00103FB72FB7B002B20D1BB89002B02D0FB88002B1AD1BB89002B0BD13D4AFB8813803C4A3C4B1B78DBB244
:4049C00023F04003DBB2137068E0384A374B1B78DBB243F04003DBB21370334AFB8813805CE0FB7A002B33D0314B00221A70314B01221A70304B00221A70304A2F4B1B78EE
:404A0000DBB203F07F03DBB21370284B1B78DBB203F00803002B02D0FB88002B18D1284ABB891380224B07221A7000BF204B1B78DBB203F00103002BF8D11A4A194B1B7846
:404A4000DBB223F00103DBB21370194B00221A70144B1B78DBB203F00103002B13D0184AFB881380124A7B79002B01D0032300E00123137000BF0E4B1B78DBB203F001034E
:404A8000002BF8D10AE0084AFB8813800549054B1B78DAB2FB7A1343DBB20B701037BD4680BD00BFA243004080400040824000400140004010400040144000400840004086
:404AC0000240004080B400AF034B1B889BB21846BD465DF8047B70478040004080B483B000AF0346FB71094B084A1278D2B2D1B2FA7922F00702D2B20A43D2B2D2B21A7034
:404B00000C37BD465DF8047B704700BF8240004080B400AF054B1B78DBB203F00703DBB21846BD465DF8047B704700BF8240004080B582B000AF0023FB7106E0FB791846FC
:404B4000FDF7ACF8FB790133FB71FB79012BF5D9024BFF221A700837BD4680BD2881FF1F80B582B000AF0346FB71FFF7E1FFFB791846FDF773F8034AFB7913700837BD4685
:404B800080BD00BF2881FF1F80B500AF0A4B0C221A700A4A094B1B78DBB243F02003DBB21370074B80221A70082000F05BF8002000F03CF880BD00BF0C5800400D580040A1
:404BC0000E58004080B400AF0D4A0D4B1B78DBB243F00803DBB213700A4A0A4B1B78DBB243F00803DBB21370074A074B1B78DBB263F07F03DBB21370BD465DF8047B7047C2
:404C0000A9430040B94300407758004080B500AF054B1B78002B04D1FFF7B6FF024B01221A70FFF7CFFF80BDCC91FF1F80B485B000AF0346FB710A4B1B78DBB223F00303BA
:404C4000FB73FB7903F00303DAB2FB7B1343FB73034AFB7B13701437BD465DF8047B70470D58004080B588B000AF0346FB71284A07F114031068516803C3127A1A70254A01
:404C800007F108031068516803C3127A1A70FB79082B39D8204A204B1B78DBB223F07F03DBB213701C481C4B1B78DAB2FB7907F120010B4413F80C1CFB7907F1200E734448
:404CC00013F8183C9B00DBB203F00C03DBB20B43DBB21343DBB20370104A104B1B78DBB223F00C03DBB213700C490C4B1B78DAB2FB7907F12000034413F8183C1343DBB286
:404D000043F00C03DBB20B702037BD4680BD00BF347D0000407D00000E5800400D58004080B582B000AF0F4800F05CF80D4800F075F8FDF7A9FF0346FB710B4A0A4B1B7829
:404D4000DBB243F01003DBB21370FB791846FDF79FFF00F071F8012000F028F80837BD4680BD00BFFF1AB7009264004080B400AF054A054B1B78DBB263F07F03DBB2137097
:404D8000BD465DF8047B70477464004080B500AF054B1B78002B04D1FFF7C2FF024B01221A70FFF7E3FF80BDCD91FF1F80B483B000AF0346FB71044AFB7913700C37BD46EE
:404DC0005DF8047B704700BF8264004080B400AF034B1B78DBB21846BD465DF8047B70476264004080B582B000AF78600348796800F02AFB0837BD4680BD00BF24640040CB
:404E000080B400AF044B1B6823F07F431846BD465DF8047B704700BF4464004080B582B000AF78600348796800F00EFB0837BD4680BD00BF0464004080B500AF01E0FFF7A1
:404E4000DFFFFFF7C3FF034603F00803002BF6D180BD00BF80B582B000AF786000F03CF8786800F009F8012000F018F800F028F80837BD4680BD00BF80B485B000AF786025
:404E8000054B1B68FB60FB6854337A681A601437BD465DF8047B704708ED00E080B483B000AF0346FB71054AFB795B01DBB213700C37BD465DF8047B704700BF05E400E07D
:404EC00080B400AF034B20221A60BD465DF8047B704700BF00E100E080B400AF034B20221A60BD465DF8047B704700BF80E100E080B582B000AF00F0F1F84FF0FF337B6001
:404F000000F022FA0346002B24D1012000F0EAF90346072B1BD11348022100F001F90346022B0DD100237B6002E00120FDF7C0FE0D4B1B78DBB203F00203002BF5D006E0EC
:404F4000094B1B78DBB203F00203002BE3D000F02FFA01E004237B607B6818460837BD4680BD00BF5C95FF1F2247004080B582B000AF00F0B3F800F0E7F90346002B23D1CB
:404F800000F03EFA78607B68072B1AD102E00120FDF78EFE104B1B78DBB203F00203002BF5D00D4B1B78DBB203F00203002B08D0094B1B78DBB29B08DBB2002B01D10023D4
:404FC0007B6000F0F5F901E004237B607B6818460837BD4680BD00BF2247004080B582B000AFFFF7C3FF78607B68002B02D1FFF77FFF78607B6818460837BD4680BD00BF9B
:4050000080B582B000AFFDF73FFE0346FB71194A184B1B78DBB243F00803DBB21370164A154B1B78DBB243F00803DBB21370134BC8221A70124A124B1B78DBB243F0100321
:40504000DBB213700F4A0F4B1B78DBB243F01003DBB2137000BF0C4B1B78DBB203F02003002BF8D0FB791846FDF712FE0837BD4680BD00BFA0430040B043004001470040C6
:40508000AC430040BC4300400047004080B400AF094A094B1B78DBB243F00103DBB2137000BF054B1B78DBB203F00203002BF8D0BD465DF8047B70470247004080B400AFF6
:4050C000054A054B1B78DBB223F00103DBB21370BD465DF8047B70470247004080B582B000AFFDF7D1FD0346FB710B4A0A4B1B78DBB243F00803DBB21370084A074B1B78D7
:40510000DBB243F00803DBB21370FB791846FDF7BFFD0837BD4680BDA0430040B043004080B584B000AF78600B46FB700023FB7314E002E00120FDF7BBFD0D4B1B78DBB2E5
:4051400003F00103002BF5D0FB7B7A681344094A1278D2B21A70FB7B0133FB73FA7BFB789A42E6D3FB7B18461037BD4680BD00BF224700402047004080B485B000AF3A60FD
:405180001A460346FB710B46BB801346BB710723FB60FB793E2B02D8BB791F2B05D9FB793F2B46D9BB790F2B43D8264B1B78DBB203F00203002B38D0234BB6221A70224BB2
:4051C000D4221A70204B01221A701E4B1B78DBB203F00203002B25D11B4AFB7913701A4ABB881B0A9BB2DBB203F00103DBB21370154BBA88D2B21A70134ABB79013BDBB262
:4052000013700023FB7208E00F49FB7A3A6813441B780B70FB7A0133FB72FA7ABB799A42F2D305E00923FB6005E00423FB6002E001E00123FB60FB6818461437BD465DF8C7
:40524000047B7047224700402047004090B484B000AF0446084611461A462346FB710346BB800B46BB711346FB700723FB601B4B1B78DBB203F00203002B26D0184BB62239
:405280001A70174BD8221A70154B05221A70134B1B78DBB203F00203002B13D1104AFB7913700F4ABB881B0A9BB2DBB213700C4BBA88D2B21A700A4ABB791370084AFB7802
:4052C000137004E00923FB6001E00423FB60FB6818461037BD4690BC704700BF224700402047004080B485B000AF0346FB710723FB60134B1B78DBB203F00203002B16D067
:40530000104BB6221A700F4BE1221A700D4B0E221A700B4B1B78DBB203F00203002B03D1084AFB79137004E00923FB6001E00423FB60FB6818461437BD465DF8047B704799
:40534000224700402047004080B582B000AF04237B60FDF799FC0346FB70124B1B78002B16D1104B01221A7000237B600E4B1B6803F00103002B0BD00B4A0B4B1B6823F066
:405380000103136000BF00BF00BF084B01221A60FB781846FDF77CFC7B6818460837BD4680BD00BFD091FF1F04000840D491FF1F80B582B000AFFDF767FC0346FB710D4BC5
:4053C00000221A700C4B1B68012B0BD10B4A0B4B1B6843F00103136000BF00BF00BF064B00221A60FB791846FDF752FC0837BD4680BD00BFD091FF1FD491FF1F040008407D
:4054000080B483B000AF07237B600D4B1B78DBB203F00203002B09D00A4BB6221A70094BE0221A70074B0D221A7001E004237B607B6818460C37BD465DF8047B704700BF87
:40544000224700402047004080B485B000AF786039607B68FB603B68DAB2FB681A70FB6801333A68120AD2B21A70FB6802333A68120CD2B21A701437BD465DF8047B704757
:405480002DE9F0438BB006460F4600F0F1F9DFF8E880044698F900300D4601330BD03046394601F0EDF930B1304639460022002301F072FF20B1204629460BB0BDE8F0837F
:4054C0002A4B98F800400890CDE90267CDE9046701939CB9264D4FF060443046394600220023CDE9064501F02FFF002835D101230093684601F0F0F9A8B910E0DFF87C9055
:405500004FF000083046394600220023CDE9068901F01AFF98B90123022C0093E9D102F0F7FA21230360134801F0D8F9CDE90601089BABB9DDE906010BB0BDE8F08302237B
:405540009C42009304D0684601F0C6F90028EFD102F0DEFA22230360EAE702230093F2E702F0D6FA089B0360E4E700BF4C7D0000FFFFEFC7507D00002981FF1F0000F0FF79
:405580002DE9F04F8BB01F4680468946164600F057FBDFF8D8A204469AF900300D46013304D03046394601F06BF920B9204629460BB0BDE8F08F4046494601F061F983460A
:4055C00060BB304639460022002301F0BDFE0028ECD09AF900309E4C01229E4900208DE814005A1CCDF820B0CDE90289CDE90467CDE906010DD0022B0BD0684601F06CF953
:40560000002800F09380089B1BB102F081FA089B0360DDE906010BB0BDE8F08F404649460022002301F090FEF8B1304639460022002301F089FE834600284ED084489AF90F
:4056400000300121002200240025CDE90289CDE90467CDE90645019000910892002BCCD07C4B0022CDE90623D3E72046294601F001F9834600285ED020462946002200230C
:4056800001F062FE002891D04046494601F0F2F800288BD03046394601F0ECF8002885D09AF900306A480421002200240025022BCDE90289CDE90467CDE90645019000919F
:4056C000089200F08880684601F006F9002800F08280089B002B9CD097E73046394601F0C9F800283FF462AF304639460022002301F034FE00283FF459AF55499AF8003075
:405700000122CDF820B0CDE90289CDE9046701910092002B3CD050490020022BCDE9060130D102F0F5F921230360D2E702F0F0F92123036067E74046494601F09BF800287F
:405740009AD03046394601F095F8002894D02046294601F095F800BB3D4A9AF8004001230890CDE90289CDE90467019200937CB10020002102460B4601F0A8FC022CCDE995
:405780000601CED0684601F0A7F80028A1D1C8E700220023CDE90623F4E72D499AF900300322CDF820B0CDE90289CDE9046701910092ABB9294D4FF0604440464946002251
:4057C0000023CDE9064501F0C9FD50BB9AF90030022B7FF478AF02F09BF92223036078E71F4D00244046494600220023CDE9064501F0B4FD0028E9D000221A4B30463946C2
:4058000001F03AFB04460D4601F06EF822462B4601F09AFD0028D9D10F4B0022CDE90623D4E700220F4B3046394601F025FB04460D4601F059F822462B4601F085FD002830
:40584000C4D1094B4FF06042CDE90623BEE700BF547D00000000F03F0000F0FFFFFFEF470000F07F0000E03FFFFFEFC72981FF1F2DE9F04FB1F5801F85B006460F460B462D
:405880005ADA024621F00044224300F0F5800029C0F271810022DE4B01F0EEFA0B460F46DC4906468B426FF0350249DCC3F3130505F5152404F6647404F4801E8EF07F5106
:4058C00081F440111B15A3F2FF3341EA05079C1830460022D04B394604EB1E5401F018F9AB1CC3F31303022B82468B464FF000022FDC002301F028FD002800F0C680002C03
:4059000000F04281204601F051FAADA3D3E9002306460F4601F0B0FAABA3D3E9002304460D463046394601F0A7FA02460B462046294601F0EFF809E0B64900228B42B5DDA7
:405940003046394632463B4601F0E4F805B0BDE8F08F4FF0804301F0DDF802460B465046594601F0B3FB06460F462046CDE9006701F01CFA3246CDE902013B46304639468C
:4059800001F07AFA02460B468046894601F074FA8FA3D3E9002306460F4601F06DFA8EA3D3E9002301F0B6F832463B4601F064FA8BA3D3E9002301F0ADF832463B4601F067
:4059C0005BFA89A3D3E9002301F0A4F842464B4601F052FA86A3D3E90023804689463046394601F049FA84A3D3E9002301F092F832463B4601F040FA81A3D3E9002301F005
:405A000089F832463B4601F037FA0B4602464946404601F07FF8A5F5C223C5F5D725A3F27A4351351D43002D06460F4653DD00227A4B5046594601F01FFA52465B4601F0F9
:405A40001BFA80468946002C60D132463B4601F061F8DDE9002301F00FFA02460B464046494601F055F802460B465046594601F04FF805B0BDE8F08F002200230020684918
:405A800001F024FB05B0BDE8F08F52465B465046594601F0F1F95CA3D3E9002306460F465046594601F0E8F902460B4600205B4901F02EF802460B463046394601F0DCF966
:405AC00006460F46002C62D15046594632463B4601F01EF83AE7002C00F0A48038A3D3E90023DDE902894046494601F0C5F932463B4604460D465046594601F009F8DDE9BE
:405B0000002301F0B9F906460F464CE02CA3D3E90023DDE9020101F0AFF932463B4604460D464046494600F0F5FFDDE9002301F0A3F925A3D3E9002306460F46DDE90201AC
:405B400001F09AF902460B463046394600F0E2FF02460B464046494600F0DAFF52465B4600F0D6FF02460B462046294600F0D0FF05B0BDE8F08F02460B4600F0C9FF002254
:405B8000002301F0A3FAE1E600200021DEE6204601F00CF90AA3D3E900238046894601F06BF904460D4608A3D3E900234046494601F062F902460B4630463946CCE700BF0E
:405BC0000000E0FE422EE63F763C7935EF39EA3D44523EDF12F1C23FDE03CB966446C73F599322942449D23F935555555555E53F9FC678D0099AC33FAF788E1DC571CC3FF5
:405C000004FA97999999D93F555555555555D53F00005043FFFFEF7F0000F03F0000E03F000050C302460B465046594600F070FFDDE9002301F020F915E700BFAFF300807D
:405C40002DE9F04F144623F00047024657EA04000E468FB01D469C46214634D06E4B26F0004A9A459346B14626DC24D09F4223DC694B9F4200F08F80B9F1000FC0F28F809F
:405C80004FF0000879BB644B9F4200F0A580634B9F4267D0BCF1804F00F0E283604B9C4521D1B9F1000F1EDB104631460FB0BDE8F04F00F015BD62B10AF1404000F58010B8
:405CC00050EA0B0007D10346544918460FB0BDE8F08F5745CCDD53480FB0BDE8F04F00F0FDBD4FF0000810463146CDF808C0009200F0BCFD009ADDF808C0BBF1000F20D075
:405D00004FEAD97909F1FF3958EA09037AD0464B9F4240F38F8003F104739F4240F31084424B9A4540F39283BCF1000F40F3928337A1D1E900010B46024601F09DF8034694
:405D4000C3E7BAF1000F04D0344B29F0404E9E45D6D1BCF1000FC0F2B683B9F1000F08DB0346B2E7BCF1000FC0F2528413463146ABE70AF1404A0AF5801A58EA0A0340F0D3
:405D80005E8402460B4600F0C3FE0B46024601F09DF9034699E700293FF46EAF8CE7244B9F422CDCA3F154739F427FF769AF40F213403B15834240F34B84C3F5866303334D
:405DC00021FA03F000FA03F38B427FF459AF00F00100C0F1020855E70AF1404303F5801353EA0B0300F03983104B9A4540F36483BCF1000FC0F22E832346294665E74FF09F
:405E000002083FE7104631463346BCE7AFF300809C7500883CE4377E0000F07F0000F03F0000E03F507D00000000E041FFFFEF3FFFFF3F43BAF5801F4FF0000205DACA4BDF
:405E400001F01AF88A466FF034024FEA2A53C74ECAF3130AA3F2FF334AF07F571344B2450C9347F4401740F3D083C14B9A4540F307840026B4460C9BA7F5801701330C93C3
:405E80003946BC4B4FEACC0C6344D3E900AB52465B46CDF834C0CDE9060100F039FE52465B46CDE90801DDE9060100F033FE02460B460020B04901F009F902460B46DDE97D
:405EC0000801CDE90A2300F0D7FF02460B46CDE90223CDE904237B1043F0005303F5002399190020002306460F460293DDE902231046194632463B46CDE9000100F0BCFF4D
:405F000002460B46DDE9080100F002FE5246CDE908015B463046394600F0FAFD02460B46DDE9060100F0F4FD02460B46DDE9000100F0A2FF02460B46DDE9080100F0E8FDC0
:405F4000DDE90A2300F098FFDDE90423CDE906011046194600F090FF02460B4606460F4600F08AFF6EA3D3E9002382468B463046394600F081FF6CA3D3E9002300F0CAFD83
:405F800032463B4600F078FF69A3D3E9002300F0C1FD32463B4600F06FFF67A3D3E9002300F0B8FD32463B4600F066FF64A3D3E9002300F0AFFD32463B4600F05DFF62A3E9
:405FC000D3E9002300F0A6FD02460B465046594600F052FFDDE9042306460F46DDE9000100F098FDDDE9062300F046FF32463B4600F090FDDDE9006782468B4632463B46ED
:406000003046394600F038FF00225C4BCDE9080100F080FD52465B4600F07CFD02980F460646DDE9000132463B4600F025FF32463B46CDE90001DDE9060100F01DFF0022F3
:40604000CDE906014D4B3046394600F061FDDDE9082300F05DFD02460B465046594600F057FDDDE9042300F007FF02460B46DDE9060100F04FFD82468B46DDE900015246BE
:406080005B4600F047FD32A3D3E9002302980F46064600F0F1FE30A3D3E90023CDE904013046394600F0E8FEDDE90023CDE906013046394600F02CFD02460B465046594683
:4060C00000F026FD26A3D3E9002300F0D5FE02460B46DDE9060100F01DFDDDF834C0284BCDF818C06344D3E9002300F013FDCDE900010C9800F05AFE06460F46DDE9040144
:40610000204BDDF818C09C44DDE90023DCE900AB00F000FD52465B4636E000BFAFF30080EF4E454A287ECA3F65DBC9934A86CD3F01411DA96074D13F4D268F515555D53F01
:40614000FFAB6FDBB66DDB3F033333333333E33F000000E009C7EE3FF5015B14E02F3EBEFD033ADC09C7EE3F000040438E98030079B60B00787D00000000F03F0000084018
:40618000687D0000587D0000CDE906AB00F0C2FC32463B4600F0BEFC029832463B4682468B4600F0B5FCDDE9062300F0B1FCDDE9042300F0ADFC02460B46DDE9000100F03E
:4061C000A7FCCDE9020108F1FF3858EA09030CBFD54BD64B0022CDE904230023CDE900450093DDE90067204632463B46294600F08FFC52465B4600F03FFEDDE9022380467C
:4062000089462046294600F037FE02460B464046494600F07FFC04460D465246304639465B46CDE9024500F027FE06460F4620463B462946324600F06DFCBD4B824699422C
:406240008946884640F3138101F13F4303F5E003034340F0E581A0A3D3E90023DDE9020100F058FC324604460D463B465046494600F04EFC02460B462046294601F08CF888
:40628000002840F0CD814C462015A0F2FE304FF4801101414144C1F30A50A64CA0F2FF35C1F3130BC0F5826003302C414BF4801B21EA040300224BFA00FB3946304600F014
:4062C00027FC06460F46DDE902018BEAE87B0BEBD87B32463B464FEA0B5A00F01BFC80A3D3E90023002420460D4600F0C5FD3246804689463B462046294600F009FC024621
:406300000B46DDE9020100F003FC77A3D3E9002300F0B2FD76A3D3E9002306460F462046294600F0A9FD02460B463046394600F0F1FB06460F4632463B464046494600F0AF
:40634000E9FB42464B4604460D4600F0E1FB02460B463046394600F0DBFB2246804689462B462046294600F087FD63A3D3E9002306460F4600F080FD61A3D3E9002300F0E6
:40638000C7FB32463B4600F077FD5FA3D3E9002300F0C0FB32463B4600F06EFD5CA3D3E9002300F0B5FB32463B4600F065FD5AA3D3E9002300F0AEFB32463B4600F05CFD5E
:4063C00002460B462046294600F0A2FB06460F4632463B462046294600F04EFD0022CDE900014FF080433046394600F091FB02460B46DDE9000100F069FE424606460F46CC
:406400004B462046294600F037FD42464B4600F081FB02460B463046394600F079FB22462B4600F075FB02460B4600203F4900F06FFB8A44BAF5801F0246C0F22781534630
:40644000DDE9040100F018FD03463EE4BCF1000FFFF66EAC0023194637E40B46334934E433461046314600F007FD03462DE4324B21F000449C4240F3FA80304B0B44034393
:406480000CD132463B4600F043FB02460B46DDE9020100F06DFF00283FF4F6AE20A3D3E90023DDE9040100F0E7FC1DA3D3E9002300F0E2FC034608E4BCF1000FCADA234670
:4064C00005F1004101E402460B460020174900F0FDFD42E4AFF30080FE822B654715973C00000000432EE63FEF39FAFE422EE63F396CA80C615C20BED0A4BE726937663ECF
:40650000F16BD2C541BDBB3E2CDE25AF6A56113F93BDBE166CC1663F3E5555555555C53F59F3F8C21F6EA5010000F0BF0000F03FFFFF8F40FFFF0F00FFCB904000346F3F35
:40654000634B9A4582DD634B9A453FF7EDAB0022604B00F0DDFA54A3D3E9002306460F4600F08AFC52A3D3E90023CDE900013046394600F081FC3246CDE902013B4630463E
:40658000394600F079FC002282468B4630463946514B00F071FC02460B4647A1D1E9000100F0B6FA32463B4600F066FC02460B4600204A4900F0ACFA02460B465046594677
:4065C00000F05AFC3EA3D3E9002300F055FC02460B46DDE9020100F09BFA06460F46DDE9000132463B4600F095FADDE90023002082468B4600F08CFA02460B4630463946E7
:4066000000F086FACDE90201DDE50026B44637E4334600202F4900F059FD0346FFF755BB29A3D3E90023DDE9040100F025FC26A3D3E9002300F020FC0346FFF746BBB8F16A
:40664000010F03467FF441AB01F10041FFF73DBB00297FF446ABC3F58263033347FA03F000FA03F3BB4217D08846FFF710BB1B4B9C423FF709AEDDE90023924693462EE66B
:406680004FF480264FF0010CFFF7FABB5A4600F0BBF902460B46D3E600F00100C0F10208FFF7F5BAAFF30080000000604715F73F44DF5DF80BAE543E555555555555D53F2A
:4066C000FE822B654715F73F9C7500883CE4377EFEFFEF3F0000F03F0000D03F0000E03F2DE9F041604E0C46B6460E40764505460B4600F098800029024676DD5FEA215E86
:4067000000F08180AEF2FF3EC3F313031EF0010F43F480135ED100273C46D10F01EB43034FEA6E0E520016204FF4001165189D424FEAD2764FEA420202DC5B1B6C180F44D7
:40674000013806EB43034FEA5101EFD1844620264FF000410AE0A34220D0D50F013E4FEA510105EB43034FEA420220D09C420CEB0105F0DA002D05EB010C09DBA0461B1BEF
:40678000954288BF03F1FF334446521B0844E4E7BCF1000FF2DB04F10108F0E7954217D8002D05EB010C48DB98460023ECE7134315D140087B1003F17F5303F50013FA0761
:4067C00003EB0E57394648BF40F00040BDE8F0811C46C2E7D10F01EB430352009BE7411C31D000F001031844E3E721F000460643ECD079BB8E46D30AAEF1150E5205002B4C
:40680000F9D0DC0222D400215B00D80201F10101FAD5C1F10100C1F1200422FA04F4234386448A406EE702460B4600F025FB2A46234600F06FF9BDE8F081BCF1000FAADA86
:40684000A0460023A0E701373046B3E7202401200021E2E702460B4600F05AF902460B4600F034FCB2E700BF0000F07F21F00041704700BF41F0004101F58010C00F70474F
:4068800010B431F0004408D0114BA1F580129A4208D804205DF8044B704718B902205DF8044B704701F1FF41094B01F5E0019942EFD9B4F5801F01D20320EBE7054B9C428C
:4068C00001D00020E6E7B0FA80F04009E2E700BFFFFFDF7F0000F07F0020704700200149704700BF0000F87FF0B5C1F30A5EAEF2FF35132D83B002460B460C464FEAD17683
:4069000007462EDC002D48DB3C49294101EA030010432BD049080B4053EA02070CD04FF48023132D24EA010143FA05F444EA01040CBF4FF0004700273149234601EBC60615
:40694000D6E900453A462046294600F0E3F8CDE90001DDE9000122462B4600F0D9F803B0F0BD332D06DDB5F5806F43D01046194603B0F0BDAEF2134E4FF0FF3121FA0EF1ED
:406980000142F3D049080142D6D04FF0804320EA010143FA0EF70F43CEE721F000410143E4D0C3F3130141EA000CCCF1000141EA0C0C13495C0C4FEA1C3C0CF4002C64040B
:4069C00001EBC6014CEA0403D1E900452046294600F0A0F8CDE90001DDE9000122462B4600F096F8024621F0004141EAC67310461946BDE700F08EF8BAE700BFFFFF0F003C
:406A0000887D000000000000F8B5C1F30A5604460D460B46174616BB21F00043034332D00022314B00F028FA304A044697420D460B4637DB40F2FE72C1F30A56363E3E4429
:406A4000964215DD24A1D1E9000122462B4600F053F821A3D3E9002300F00EFAF8BD40F2FF72964224D040F2FE723E449642E9DC002E09DD23F0FF4323F4E00343EA06554D
:406A800020462946F8BDF8BD16F1350F15DA4CF250339F42D6DC12A1D1E9000122462B4600F02AF80EA3D3E9002300F0E5F9F8BD02460B4600F02EF8F8BD23F0FF4323F4CD
:406AC000E003363643EA0655204629460022084B00F0D2F9F8BD00BF9C7500883CE4377E59F3F8C21F6EA50100005043B03CFFFF0000903CAFF3008003F0004321F00042AB
:406B000043EA0201704700BF81F0004102E000BF83F0004330B54FEA41044FEA430594EA050F08BF90EA020F1FBF54EA000C55EA020C7FEA645C7FEA655C00F0E2804FEA8B
:406B40005454D4EB5555B8BF6D420CDD2C4480EA020281EA030382EA000083EA010180EA020281EA0303362D88BF30BD11F0004F4FEA01314FF4801C4CEA113102D04042EF
:406B800061EB410113F0004F4FEA03334CEA133302D0524263EB430394EA050F00F0A780A4F10104D5F1200E0DDB02FA0EFC22FA05F2801841F1000103FA0EF2801843FA3B
:406BC00005F359410EE0A5F120050EF1200E012A03FA0EFC28BF4CF0020C43FA05F3C01851EBE37101F0004507D54FF0000EDCF1000C7EEB00006EEB0101B1F5801F1BD3FE
:406C0000B1F5001F0CD349085FEA30004FEA3C0C04F101044FEA445212F5800F80F09A80BCF1004F08BF5FEA500C50F1000041EB045141EA050130BD5FEA4C0C404141EBE6
:406C4000010111F4801FA4F10104E9D191F0000F04BF01460020B1FA81F308BF2033A3F10B03B3F120020CDA0C3208DD02F1140CC2F10C0201FA0CF021FA02F10CE002F1FE
:406C80001402D8BFC2F1200C01FA02F120FA0CFCDCBF41EA0C019040E41AA2BF01EB0451294330BD6FEA04041F3C1CDA0C340EDC04F11404C4F1200220FA04F001FA02F3DE
:406CC00040EA030021FA04F345EA030130BDC4F10C04C4F1200220FA02F001FA04F340EA0300294630BD21FA04F0294630BD94F0000F83F4801306BF81F480110134013DCC
:406D00004EE77FEA645C18BF7FEA655C29D094EA050F08BF90EA020F05D054EA000C04BF1946104630BD91EA030F1EBF0021002030BD5FEA545C05D14000494128BF41F04A
:406D4000004130BD14F580043CBF01F5801130BD01F0004545F0FE4141F470014FF0000030BD7FEA645C1ABF194610467FEA655C1CBF0B46024650EA013406BF52EA033570
:406D800091EA030F41F4002130BD00BF90F0000F04BF0021704730B54FF4806404F132044FF000054FF0000150E700BF90F0000F04BF0021704730B54FF4806404F1320408
:406DC00010F0004548BF40424FF000013EE700BF42004FEAE2014FEA31014FEA02701FBF12F07F4393F07F4F81F06051704792F0000F14BF93F07F4F704730B54FF46074F9
:406E000001F0004521F0004120E700BF50EA010208BF704730B54FF000050AE050EA010208BF704730B511F0004502D5404261EB41014FF4806404F132045FEA915C3FF4AE
:406E4000DCAE4FF003025FEADC0C18BF03325FEADC0C18BF033202EBDC02C2F1200300FA03FC20FA02F001FA03FE40EA0E0021FA02F11444C1E600BF70B54FF0FF0C4CF475
:406E8000E06C1CEA11541DBF1CEA135594EA0C0F95EA0C0F00F0DEF82C4481EA030621EA4C5123EA4C5350EA013518BF52EA033541F4801143F4801338D0A0FB02CE4FF0A3
:406EC0000005E1FB02E506F00042E0FB03E54FF00006E1FB03569CF0000F18BF4EF0010EA4F1FF04B6F5007F64F5407404D25FEA4E0E6D4146EB060642EAC62141EA55517D
:406F00004FEAC52040EA5E504FEACE2EB4F1FD0C88BFBCF5E06F1ED8BEF1004F08BF5FEA500E50F1000041EB045170BD06F0004646EA010140EA020081EA0301B4EB5C04D8
:406F4000C2BFD4EB0C0541EA045170BD41F480114FF0000E013C00F3AB8014F1360FDEBF002001F0004170BDC4F10004203C35DA0C341BDC04F11404C4F1200500FA05F30B
:406F800020FA04F001FA05F240EA020001F0004221F0004110EBD37021FA04F642EB06015EEA430E08BF20EAD37070BDC4F10C04C4F1200500FA04F320FA05F001FA04F22F
:406FC00040EA020001F0004110EBD37041F100015EEA430E08BF20EAD37070BDC4F1200500FA05F24EEA020E20FA04F301FA05F243EA020321FA04F001F0004121FA04F24E
:4070000020EA020000EBD3705EEA430E08BF20EAD37070BD94F0000F0FD101F00046400041EB010111F4801F08BF013CF7D041EA060195F0000F18BF704703F000465200D6
:4070400043EB030313F4801F08BF013DF7D043EA0603704794EA0C0F0CEA135518BF95EA0C0F0CD050EA410618BF52EA4306D1D181EA030101F000414FF0000070BD50EA73
:40708000410606BF1046194652EA430619D094EA0C0F02D150EA013613D195EA0C0F05D152EA03361CBF104619460AD181EA030101F0004141F0FE4141F470014FF000009A
:4070C00070BD41F0FE4141F4780170BD70B54FF0FF0C4CF4E06C1CEA11541DBF1CEA135594EA0C0F95EA0C0F00F0A7F8A4EB050481EA030E52EA03354FEA013100F08880BB
:407100004FEA03334FF0805545EA131343EA12634FEA022245EA111545EA10654FEA00260EF000419D4208BF964244F1FD0404F5407402D25B084FEA3202B61A65EB0305B4
:407140005B084FEA32024FF480104FF4002CB6EB020E75EB030E22BFB61A754640EA0C005B084FEA3202B6EB020E75EB030E22BFB61A754640EA5C005B084FEA3202B6EBE4
:40718000020E75EB030E22BFB61A754640EA9C005B084FEA3202B6EB020E75EB030E22BFB61A754640EADC0055EA060E18D04FEA051545EA16754FEA06164FEAC30343EAEF
:4071C00052734FEAC2025FEA1C1CC0D111F4801F0BD141EA00014FF000004FF0004CB6E711F4801F04BF01430020B4F1FD0C88BFBCF5E06F3FF6AFAEB5EB030C04BFB6EB43
:40720000020C5FEA500C50F1000041EB045170BD0EF0004E4EEA113114EB5C04C2BFD4EB0C0541EA045170BD41F480114FF0000E013C90E645EA060E8DE60CEA135594EA31
